:020000040800F2
:10000000F0570024C503000861720008516F000812
:100010005972000851220008B18B0008000000004E
:10002000000000000000000000000000B1750008A2
:10003000F129000800000000017300087176000833
:10004000E3030008E3030008E3030008E3030008F8
:10005000E3030008E3030008E3030008E3030008E8
:10006000E3030008E3030008E3030008D1220008CB
:10007000E1220008F12200080123000811230008F2
:1000800021230008E3030008E3030008E30300085A
:10009000E3030008E3030008E3030008E3030008A8
:1000A000E303000819780008E3030008E3030008ED
:1000B000E3030008E3030008E3030008E303000888
:1000C000E3030008E3030008E3030008E303000878
:1000D000E3030008618A0008E3030008E303000863
:1000E000E3030008E303000800000000E303000846
:1000F000E3030008E3030008E3030008E303000848
:10010000E3030008E3030008E3030008E303000837
:10011000E3030008E3030008E3030008E303000827
:10012000E3030008E3030008E3030008E303000817
:10013000E3030008E3030008E3030008E303000807
:1001400000000000000000000000000000000000AF
:10015000E3030008E3030008E3030008E3030008E7
:10016000E3030008E3030008E3030008E3030008D7
:10017000E3030008E3030008E303000800000000B5
:10018000E3030008E3030008117A0008E303000812
:10019000E3030008E3030008E3030008E3030008A7
:1001A000E3030008E3030008E30300080000000085
:1001B000E3030008E3030008E3030008E303000887
:1001C000E3030008E3030008000000000000000053
:1001D0000000000000000000E30300080000000031
:1001E000000000000000000000000000000000000F
:1001F0000000000000000000E3030008E303000823
:10020000E3030008E303000800000000E303000824
:10021000E3030008E3030008E3030008E303000826
:10022000E303000800000000E303000800000000F2
:10023000E3030008E303000800000000E3030008F4
:10024000E3030008E3030008E3030008E3030008F6
:10025000E3030008E3030008E3030008E3030008E6
:10026000E3030008E3030008E3030008E3030008D6
:10027000E3030008E3030008E303000800000000B4
:10028000E3030008E3030008E3030008E3030008B6
:1002900000000000E3030008E30300080000000082
:1002A00000000000E3030008E3030008E303000884
:1002B000518A0008E3030008E3030008E303000891
:1002C000E3030008E3030008E303000800F002F87A
:1002D00000F068F814A696E8000CB244B344DA457E
:1002E00001D100F05FF8BAE80F000FA696E83000E1
:1002F000A5EB040504EB0607AAEB0704A7F1010729
:100300004FEA15154FEA3414A4F10104AC4201D3AD
:1003100000F048F813F0010F18BFFB1A43F0010377
:1003200000F001F8DBE7184714D8000034D80000CB
:10033000103A24BF78C878C1FAD8520724BF30C811
:1003400030C144BF04680C60704700007047000073
:100350000023002400250026103A28BF78C1FBD8CE
:10036000520728BF30C148BF0B60704766290DF0A7
:10037000C582642900F0D680002070471FB50DF0BB
:10038000ADFA00F005FE0400002000210DF088FA0F
:10039000401C6060002000210DF06CFAE0601FBD81
:1003A00010B510BD00F086FF1146FFF7E7FF08F01B
:1003B00003FC01F02FFA03B4FFF7F2FF03BC01F0D6
:1003C00085FA00000A4880470A4880470A480047E3
:1003D000FEE7FEE7FEE7FEE7FEE7FEE7FEE7FEE7F5
:1003E000FEE7FEE705480649064A074B704700004E
:1003F000012A000841770008CD020008F0510024CE
:10040000F0570024F0530024F053002453EA020C68
:1004100000F069802DE9F04B4FF00006002B1FBF64
:10042000B3FA83F503FA05F424FA05F65E4012BF29
:100430001643B2FA82F502FA05F4C5F120051EBF93
:1004400022FA05FC44EA0C04203556EA044C4FEA33
:10045000144418BF641C4FF000084FF0000990428C
:1004600071EB030C39D3002919BFB1FA81F701FAF6
:1004700007F6B0FA80F700FA07F6C7F120071EBFAB
:1004800020FA07FC46EA0C062037B6FBF4FCA7EB83
:100490000507103F07F01F0BCBF120062CFA06F6DC
:1004A0000CFA0BFB44BFB3460026202FA4BF5E46C8
:1004B0004FF0000B5BEA060C08BF4FF0010B19EB85
:1004C0000B0948EB0608ABFB027C06FB02CC0BFBDE
:1004D00003CCC01B71EB0C01C1E70B460246414641
:1004E0004846BDE8F08B13B5084318BF4FF0FF3006
:1004F0000146AFF30080BDE81C4070470FB41CB547
:10050000074B06AA7B4469460090059800F069FCF9
:100510000020694600F078FC1CBC5DF814FB00006C
:10052000010900002DE9F0410646002410687529F4
:10053000314616A510D0AFF30080002802DA404201
:1005400013A507E031688A0701D512A502E0490723
:1005500004D511A5012401E0AFF3008000210A2297
:1005600006F1240709E0B0FBF2FCB0FBF2F302FB5A
:100570001C00303078541846491C0028F3D123461B
:100580002A463046BDE8F04100F0BFB90000000047
:100590002D0000002B000000200000002DE9F04796
:1005A0004FF0000A89460446C0F820A02046E168C2
:1005B0008847002876D0252806D0D4E90121904725
:1005C000206A401C2062F1E7E16820460025884748
:1005D000C4F81CA006460027C4F818A02A2E09D08B
:1005E00030460DF0FAF838B304EB8708303EC8F80F
:1005F000186019E059F8041B204604EB870291614A
:10060000E1688847012F064618D1E069002820DA02
:1006100025F020051DE0D8F8180000EB800006EB5F
:1006200040003038C8F818002046E1688847064680
:100630000DF0D3F80028EED1012F0AD02E2E08D1CC
:100640002046E16888477F1C0646022F45F02005BA
:10065000C4DBA069002803DA404245F00105A0612F
:10066000E80701D025F01005B6B1A6F14100192820
:1006700002D8203645F400654A46314620462560BA
:100680004D46FFF773FE58B1012806D0ED1D25F049
:10069000070000F1080989E704E005F1040985E78E
:1006A00030468AE7206ABDE8F08770B5064600F05C
:1006B0001DF90468054630460A22002100F002FCBC
:1006C0002C6070BD014A00F035BC00000000002421
:1006D00040EA0103024630B59B0710D14FF00134C8
:1006E00000E008C208C91D1B9D4315EAC41FF8D0CD
:1006F00013F0FF0102F8011B0DD01B0AF8E711F8F7
:10070000013B002B02F8013B05D011F8013B002B07
:1007100002F8013BF3D130BD10B5431C02E010F8E4
:10072000011B71B18107FAD14FF0013202C88C1A56
:100730008C4314EAC211F9D0C01A0A0603D0C01EB5
:1007400010BDC01A10BD0A0401D0801E10BD0902E0
:10075000FCD0401E10BD032A40F2308010F0030C84
:1007600000F0158011F8013BBCF1020F624498BF04
:1007700011F801CB00F8013B38BF11F8013BA2F1A1
:10078000040298BF00F801CB38BF00F8013B11F01C
:10079000030300F02580083AC0F0088051F8043BBC
:1007A000083A51F804CBA0E80810F5E7121D5CBF29
:1007B00051F8043B40F8043BAFF30080D20724BF5C
:1007C00011F8013B11F801CB48BF11F8012B24BFF0
:1007D00000F8013B00F801CB48BF00F8012B70473F
:1007E00010B5203AC0F00B80B1E81850A0E81850BE
:1007F000B1E81850A0E81850203ABFF4F5AF5FEA0E
:10080000027C24BFB1E81850A0E8185044BF18C9B2
:1008100018C0BDE810405FEA827C24BF51F8043B59
:1008200040F8043B08BF7047D20728BF31F8023BAD
:1008300048BF11F8012B28BF20F8023B48BF00F841
:10084000012B704702F0FF0343EA032242EA02420F
:1008500000F024B84FF000020429C0F0128010F01C
:10086000030C00F01B80CCF1040CBCF1020F18BF8C
:1008700000F8012BA8BF20F8022BA1EB0C0100F01F
:100880000DB85FEAC17C24BF00F8012B00F8012BF2
:1008900048BF00F8012B70474FF0000200B5134627
:1008A00094469646203922BFA0E80C50A0E80C5090
:1008B000B1F12001BFF4F7AF090728BFA0E80C5041
:1008C00048BF0CC05DF804EB890028BF40F8042B3A
:1008D00008BF704748BF20F8022B11F0804F18BFA7
:1008E00000F8012B70477047704770470048704709
:1008F0002000002410B5FFF7F9FF006810BD10B507
:100900000446FFF7F3FF046010BD2DE9F0470D46E4
:1009100099469246044600F124080168880604D5E9
:10092000E06921F01001216000E00120A84201DD12
:10093000471B00E00027A1697A1902EB0900081A99
:10094000A0612078C00602D42046AFF300800026C4
:1009500008E0D4E901211AF806009047206A401CFB
:10096000761C20624E45F4DB2078C0060AD520466E
:10097000AFF3008006E0D4E9012130209047206ADF
:10098000401C2062381EA7F10107F4DC07E0D4E91F
:10099000012118F805009047206A401C2062281E9B
:1009A000A5F10105F3DC2046AFF3008020780006B6
:1009B00002D50220BDE8F0870120FBE72DE9FF4FBB
:1009C0000C461E464FF0FF378BB0D2E90001DDF830
:1009D00060800A908A46C1F30A5505B93D46002158
:1009E00008464FF00000BAF1000F00F4400005DAAD
:1009F00000EB80004FF4400101EA50004FEA9059AB
:100A0000B9F1010F00DDB9460A9850EA4A000ED04C
:100A100044F61050A5F2FF3545432F14B8F1000FEE
:100A20001ED07542291E1EDDC9F100021CE0B8F17E
:100A3000010F4FF0000001D0302103E0F24305E048
:100A40002154401CB042FBDB3046002200212154DF
:100A50000B99C1F80880C1E900200FB0BDE8F08F04
:100A6000BD1B6D1CDEE74A4600DA694206A800F0AD
:100A700091FB06AB93E8070003AB83E80700504601
:100A80000A990BF0AFFD8DE80700A0F500501F3864
:100A900000900398002D0ADD42F21F014A460844E7
:100AA000002303A9039068460CF05AF809E0A0F56A
:100AB00000504A461F38002303A9039068460CF0F3
:100AC00079F88DE807000004000C03D04FF0FF30E8
:100AD000410800E01046B8F1000F03D00022009258
:100AE00015461EE0751E05D400F056FA30326255E8
:100AF0006D1EF9D5B3460122084302D000227F1CA7
:100B000004E02078302801D100227F1E002A0997B6
:100B100084D01DE0112D07DA00F03EFA3032625524
:100B20006D1C50EA0102F5D1084302D00098C8B10B
:100B30000EE00021681E05E0235C625C63542254D1
:100B4000401E491C8142F7DBAB46A81B401E0990A2
:100B5000002004F80B000B98099AC0F80880C0E93F
:100B6000002B7AE711264FF0000857E72DE9F04FE8
:100B700088460446D21D22F0070191B0D1E9000158
:100B8000CDE90A010CF062F902460B98C00F01D0C2
:100B90002D2007E02068810701D52B2002E02021CD
:100BA00001EAC000032A099001D0072A05DB0346A9
:100BB0004146204600F03EFA0BE12078800601D540
:100BC000E06900E00620B8F1650F814606D0B8F173
:100BD000660F18D0B8F1670F70D131E00020B9F17D
:100BE000110F009001DB112301E009F101030AAAB2
:100BF00001A90CA8FFF7E2FEDDE90C70002609F15F
:100C00000105834647E001204B4600904FF0004726
:100C10000AAA01A90CA8FFF7D1FEDDE90DB00C99D5
:100C20005D46002610B909F101000D18B9EB050069
:100C300003D4C0F1FF3609F10105A5EB09002BE053
:100C4000B9F1010F01DA4FF001090020B9F1110FDC
:100C50000090484601DD112300E003460AAA01A9DD
:100C60000CA8FFF7ABFEDDE90C704D46002683466D
:100C7000207800070AD4AB4500DA5D4601A8012DB3
:100C800004DD411911F8011C302907D04F4502DA63
:100C900017F1040F04DA012082460FE06D1EEEE723
:100CA000002F02DCED1B3E4403E0781CA84200DD6F
:100CB0007D1CB81B00F1010A4FF0004720780007A7
:100CC00003D4AA4501DB4FF0FF3A0021B7F1004FF2
:100CD0000DF143088DF8431024D002202B23002F60
:100CE00001DA7F422D230A21021EA0F1010000DC5F
:100CF0005FB197FBF1FC97FBF1F201FB1C7C1746FF
:100D00000CF1300C08F801CDEEE7A8F101000370FA
:100D10002188090501D5452100E06521A0F10108E0
:100D200000F8011C09980FA9A1EB0807FF1D00B1ED
:100D30000120411901EBEA70A1693844081A401EEC
:100D4000A0612078C00602D42046AFF30080099845
:100D500028B1D4E901219047206A401C2062207804
:100D6000C00622D52046AFF300801EE0002E04DB33
:100D7000B34502DD01A8805D00E03020D4E9012107
:100D80009047206A401C2062761CAAF101005FEAAD
:100D9000000A0AD100F0FCF8C0680168405CD4E9A0
:100DA00001219047206A401C2062281EA5F1010500
:100DB000DCDC07E0D4E9012118F8010B9047206A38
:100DC000401C2062381EA7F10107F3DC2046AFF378
:100DD0000080032011B041E601694A1C02610878D5
:100DE000704700B58FB0CDE901310021059105496B
:100DF0007944CDE9031011466846FFF7CFFB0FB0E9
:100E000000BD0000E5FFFFFF0A6802F8010B0A6061
:100E1000704700000FB40B0010B54FF000048AB00B
:100E20000FA900910E99CC60234C7C44234A7A444C
:100E3000CDE9064200D004236FF00042CDE9013233
:100E40001F4A7A446B460892024600200CF0B8FD17
:100E50000AB010BC5DF814FBF0B507464FF0FF3048
:100E60001E4615460C463B4685B06A460091CDE9C4
:100E7000010131460020049004A8FFF7CBFF04993C
:100E80000346601825B109B1024600E022462A60F7
:100E900000290ED0002B02DD0099814209D03B468B
:100EA0006A463146001B0094CDE9010404A8FFF70F
:100EB000B1FF05B0F0BD000087020000A1020000F4
:100EC000DD0100002DE9F04791460F4680460446BB
:100ED000002614F8015B2DB100F052F80068405D67
:100EE000C007F6D12B2D02D02D2D18D0641E4A46F6
:100EF0003946204600F0FEF827B13968A14201D1F9
:100F0000C7F800804FF0020471050BD5404200285D
:100F100003DDFFF7EBFC0460A007BDE8F08746F4B3
:100F20008066E4E70028F8DAFFF7E0FC04606FF081
:100F30000040F2E72DE9F04115460E46040002D1CB
:100F40002C6804B90BA4204600F0A6F904442078CC
:100F500070B127463146384600F08EF904442078B7
:100F600010B1002004F8010B38462C60BDE8F08178
:100F70000027F9E700000000004870472000002427
:100F800010B500F005F8001D10BD00BF15C9000028
:100F9000004870474000002430B5B0F10A0271F1FA
:100FA00000034FEA900E4EEA817EB0EB0E0061EB3B
:100FB00091014FEA101E4EEA017E10EB0E0041EB4C
:100FC00011114FEA102E4EEA016E10EB0E0041EBAC
:100FD00011214FEA104E4EEA014E10EB0E0041EB8C
:100FE0001141401841F100014FEAD00040EA417040
:100FF0004FEAD1014FEA810444EA907410EB800576
:1010000044EB01046D1944EB0404521BA3414FF05F
:10101000000348BF0A3200D530BD401C41F1000139
:1010200030BD10B50446FFF7ABFF0068005D00F06F
:10103000010010BD2DE9F0411F460446032601685A
:10104000072A01F4006004DB08B116A505E016A527
:1010500003E008B115A500E015A521F010002060FF
:10106000A069C01EA0610FB1401EA0612046AFF371
:1010700000804FB1D4E9012138469047206A401CD6
:101080002062C01C206206E0206AFAE7D4E9012150
:1010900015F8010B9047761EF8D22046AFF300807A
:1010A000BDE8F0814E414E006E616E00494E460033
:1010B000696E6600426842B1016811F8013B23B1D4
:1010C000521EC0E90012184670470121C160881EF7
:1010D000704742685AB1C368016843B983688B425C
:1010E00005D0491E521CC0E90012002070474FF085
:1010F000FF3070472DE9F05F824615468B4600278A
:101100000AF10104B9460078302801D09DB113E0FE
:1011100014F8010B0127782803D0582801D045B1D5
:101120000AE00DB1102D07D1002714F8010B10258E
:1011300002E0082500E00A250026B0460EE005FB87
:10114000080005FB06F101271FFA80F801EB1046A5
:10115000B6F5803F00D3B94614F8010B294600F0DC
:10116000CEF80028EBDABBF1000F05D00FB1641EFA
:1011700000E05446CBF80040B9F1000F06D0FFF76D
:10118000B5FB02210160C81EBDE8F09F48EA064099
:10119000FAE700002DE9F047814616468AB0354847
:1011A00078440DC88DE80D0032487844801C03ACAB
:1011B0000DC884E80D0041F69B300844372190FBB0
:1011C000F1F290FBF1F5A5F1800501FB12041B3C47
:1011D00002D56442012000E00020DFF898A080469C
:1011E0000027FA44AAF1BE0A0EE0E0070AD0324610
:1011F000684607EB470101230AEB81010BF0DAFC9B
:101200008DE8070064107F1C002CEED1194F7F443D
:10121000AE3F19E0E80715D007EB04100DF1180AEE
:1012200090E80E008AE80E00C068F04201D19819DB
:1012300008903246012306A903A80BF0BBFC03ABC0
:1012400083E807006D10641C002DE3D14FF001030B
:1012500032466946B8F1000F03A802D00BF080FCBB
:1012600001E00BF0A7FCC9E90001C9F808200AB0A9
:10127000BDE8F087F4C8000030B503461D781DB105
:101280000A4603E0AC4201D1181A30BD12F8014BF6
:10129000002CF7D15B1CF1E730B503461D783DB15A
:1012A0000A4612F8014B1CB1AC42FAD15B1CF5E7BF
:1012B000181A30BD7546FFF75FFEAE460500694659
:1012C000534620F00700854618B020B5FFF78AF88E
:1012D000BDE820404FF000064FF000074FF0000837
:1012E0004FF0000BAC46ACE8C009ACE8C009ACE874
:1012F000C009ACE8C00921F007018D4670473A28C3
:1013000000D2303820F02002412A01D3A2F1370068
:10131000884201D34FF0FF30704700002DE9FF4FA6
:1013200006468BB00878FF2806D0491C2D2805D02A
:1013300000244FF0000908E000200CE00124F8E749
:1013400009EB8903491C00EB43090878FF28F7D112
:1013500014B1C9F100008146107800252C46AA4638
:1013600029462D2801D02B2804D1521C2D2813D01A
:10137000002082468B461078FF280FD04FF0000CDB
:101380000A21521CA5FB017804FB018105FB0C110D
:10139000C5194BEB0104EEE70120EAE700210846FE
:1013A0004FF00000BAF1000F02D000EB80004008BF
:1013B000C0F38157012F01DD4FF0FF370E9955EA39
:1013C000040009EB01080BD04FF0020918F5FA7F71
:1013D00016DA4FEACA70002F706008DD012007E0BE
:1013E0004FEACA70C6E900B00FB0BDE8F08F002028
:1013F0003060FFF77BFAC0F800901821084616E02D
:10140000B8F5FA7F18DD002F02DAF748784401E0DA
:10141000F6487844D0E90010C6E9001040EACA70E6
:101420007060FFF763FAC0F80090142108460FB00F
:10143000BDE8F04F0CF05FBA002108464FF0000005
:10144000B8F10001099002DAC7F1000200E03A4663
:1014500001DAC8F1000106A8FFF79CFE06AB93E88D
:10146000070003AB83E8070044F23E005BEA040197
:101470000090584604D144F21E012C465D4600916E
:10148000210C0904014306D10099240444EA1544BF
:101490002D041039009104F07F41014306D10099D9
:1014A000240244EA15642D020839009104F07041C9
:1014B000014306D10099240144EA15742D01091F46
:1014C000009104F04041014306D10099A40044EA90
:1014D0009574AD00891E009104F00041084304D1C9
:1014E00000986D196441401E00904FF001033A4688
:1014F0006846B8F1000FCDE9014503A902DD0BF004
:101500006EFB01E00BF041FBBAF1000F04460D4603
:1015100001D084F00044002108464FF000000999F2
:1015200040F2FF77484010F00C0F07D124F0004044
:10153000284303D0C4F30A50B84212D1FFF7D6F9BA
:10154000C0F80090C4F30A50B8420AD1A8487844C1
:10155000D0E90010C6E9001004F0004108437060B3
:1015600042E7C6E900543FE72DE9FF4F1F464FF021
:10157000000A4FF0FF38454691B0D7E90146CDF853
:101580003CA0FFF705FDC0680168405C1090B96998
:1015900012986D1C8847396A814688470028F6D121
:1015A000B9F1FF3F0AD0002E24F4D06411DDB9F167
:1015B0002B0F08D0B9F12D0F0BD102E0404615B02A
:1015C00013E744F48064B96912986D1C8847761E4D
:1015D0008146600504A901D52D2000E02B20002EB6
:1015E00001F1010B0DF130088DF810003FDDB9F16C
:1015F000690F08D0B9F1490F05D0B9F16E0F02D0CB
:10160000B9F14E0F1CD13B4601A8009580E850026D
:10161000DDE912126FF002000CF0D6F9C11CCED138
:101620000EE0B96912986D1C884781461398761EA2
:1016300044F4007405600F98401C002E0F9016DDD6
:10164000B9F1300FEDD0B9F1780F02D0B9F1580FE0
:101650000DD10F9801280AD13B46CDE90054DDE9B0
:101660001212001F02960CF0ADF9C11CA7D11099FF
:1016700089453ED144F0800406E01399681CAAF124
:10168000010A44F400740860B9696D1C1298761E52
:10169000884730288146F0D02BE01099894505D144
:1016A000200603D4761E44F0800418E048460CF06F
:1016B00094F808B3761E0DF123029345A9F130008A
:1016C00044F4007406D20BF8010B200607D5AAF1EA
:1016D000010003E0200602D40AF101008246A005C1
:1016E00002D51399681C0860B96912986D1C884767
:1016F0008146002ED1DC53E0002E51DDB9F1650F9B
:1017000002D0B9F1450F4BD1A00549D5B9696D1C7F
:101710001298761E24F440748847002E81460CDD12
:101720002B2804D0B9F12D0F07D144F48074B96986
:1017300012986D1C8847761E8146E00501D52D2143
:1017400000E02B2108F8011BCDF8008021E0761E77
:101750000DF13901884544F400740CD2A9F1300030
:1017600010F0FF0088F8000002D10099884509D9DF
:1017700008F1010806E0E00501D51E4801E042F24B
:101780000F708246B96912986D1C8847814613987C
:101790000560002E04DD48460CF01FF80028D6D165
:1017A000F96912988847FF2053468BF8000088F8A3
:1017B000000000200A900B9004AA0CA90AA8FFF7C9
:1017C000ADFDA00502D46FF00100F8E614F0240F7F
:1017D00012D0E0071CD13868DDE90A12031D3B6016
:1017E0000068C0E9001213E054C7000046C70000BB
:1017F0000AC60000F1D8FFFF0AA968460BF0E6FE12
:10180000E00705D13868009A011D39600068026060
:101810002846D4E610B50446AFF300802046BDE864
:101820001040FEF7C8BD000030B44FF0013C50F846
:10183000042BCCFA52F451F8043BD51A20D1FCB950
:1018400050F8042BCCFA52F451F8043BD51A17D1B6
:10185000B4B950F8042BCCFA52F451F8043BD51A21
:101860000ED16CB950F8042BCCFA52F451F8043B69
:10187000D51A05D1002CDAD030BC4FF000007047EB
:1018800029BAB1FA81F111F01801D1F12000844098
:10189000F2D1CA40CB4012F0FF0213F0FF0330BC7C
:1018A000D01A7047B2F120030AD5C2F1200301FA21
:1018B00002F120FA03F341EA030100FA02F0704753
:1018C00000FA03F14FF000007047000001491820B2
:1018D000ABBEFEE7260002002DE9FF4F1F464FF08A
:1018E0003C0987B04FF00042DDE9141001F1010816
:1018F000DDF858A002EA405003900020059083468E
:10190000054604460490B969461E08988847AAF11E
:10191000010A0290BAF1000F3BDD02982E2815D083
:101920001021FFF7ECFC00282EDB4FF0010B05998E
:10193000014317D0B9F1000F0BDB4A46C117FFF77F
:10194000B1FF05430C43A9F1040905E0012004900F
:101950000BE008B145F0010501200590049820B97D
:10196000361D02E0049800B1361FB969089808F1E5
:1019700001088847BBF1000FAAF1010A0290C9D003
:101980000999C1F80080C5E70298702808D050284E
:1019900006D0F96908988847BBF1000F14D04FE0D2
:1019A000002002900120BBF1000F049009D0B9691A
:1019B000089808F101088847AAF10109B9F1000F58
:1019C00007DCF969089888476FF001000BB0BDE8A3
:1019D000F08F2B2804D02D280CD14FF0FF3004902D
:1019E000B969089808F101088847A9F10109B9F116
:1019F000000FE6DD411CE4D00A21FFF780FC00283F
:101A0000DFDB029908F1010801EB810100EB4100E5
:101A10000290B969089888470A21FFF770FC099A73
:101A2000A9F10109B9F1000FC2F8008001DD002819
:101A3000E7DAF969089888470499029800FB01667B
:101A400055EA040004D004F04041090002D006E049
:101A5000039898E0A40044EA9574AD00B61E04F023
:101A60000041080002D16D196441761E159810F0EE
:101A7000240F03D04FF00B095C4803E04FF0280916
:101A80006FF07D008246564507DAAAEB06018944CD
:101A9000B9F1410F01DD4FF0410901200021A9F109
:101AA0000102FFF7FFFE024628400B462140084393
:101AB00001D0012100E00021501E029143F1FF31CD
:101AC00028402140084301D0012000E00020029975
:101AD000834651EA0B014FD0002108464FF0000029
:101AE000039900F4400039B100EB80004FF440014D
:101AF00000EBD07001EA60008015012802DD4FF094
:101B0000FF3000E013D0401C36D0029860B3BBF128
:101B1000000F0CD14A4601200021FFF7C3FE2840E8
:101B20002140084301D0012000E00020E0B1012065
:101B30004A460021FFF7B6FE034640190A466141B6
:101B40002D1A8C4111D3B9F1400F09DD159810F011
:101B5000240F02D0AAF1340603E0AAF1170600E030
:101B6000761C00254FF0004406E05B1E42F1FF3278
:101B700020EA030521EA0204CAF10100B04206DAB4
:101B80001B49039808430190002000900EE0039A3F
:101B9000C4F3D321E80A0A43164940EA44500A43F1
:101BA0003146CDE9000268460BF0C4FD159810F0EF
:101BB000240F0BD01598C00715D13868DDE9001245
:101BC000031D3B600068C0E900120CE002A86946F2
:101BD0000BF0FCFC1598C00705D13868029A011D6E
:101BE0003960006802604046F0E6000002FCFFFF3A
:101BF0000000F07F0000F03F2DE9FF4F92461D46A8
:101C000085B04FF00041DDE9124BDDE914727F1E13
:101C100001EA4B50414940F0FF4940EA01080021E8
:101C200022F020004928049102D04E2828D04CE010
:101C30003BA0012607C88DE80700A9690698641C27
:101C400088477F1E014606D41DF8060018B121F012
:101C5000200181420BD0E96906988847032E34D0D1
:101C6000082E32D06FF0010009B0BDE8F08F761C6D
:101C7000032E01D0082EE0D1601CCAF80000DCE77A
:101C8000A9690698641C88477F1E2AD420F020008A
:101C9000412826D1A9690698641C88477F1E20D454
:101CA00020F020004E281CD1A9690698641C8847A2
:101CB0007F1E48F4002849F48009CAF8004001D486
:101CC000282806D0E969069888475FEACB7012D0C9
:101CD00022E0A9690698641C88477F1E01D4002869
:101CE00003DAE96906988847BCE72928F1D1641C22
:101CF000CAF80040E9E71BF0240F07D028680499D0
:101D0000031D2B600068C0E9001805E02868021D6B
:101D10002A600068C0F800902046A5E70000F07F28
:101D2000494E46494E495459000000007047000092
:101D300082B001200121012209F01AFA012009F0E4
:101D4000C3F9642009F0F0FB382009F0F5F96420AC
:101D500009F0EAFB0B2009F0D3F9642009F0E4FB59
:101D60009FED170A09F028FA642009F0DDFB40F224
:101D70006C7009F08DF9642009F0D6FBB1EE000A11
:101D8000B7EE001ADFED0F0A09F056F9642009F0EA
:101D9000CBFB0AF0C9F940F2B4250026C2F2004597
:101DA00001AC019004E000BF0A2120460AF024F9AA
:101DB00028780128F8D12E7000F012FDF4E700BF5A
:101DC000000086420AD7233C9CB040F28414C2F241
:101DD0000044204608F02CF949F69A114CF6CD4003
:101DE000C3F61961616049F69A11C3F64C60206030
:101DF0004FF07C50C3F69961A0604CF6CD40E16095
:101E000049F69A11C3F6CC50C3F6995140F2B47218
:101E1000C4E9040140F6405140F6A620C2F2004158
:101E20000026C3F60670C2F20042C1E90060886075
:101E300020460C4607F068FB0AF076F9B6EE008AF9
:101E400040F2BC15C2F200459FEDFACA0DF1180A26
:101E50000DF1600B15AF9FEDF8DA9FEDF8EA1B90DE
:101E60009FEDF7FA9FEDF79A9FEDF7AA8CE000BF80
:101E7000A06811906068109020680F90B0EE481A2A
:101E80009DED0F0AB0EE483A9DED112A40F298728E
:101E900040F2F406A0EE0D1A9DED100AA0EE0D3AE8
:101EA000B0EE480AC2F20042C2F2004640F2A0740C
:101EB00040F2A877A2EE0D0AC2F20044BDEEC11AAC
:101EC000C2F2004740F21815C2F2004511EE100AA6
:101ED000BDEEC31ABDEEC02A96ED000A1080B8EE22
:101EE000C00A01B211EE100A03EE101A208012EEA1
:101EF000100AF8EEC30A3880284605F0B5F9B4F99F
:101F0000000096ED010AB8EEC00A40F23C1401EE62
:101F1000100AC2F200442046F8EEC10A05F0A4F906
:101F2000B7F9000096ED020AB8EEC00A40F260165A
:101F300001EE100AC2F200463046F8EEC10A05F082
:101F400093F995ED070A94ED071A96ED072ABDEE71
:101F5000C00ABDEEC11A0023BDEEC22A10EE100A5F
:101F600011EE101A12EE102A00F076F90A211BA8C1
:101F70000AF042F840F6405440F2BC15C2F2004468
:101F800000264746C2F20045284606F071FD0028AB
:101F900000F0868095F9010040F2B472C2F200426E
:101FA00095F9001000EE100A95F9020092ED011A61
:101FB00002EE101AB0EE413A04EE100AB8EEC00A72
:101FC000B8EEC22AB8EEC44AA0EE0E3A92ED000A6C
:101FD000B0EE405AA2EE0E5A92ED022AB0EE426ADC
:101FE00033EE41BAA4EE0E6A75EE409A2BEE0B0A60
:101FF00076EE428AA9EEA90AA8EEA80AF1EEC00A76
:10200000F4EE600AF1EE10FA80F10E81F4EE4F0A60
:10201000F1EE10FA44DD40F2B47240F2C071C2F247
:102020000042C2F2004189EEA00AB0EE4A1A1068DE
:102030000860506848609068886040F6E850F0EEAC
:10204000481AC2F20040C0ED000A40F2C810C2F2C5
:10205000004080ED000A40F2CC10C2F200408BEE4E
:10206000200A80ED000A40F2D010C2F2004088EE53
:10207000A00A80ED000AB0EE490A40F6F450C2F220
:10208000004008F035FA0AF04FF840F6F051C2F27D
:102090000041086040F6EC50C2F20040012101709E
:1020A0000896CDE906660AF03FF840F6EC51C2F218
:1020B0000041097801297BD140F6F05140F6F454F3
:1020C000C2F20041C2F200440CAA09AB0968401AEE
:1020D0000FA900EE100A2046B8EE400A20EE0CBA16
:1020E000B0EE4B0A08F044F994ED040AB4EE40BA9D
:1020F000F1EE10FA0CDB40F6E8500C96C2F200400C
:10210000099600680F9040F6EC50C2F2004006704D
:1021100040F2C8109DED0F1AC2F2004040F6405444
:10212000C2F2004490ED000A40F2C070C2F20040DA
:1021300090ED002A90ED013A90ED024A40F2CC1069
:10214000C2F20040A0EE012A90ED005A40F2D010F9
:10215000C2F20040A5EE013A8DED182A90ED006A1A
:1021600040F28410A6EE014A9DED0C1A20EE012AE1
:102170008DED193A8DED152A25EE012A8DED162AE1
:102180009DED092A20EE020A8DED1A4A8DED120A04
:1021900025EE020A26EE011A8DED130A26EE020A3A
:1021A0008DED171A8DED140AC2F2004014E000BF45
:1021B00040F2B471C2F20041CDE9166688681A9007
:1021C000486819900868189040F28410C2F20040E4
:1021D000CDE91266CDE914660FA902910CA903910D
:1021E00009A9049159463A4612AB8146CDE900A4AB
:1021F000B84606F0ADFE00287FF43AAE40F2B47265
:102200000F982060109860601198A06048462146A1
:10221000C2F2004207F078F940F28001C2F20041B8
:1022200008680130086029E60BF082F9F0EE400AF8
:10223000ECE600BF6F12833A539A8E478FC2F53C8B
:10224000BD37863500000000CDCC4C3E00000000BC
:10225000FEE7000000000000B0B582B040F6E65492
:102260008C46C2F2004486462478002C40F20404D6
:10227000C2F200440CD040F6825140F6B4552068BA
:10228000C2F20041C2F20045884218BF0D462560E7
:10229000206809A1CDE9002372466346FEF72EF9B6
:1022A00024682046FEF738FA81B2204602B0BDE825
:1022B000B04005F0B1B900BF247370643A25642CB6
:1022C00025642C25642C25642300000000000000F8
:1022D00040F29840C2F2004000F05EBF00000000F3
:1022E00040F21050C2F2004000F056BF0000000063
:1022F00040F2A830C2F2004000F04EBF00000000E3
:1023000040F22040C2F2004000F046BF0000000052
:1023100040F2B820C2F2004000F03EBF00000000D2
:1023200040F23030C2F2004000F036BF0000000042
:1023300040F20F42D0F800C0C4F20202944510DC13
:102340006F22C4F20202944520DC3F22C4F2020252
:10235000944536DC1022C4F20202944554D028225F
:102360004EE040F26F42C4F2020294451ADC40F2A1
:102370003F42C4F2020294452ADC40F21042C4F209
:102380000202944540D040F2284239E09F22C4F234
:102390000202944525DC7022C4F20202944533D037
:1023A00088222DE040F29F42C4F2020294451FDCD5
:1023B00040F27042C4F20202944525D040F28842B5
:1023C0001EE04022C4F2020294451DD0582217E0BC
:1023D00040F24042C4F20202944515D040F2584205
:1023E0000EE0A022C4F2020294450DD0B82207E00C
:1023F00040F2B842C4F20202944505D040F2A04235
:10240000C4F20202944517D10CF0F8024AF6AB234D
:10241000103ACAF6AA23A2FB033109A35F2AC1F32B
:1024200002115B5C40F2FF312CEA0101C36588BFF9
:1024300004318165084670472CF0FF01F9E700BFC1
:10244000000610160006101670B540F26F44D0F862
:1024500000C0C4F20204D0F858E0A44519DC9F255E
:10246000C4F20205AC4531DC5725C4F20205AC4587
:1024700056DC1025C4F20205AC4500F092802825F8
:10248000C4F20205AC4500F08C804025C4F2020580
:1024900084E045F22F45C5F60205AC452BDC40F241
:1024A000B745C4F20205AC4548DC40F27045C4F2C1
:1024B0000205AC4575D040F28845C4F20205AC4532
:1024C0006FD040F2A045C4F2020567E040F2274514
:1024D000C4F20205AC4540DCA025C4F20205AC45BF
:1024E0005FD0B825C4F20205AC455AD040F2104581
:1024F000C4F2020552E045F26B45C5F60205AC4553
:102500003CDC45F23045C5F60205AC4549D045F204
:102510004445C5F60205AC4543D045F258453BE07D
:102520005825C4F20205AC453BD07025C4F2020523
:10253000AC4536D08825C4F202052FE040F2B845FC
:10254000C4F20205AC452CD045F20845C5F602059B
:10255000AC4526D045F21C451EE040F22845C4F2A9
:102560000205AC451DD040F24045C4F20205AC4521
:1025700017D040F25845C4F202050FE045F26C4511
:10258000C5F60205AC450CD045F29445C5F60205EA
:10259000AC4506D045F28045C5F60205AC4540F095
:1025A000CC80456EC66E002E866E6E601CBFD0E974
:1025B0001C566E60A44515DC9F24C4F20204A44599
:1025C0002BDC5724C4F20204A4454EDC1024C4F2D0
:1025D0000204A44576D02824C4F20204A44571D094
:1025E00040246BE045F22F44C5F60204A44527DCE5
:1025F00040F2B744C4F20204A44542DC40F2704405
:10260000C4F20204A4455DD040F28844C4F202043E
:10261000A44557D040F2A04450E040F22744C4F211
:102620000204A4453CDCA024C4F20204A44549D021
:10263000B824C4F20204A44544D040F210443DE062
:1026400045F26B44C5F60204A44553DC45F2304420
:10265000C5F60204A4455FD045F24444C5F6020421
:10266000A44559D045F2584452E05824C4F202041B
:10267000A44527D07024C4F20204A44522D08824A3
:102680001CE040F2B844C4F20204A4451AD045F25A
:102690000844C5F60204A4453ED045F21C4437E088
:1026A00040F22844C4F20204A4450BD040F2404456
:1026B000C4F20204A44505D040F25844C4F2020416
:1026C000A4453AD18468C06D00F01F003F2505FA8B
:1026D00000F0CEF80800DCF80000402C20F4802048
:1026E000CCF80000CCF8043023D1CCF80820CCF88A
:1026F0000C1070BD45F26C44C5F60204A4450BD025
:1027000045F28044C5F60204A44505D045F2944440
:10271000C5F60204A44510D1C46D012504F01F04C0
:10272000806805FA04F4CEF804404028CCF8043060
:10273000DBD0CCF80810CCF80C2070BD00000000F5
:1027400080B5242813D140F28C000121C2F2004050
:10275000017040F28D00C2F200400021017040F291
:10276000EC106421C2F20040FEF796F880BD40F202
:102770008C01C2F200410A78012A18BF80BD2328CB
:1027800018D10020087040F28D016422C2F200418D
:10279000087040F2B420C2F200400121017040F202
:1027A000502040F2EC11C2F20040C2F20041FEF7AC
:1027B00017F880BD40F28D02C2F200421378622BFE
:1027C00007D8591C117040F2EC11C2F20041C854F4
:1027D00080BD002008701070C1E7000000000000FC
:1027E000F0B595B040F2502044F24D12C2F20040D4
:1027F000C6F66C42016891425FD045F24D420168D5
:10280000C5F24502914200F0A48045F24D310068C6
:10281000C4F25041884240F0E78040F25026C2F2B4
:1028200000463046FDF778FFFB3040F29005C4B219
:10283000C2F200453CB140F29000711DC2F200406E
:102840002246FDF788FF0020285501AC28212046AC
:10285000FEF722F84DF624312846C0F60001FDF7B8
:1028600031FF0B9078B10BA84DF62435061FC0F64A
:10287000000500BF00202946FDF724FF0028B060B6
:1028800006F10406F6D140F2DC100027C2F2004047
:10289000061F0BA8051F00BFE01955F8041FFDF720
:1028A00017FF0AF0B9FCB7EEC00B0A37301D282F0E
:1028B00086ED010A0646EFD196E040F25025C2F2BD
:1028C00000452846FDF728FFFB30C4B23CB140F27A
:1028D0009000691DC2F200402246FDF73CFF40F225
:1028E00090050020C2F200452821285501AC204661
:1028F000FDF7D2FF4DF624312846C0F60001FDF762
:10290000E1FE0B9078B10BA84DF62435061FC0F6FA
:10291000000500BF00202946FDF7D4FE0028B06066
:1029200006F10406F6D140F2F4000027C2F200409E
:10293000051F0BA8061F00BFE01956F8041FFDF77E
:10294000C7FEFDF7B2FE0A3745F8040F282FF3D172
:102950004AE040F25025C2F200452846FDF7DCFE71
:10296000FB30C4B23CB140F29000691DC2F200409D
:102970002246FDF7F0FE40F290050020C2F200452D
:102980002821285501AC2046FDF786FF4DF624315D
:102990002846C0F60001FDF795FE0B9078B10BA814
:1029A0004DF62435061FC0F6000500BF002029465D
:1029B000FDF788FE0028B06006F10406F6D140F26B
:1029C00004100027C2F20040051F0BA8061F00BF1D
:1029D000E01956F8041FFDF77BFEFDF766FE0A3787
:1029E00045F8040F282FF3D115B0F0BD000000000A
:1029F000704700000000000072B600BFFEE7000054
:102A000044F60C00C5F60200016841F002010160C5
:102A100050F8081C8904FBD5704700000000000036
:102A20002DE9F041044601F0AFFE34B3054694F8B9
:102A30003500022824D1276840F20F46C4F202066E
:102A400040F26F483868B74220F0010038606FF0FC
:102A50000E00C4F2020817DC6F21C4F202018F429B
:102A600023DC3F21C4F202018F4239DC1021C4F281
:102A700002018F4258D0282151E00120BDE8F081A9
:102A800080206065012033E247451ADC40F23F4177
:102A9000C4F202018F422ADC40F21041C4F202016A
:102AA0008F4241D040F2284139E09F21C4F2020117
:102AB0008F4225DC7021C4F202018F4234D088217C
:102AC0002DE040F29F41C4F202018F421FDC40F230
:102AD0007041C4F202018F4226D040F288411EE0CC
:102AE0004021C4F202018F421ED0582117E040F26B
:102AF0004041C4F202018F4216D040F258410EE02C
:102B0000A021C4F202018F420ED0B82107E040F2AA
:102B1000B841C4F202018F4206D040F2A041C4F293
:102B200002018F42394607D13946386820F01E002D
:102B300041F8140B6FF080000A68474500EA020074
:102B4000086019DC9F20C4F20200874231DC572064
:102B5000C4F20200874256DC1020C4F20200874211
:102B600000F091802820C4F20200874200F08B80A0
:102B70004020C4F2020084E045F22F40C5F6020076
:102B800087422BDC40F2B740C4F20200874248DCA7
:102B900040F27040C4F20200874274D040F2884094
:102BA000C4F2020087426ED040F2A040C4F202009C
:102BB00067E040F22740C4F20200874240DCA020D8
:102BC000C4F2020087425ED0B820C4F202008742FD
:102BD00059D040F21040C4F2020052E045F26B407E
:102BE000C5F6020087423CDC45F23040C5F60200E3
:102BF000874248D045F24440C5F60200874242D0A1
:102C000045F258403BE05820C4F2020087423AD0D7
:102C10007020C4F20200874235D08820C4F202003E
:102C20002FE040F2B840C4F2020087422BD045F2B8
:102C30000840C5F60200874225D045F21C401EE040
:102C400040F22840C4F2020087421CD040F24040CB
:102C5000C4F20200874216D040F25840C4F202008B
:102C60000FE045F26C40C5F6020087420BD045F2FA
:102C70009440C5F60200874205D045F28040C5F673
:102C80000200874204D1206E016821F48071016046
:102C90003868C0070BD001F077FD401B0628F7D33A
:102CA00020206065032084F83500012020E12068A1
:102CB0000821B0424FF03F0210DC6F23C4F2020340
:102CC00098421CDC3F23C4F20203984232DC1023FA
:102CD000C4F20203984251D028234AE040451ADC4E
:102CE00040F23F43C4F2020398422ADC40F2104310
:102CF000C4F20203984241D040F2284339E09F23B6
:102D0000C4F20203984225DC7023C4F20203984205
:102D100034D088232DE040F29F43C4F2020398424E
:102D20001FDC40F27043C4F20203984226D040F206
:102D300088431EE04023C4F2020398421ED0582369
:102D400017E040F24043C4F20203984216D040F22A
:102D500058430EE0A023C4F2020398420ED0B823D9
:102D600007E040F2A043C4F20203984206D040F2CA
:102D7000B843C4F20203984240F0BF80D4E916374A
:102D800007F01F07404502FA07F25A5019DC9F214D
:102D9000C4F20201884231DC5721C4F202018842A8
:102DA00056DC1021C4F20201884200F091802821F3
:102DB000C4F20201884200F08B804021C4F202017B
:102DC00084E045F22F41C5F6020188422BDC40F237
:102DD000B741C4F20201884248DC40F27041C4F2BB
:102DE0000201884274D040F28841C4F20201884254
:102DF0006ED040F2A041C4F2020167E040F22741E8
:102E0000C4F20201884240DCA021C4F202018842DF
:102E10005ED0B821C4F20201884259D040F210417C
:102E2000C4F2020152E045F26B41C5F6020188424C
:102E30003CDC45F23041C5F60201884248D045F2FB
:102E40004441C5F60201884242D045F258413BE078
:102E50005821C4F2020188423AD07021C4F2020122
:102E6000884235D08821C4F202012FE040F2B841F7
:102E7000C4F2020188422BD045F20841C5F6020196
:102E8000884225D045F21C411EE040F22841C4F2A0
:102E9000020188421CD040F24041C4F20201884243
:102EA00016D040F25841C4F202010FE045F26C41E5
:102EB000C5F6020188420BD045F29441C5F60201E5
:102EC000884205D045F28041C5F6020188420BD107
:102ED000616EA26EE06E4A6030B1016821F48071CB
:102EE0000160D4E91C014160012084F83500002014
:102EF000002184F83410BDE8F081042101223DE76F
:102F0000F0B190F83510022918D180B540F20F4287
:102F10000168C4F20202914214DC6F23C4F202037E
:102F2000994224DC3F23C4F2020399423ADC102385
:102F3000C4F20203994258D0282352E0802141650F
:102F40000120704740F26F43C4F2020399421ADC39
:102F500040F23F43C4F2020399422ADC40F210439C
:102F6000C4F20203994240D040F2284339E09F2343
:102F7000C4F20203994225DC7023C4F20203994291
:102F800033D088232DE040F29F43C4F202039942DC
:102F90001FDC40F27043C4F20203994225D040F294
:102FA00088431EE04023C4F2020399421DD05823F7
:102FB00017E040F24043C4F20203994215D040F2B8
:102FC00058430EE0A023C4F2020399420DD0B82367
:102FD00007E040F2B843C4F20203994205D040F240
:102FE000A043C4F2020399426ED191424FF0040211
:102FF00080F8352010DC6F20C4F20200814220DC12
:103000003F20C4F20200814236DC1020C4F20200EC
:10301000814253D028204EE040F26F40C4F20200BB
:1030200081421ADC40F23F40C4F2020081422ADCB5
:1030300040F21040C4F2020081423FD040F22840EA
:1030400039E09F20C4F20200814225DC7020C4F2E6
:103050000200814232D088202DE040F29F40C4F22D
:10306000020081421FDC40F27040C4F20200814243
:1030700024D040F288401EE04020C4F20200814289
:103080001CD0582017E040F24040C4F202008142B8
:1030900014D040F258400EE0A020C4F20200814259
:1030A0000CD0B82007E040F2B840C4F202008142E0
:1030B00004D040F2A040C4F202008142086820F02F
:1030C00001000860002080BD0A6822F001020A6049
:1030D00045F25742C5F6020291420A6822F00E02FA
:1030E0000A600EDC45F22F42C5F60202914217DC5F
:1030F00045F20842C5F60202914226D045F21C4232
:103100001FE045F27F42C5F60202914211DC45F212
:103110005842C5F60202914217D045F26C4210E0C7
:1031200045F23042C5F6020291420ED045F24442C9
:1031300007E045F29442C5F60202914205D045F2FD
:103140008042C5F6020291421AD1D0E9181CD0E99A
:1031500016E30A6822F480720A6003F01F0101225C
:1031600002FA01F1CEF80410816ECCF80410C16EA1
:1031700031B10A6822F480720A60D0E91C124A60F8
:10318000012180F83510016D0022002980F83420DB
:1031900098D08847002080BD2DE9F04381B0002100
:1031A000009140F2080148F2B513C2F20041C1F6A5
:1031B0004E33856D40F26F490A680168C4F2020916
:1031C0002E68A2FB032849452B6815DC9F22C4F218
:1031D000020291422BDC5722C4F2020291424FDCE0
:1031E0001022C4F20202914278D02822C4F20202D4
:1031F000914273D040226CE045F22F42C5F60202A4
:10320000914227DC40F2B742C4F20202914243DC11
:1032100040F27042C4F2020291425FD040F2884212
:10322000C4F20202914259D040F2A04251E040F271
:103230002742C4F2020291423DDCA022C4F2020203
:1032400091424BD0B822C4F20202914246D040F2E1
:1032500010423EE045F26B42C5F60202914275DC37
:1032600045F23042C5F60202914200F0828045F2FA
:103270004442C5F6020291427BD045F2584273E0C7
:103280005822C4F20202914228D07022C4F20202F3
:10329000914223D088221CE040F2B842C4F20202DC
:1032A00091421BD045F20842C5F60202914260D01D
:1032B00045F21C4258E040F22842C4F20202914218
:1032C0000CD040F24042C4F20202914206D040F2D9
:1032D0005842C4F20202914240F02F84C26D08238A
:1032E00002F01F029340334200F0168140F20F4477
:1032F000C4F20204A1424FF0040413DC6F27C4F2AD
:103300000207B94200F391803F27C4F20207B94295
:1033100000F3D2801027C4F20207B94200F0F08017
:103320002827E8E0494500F38C8040F23F47C4F28B
:103330000207B94200F3C78040F21047C4F2020707
:10334000B94200F0DD8040F22847D4E045F26C42FB
:10335000C5F6020291420CD045F28042C5F6020247
:10336000914206D045F29442C5F60202914240F0E5
:10337000E4830E68C26D02F01F02042707FA02F40C
:103380001C4218BF16F004072CD1022707FA02F4DA
:103390001C4218BF16F0020762D1D3401B0740F150
:1033A000CC8316F0080300F0C88340F20F43C4F248
:1033B000020399426FF01C0300F31A836F27C4F2D3
:1033C0000207B94200F356833F27C4F20207B9420D
:1033D00000F3B6831027C4F20207B94200F0D58388
:1033E0002827CCE332046C605ED4B20600F1A383DC
:1033F00040F20F42C4F2020291426FF0080200F361
:10340000E5826F23C4F20203994200F304833F2351
:10341000C4F20203994200F349831023C4F2020369
:10342000994200F0858328237CE39F27C4F202079A
:10343000B94251DC7027C4F20207B94260D0882734
:1034400059E040F29F47C4F20207B9424BDC40F218
:103450007047C4F20207B94252D040F288474AE0AE
:1034600032046C6000F19A82B20600F1D18340F21E
:103470000F42C4F2020291426FF0140200F3D882AC
:103480006F23C4F20203994200F317833F23C4F26F
:103490000203994200F38E831023C4F2020399427F
:1034A00000F0AD832823A4E3F10340F14483816C51
:1034B000002940F07B8340E34027C4F20207B94271
:1034C0001ED0582717E040F24047C4F20207B94225
:1034D00016D040F258470EE0A027C4F20207B942C6
:1034E0000ED0B82707E040F2A047C4F20207B94265
:1034F00006D040F2B847C4F20207B94218BF082408
:103500000F68274208D00F6827F004070F60AB60F0
:10351000436D43F0010343650123934033426FD071
:1035200040F20F47C4F20207B94210DC6F27C4F221
:103530000207B9421CDC3F27C4F20207B94232DC61
:103540001027C4F20207B94251D028274AE0494562
:103550001ADC40F23F47C4F20207B9422ADC40F2CB
:103560001047C4F20207B94241D040F2284739E07F
:103570009F27C4F20207B94225DC7027C4F2020774
:10358000B94234D088272DE040F29F47C4F20207A9
:10359000B9421FDC40F27047C4F20207B94226D09C
:1035A00040F288471EE04027C4F20207B9421ED00D
:1035B000582717E040F24047C4F20207B94216D03C
:1035C00040F258470EE0A027C4F20207B9420ED0DD
:1035D000B82707E040F2B847C4F20207B94206D064
:1035E00040F2A047C4F20207B94240F0E3814F69BC
:1035F00007F0800424B1AB60436D43F002034365E0
:103600000423934033426FD040F20F47C4F20207C5
:10361000B94210DC6F27C4F20207B9421CDC3F2715
:10362000C4F20207B94232DC1027C4F20207B942E1
:1036300051D028274AE049451ADC40F23F47C4F2FE
:103640000207B9422ADC40F21047C4F20207B9422D
:1036500041D040F2284739E09F27C4F20207B9421F
:1036600025DC7027C4F20207B94234D088272DE048
:1036700040F29F47C4F20207B9421FDC40F2704794
:10368000C4F20207B94226D040F288471EE0402724
:10369000C4F20207B9421ED0582717E040F2404753
:1036A000C4F20207B94216D040F258470EE0A027F4
:1036B000C4F20207B9420ED0B82707E040F2B8477B
:1036C000C4F20207B94206D040F2A047C4F2020792
:1036D000B94240F075810F6807F0020424B1AB6075
:1036E000436D43F004034365102303FA02F23242B0
:1036F0007ED040F20F43C4F2020399424FF0080318
:1037000010DC6F27C4F20207B9421CDC3F27C4F269
:103710000207B94232DC1027C4F20207B94251D085
:1037200028274AE049451ADC40F23F47C4F2020725
:10373000B9422ADC40F21047C4F20207B94241D034
:1037400040F2284739E09F27C4F20207B94225DC3E
:103750007027C4F20207B94234D088272DE040F226
:103760009F47C4F20207B9421FDC40F27047C4F21F
:103770000207B94226D040F288471EE04027C4F233
:103780000207B9421ED0582717E040F24047C4F262
:103790000207B94216D040F258470EE0A027C4F203
:1037A0000207B9420ED0B82707E040F2A047C4F2A2
:1037B0000207B94206D040F2B847C4F20207B94244
:1037C00018BF04230F681F4212D0AA600A68520370
:1037D0000A6806D4D20506D40A6822F008020A60F4
:1037E00001E0110352D4016C11B104468847204610
:1037F000C16D01F01F02202101FA02F3334200F0F3
:10380000A48040F20F470168C4F202071026B942B3
:1038100010DC6F27C4F20207B9421CDC3F27C4F258
:103820000207B94236DC1027C4F20207B94255D06C
:1038300028274EE049451ADC40F23F47C4F2020710
:10384000B9422EDC40F21047C4F20207B94245D01B
:1038500040F228473DE09F27C4F20207B94229DC25
:103860007027C4F20207B94238D0882731E040F20D
:103870009F47C4F20207B94223DC40F27047C4F20A
:103880000207B9422AD040F2884722E0816C002921
:10389000ABD1ADE74027C4F20207B9421ED058278A
:1038A00017E040F24047C4F20207B94216D040F296
:1038B00058470EE0A027C4F20207B9420ED0B8273D
:1038C00007E040F2A047C4F20207B94206D040F236
:1038D000B847C4F20207B94218BF02260F68374240
:1038E00033D0AB6090F83530042B0B6816D123F041
:1038F00016030B604B6923F080034B61036C0BB91B
:10390000836C1BB10B6823F008030B603F219140CF
:10391000A960012180F83510016D41E15A030A6860
:103920000CD4D2050CD40A6822F010020A600121DE
:1039300080F83510002180F8341001E0110335D4EF
:10394000C16B11B1044688472046416D002900F043
:10395000F480416DC9071CD0042180F8351001683E
:103960004FEA98220B6823F001030B60009B0133A0
:103970000093934202D80B68DB07F7D10968C907A7
:103980004FF0030108BF012180F83510002180F8B5
:103990003410C16C002940F00981CEE0F10300F140
:1039A0003781416C002940F00181C6E0416C00295B
:1039B000C8D1CAE700240F68002C7FF41CAE1FE6B4
:1039C00000240F68002C7FF48AAE8DE6494542DC66
:1039D00040F23F43C4F2020399427CDC40F21043C0
:1039E000C4F20203994200F0A38040F2284399E018
:1039F00049454CDC40F23F47C4F20207B94200F3AC
:103A0000A68040F21047C4F20207B94200F0BD8020
:103A100040F22847B3E09F23C4F20203994263DCDB
:103A20007023C4F20203994200F08280882379E077
:103A3000494560DC40F23F43C4F20203994200F37F
:103A4000C08040F21043C4F20203994200F0D780D4
:103A500040F22843CDE040F29F43C4F20203994272
:103A600058DC40F27043C4F20203994260D040F245
:103A7000884357E09F27C4F20207B94270DC7027E1
:103A8000C4F20207B94200F08080882777E040F254
:103A90009F47C4F20207B94269DC40F27047C4F2A2
:103AA0000207B94271D040F2884768E04023C4F26F
:103AB000020399423CD0582334E09F23C4F202030E
:103AC000994200F387807023C4F20203994200F008
:103AD000968088238DE040F24043C4F2020399426D
:103AE00026D040F258431DE0A023C4F202039942BD
:103AF0001ED0B82316E040F29F43C4F2020399425D
:103B00006FDC40F27043C4F20203994277D040F276
:103B100088436EE040F2A043C4F20203994207D00A
:103B200040F2B843C4F20203994218BF6FF0040296
:103B30000B681A400A60016CC1BB01B0BDE8F0839C
:103B40004027C4F20207B9421FD0582717E040F2BD
:103B50004047C4F20207B94217D040F258470EE07E
:103B6000A027C4F20207B9420FD0B82707E040F2FD
:103B7000A047C4F20207B94207D040F2B847C4F2E6
:103B80000207B94218BF6FF00E030F683B400B608D
:103B9000012101FA02F26A60416580F83510C16CBA
:103BA00000294FF0000280F83420C6D001B0BDE8F3
:103BB000F04308474023C4F2020399421FD0582320
:103BC00017E040F24043C4F20203994217D040F29A
:103BD00058430EE0A023C4F2020399420FD0B82349
:103BE00007E040F2A043C4F20203994207D040F23A
:103BF000B843C4F20203994218BF6FF00A020B687F
:103C00001A400A60012180F83510002180F8341034
:103C1000C16B0029CAD190E72DE9F041044600F0BC
:103C2000B3FDECB140F26F4805462068C4F20208CB
:103C3000404518DC9F21C4F2020188422EDC572146
:103C4000C4F20201884254DC1021C4F2020188420D
:103C50007ED02821C4F20201884279D0402172E04E
:103C60000120BDE8F08145F22F41C5F602018842EE
:103C700027DC40F2B741C4F20201884245DC40F241
:103C80007041C4F20201884262D040F28841C4F21D
:103C9000020188425CD040F2A04154E040F227414A
:103CA000C4F20201884240DCA021C4F20201884231
:103CB0004ED0B821C4F20201884249D040F21041EE
:103CC00041E045F26B41C5F60201884200F3B8803D
:103CD00045F23041C5F60201884200F0C38045F24A
:103CE0004441C5F60201884200F0BC8045F25841CB
:103CF000B4E05821C4F20201884229D07021C4F2F4
:103D00000201884224D088211DE040F2B841C4F26B
:103D1000020188421CD045F20841C5F602018842E2
:103D200000F0A08045F21C4198E040F22841C4F226
:103D3000020188420CD040F24041C4F202018842A4
:103D400006D040F25841C4F20201884240F0CE80D1
:103D5000022184F83510002184F83410016821F024
:103D60000101016020680168C9070CD000F00CFD5A
:103D7000401B0628F6D320206065032084F8350018
:103D80000120BDE8F08148F23F0204F10807016814
:103D9000CFF61062114066698CCF1143D4F818C079
:103DA0001943E3693943276A0E43616A334304299F
:103DB00043EA070343EA0C0303D1D4E90B76374304
:103DC0003B436568A5F12906292E00F2A180012751
:103DD000DFE806F01515151515159E9E9E9E9E9EF4
:103DE0009E9E9E9E9E9E9E9E9E9E151515159E9E17
:103DF0009E9E15159E9E9E9E9E9E15151515002F26
:103E000018BF43F4801304290360426922F00702BB
:103E100041EA020140F09080D4E90A53002B41EAC4
:103E2000050100F08980BCF5005F61D0BCF1000F96
:103E30006AD1022D74D0012D60D0002D70D072E0B7
:103E400045F26C41C5F6020188420BD045F2804133
:103E5000C5F60201884205D045F29441C5F602013B
:103E6000884243D104F1080E022184F83510002164
:103E700084F834100168A3699EE80450A2F180051B
:103E8000E769B5FA85F566696D09402A4FEA853517
:103E900043EA07026FF3101142EA060208BF102539
:103EA00041EADC0142EA0E022943236A41EAD201D7
:103EB0004AF6F832CAF2FD724CF6CD470244CCF60F
:103EC000CC4741EA1311A2FB072301606FF0030006
:103ED00000EA9300E0652046FEF72AFAE16D012230
:103EE00001F01F0102FA01F1416030E0402043E798
:103EF000032D18D8DFE805F00A140A02A3F1C072F6
:103F0000B2FA82F252090FE0032D08D201220BE02F
:103F100025F00302743AB2FA82F257096FE702D130
:103F2000C3F3006200E0002232B14020606501204E
:103F300084F83500BDE8F08141612046FEF7F8F9CC
:103F4000E16D3F2201F01F0102FA01F1816020685A
:103F5000404519DC9F21C4F20201884231DC57211F
:103F6000C4F20201884256DC1021C4F202018842E8
:103F700000F092802821C4F20201884200F08C8077
:103F80004021C4F2020184E045F22F41C5F602014E
:103F900088422BDC40F2B741C4F20201884248DC7F
:103FA00040F27041C4F20201884275D040F288416B
:103FB000C4F2020188426FD040F2A041C4F2020173
:103FC00067E040F22741C4F20201884240DCA021B0
:103FD000C4F2020188425FD0B821C4F202018842D3
:103FE0005AD040F21041C4F2020152E045F26B4156
:103FF000C5F6020188423CDC45F23041C5F60201BB
:10400000884249D045F24441C5F60201884243D076
:1040100045F258413BE05821C4F2020188423BD0AE
:104020007021C4F20201884236D08821C4F2020114
:104030002FE040F2B841C4F2020188422CD045F290
:104040000841C5F60201884226D045F21C411EE017
:1040500040F22841C4F2020188421DD040F24041A2
:10406000C4F20201884217D040F25841C4F2020162
:104070000FE045F26C41C5F6020188420CD045F2D2
:104080009441C5F60201884206D045F28041C5F64A
:104090000201884240F0D08045F2574C45F6FC0EB4
:1040A000C5F6020CC5F6020E60450EDC45F22F4344
:1040B000C5F60203984217DC45F20843C5F6020331
:1040C000984226D045F21C431FE045F27F43C5F6D7
:1040D0000203984211DC45F25843C5F602039842A8
:1040E00017D045F26C4310E045F23043C5F60203A9
:1040F00098420ED045F2444307E045F29443C5F69A
:104100000203984205D045F28043C5F60203984267
:1041100050D100F0FC034CF6CD47083BCCF6CC4721
:10412000A3FB0737AEF1FC05AEF17C063B0905EBBE
:1041300083022266A26803F01F030127802A6666B5
:1041400007FA03F2A26601D1002262606368A56EDD
:10415000D4E91826DFB2591E07291760756015D8F3
:104160007E1E072E62D860450EF1440213DC45F234
:104170002F41C5F6020188423CDC45F20841C5F6F4
:10418000020188424BD045F21C4144E000206067A8
:10419000C4E91B0050E045F27F41C5F602018842A8
:1041A00031DC45F25841C5F60201884237D045F26C
:1041B0006C4130E000F0F8034AF6AB27103BCAF63A
:1041C000AA27A3FB073740F20F43C4F202030825D6
:1041D0003E09984203F1AA02334688BF05EB171344
:1041E00040F600059042C4F2020528BF334605F1AF
:1041F00080069CE745F23041C5F6020188420ED0A8
:1042000045F2444107E045F28041C5F6020188428B
:1042100005D045F29441C5F60201884213D10EEB58
:104220008300E06601202267B040606704F16C0201
:10423000002307CA03604A6000206065012184F8FA
:104240003510BDE8F08140F60000C4F2020000F134
:10425000FC0E00F5A072E2E730B110B590F83440E2
:10426000012C03D1022010BD01207047012480F8E9
:10427000344090F83540012C2BD1022480F8354091
:1042800000244465D0F800C0DCF8004024F00104AC
:10429000CCF800400446FEF7D7F840F20F4C2068F7
:1042A000C4F2020C40F26F416045C4F2020118DC16
:1042B0006F23C4F20203984224DC3F23C4F20203BA
:1042C00098423ADC1023C4F20203984259D02823C2
:1042D00052E04FF400614165002180F83410012064
:1042E00010BD88421ADC40F23F43C4F202039842F8
:1042F0002ADC40F21043C4F20203984241D040F25B
:10430000284339E09F23C4F20203984225DC70233E
:10431000C4F20203984234D088232DE040F29F4338
:10432000C4F2020398421FDC40F27043C4F202035D
:10433000984226D040F288431EE04023C4F2020394
:1043400098421ED0582317E040F24043C4F20203C3
:10435000984216D040F258430EE0A023C4F2020364
:1043600098420ED0B82307E040F2B843C4F20203EB
:10437000984206D040F2A043C4F20203984240F0B3
:10438000238103680B2262F344030360226C1AB199
:10439000082302681A430260884219DC9F22C4F293
:1043A0000202904231DC5722C4F20202904256DCF3
:1043B0001022C4F20202904200F091802822C4F23E
:1043C0000202904200F08B804022C4F2020284E09C
:1043D00045F22F42C5F6020290422BDC40F2B74272
:1043E000C4F20202904248DC40F27042C4F202027F
:1043F000904274D040F28842C4F2020290426ED0E1
:1044000040F2A042C4F2020267E040F22742C4F246
:104410000202904240DCA022C4F2020290425ED02E
:10442000B822C4F20202904259D040F21042C4F2C3
:10443000020252E045F26B42C5F6020290423CDCB9
:1044400045F23042C5F60202904248D045F244425D
:10445000C5F60202904242D045F258423BE0582253
:10446000C4F2020290423AD07022C4F20202904298
:1044700035D08822C4F202022FE040F2B842C4F2E2
:10448000020290422BD045F20842C5F60202904249
:1044900025D045F21C421EE040F22842C4F202023E
:1044A00090421CD040F24042C4F20202904216D028
:1044B00040F25842C4F202020FE045F26C42C5F6E7
:1044C000020290420BD045F29442C5F6020290429D
:1044D00005D045F28042C5F6020290426ED1236EAD
:1044E0001A68D20303D51A6842F480721A60E36E28
:1044F0001BB11A6842F480721A60604510DC6F21AB
:10450000C4F2020188421CDC3F21C4F2020188424D
:1045100032DC1021C4F2020188424FD028214AE047
:1045200088421ADC40F23F41C4F2020188422ADC90
:1045300040F21041C4F2020188423FD040F22841CB
:1045400039E09F21C4F20201884225DC7021C4F2C7
:104550000201884232D088212DE040F29F41C4F20E
:10456000020188421FDC40F27041C4F2020188421D
:1045700024D040F288411EE04021C4F2020188426A
:104580001CD0582117E040F24041C4F20201884299
:1045900014D040F258410EE0A021C4F2020188423A
:1045A0000CD0B82107E040F2B841C4F202018842C1
:1045B00004D040F2A041C4F202018842016841F0F7
:1045C00001010160002010BD0268052363F343026E
:1045D0000260226C002A3FF4DFAE0423D9E600001B
:1045E0002DE9F04F83B00F68002F00F0C88000F174
:1045F00026420A2302F1FF7642F20042C5F6020289
:104600004FEAB625904200F1200208BF092300922C
:10461000082D38BF4FEAB623002400264FF00008CB
:1046200001930AE008F101080F6837FA08F206F171
:10463000020604F1040400F0A280012202FA08FA42
:1046400017EA0A09EED0D1F804C003220CF0030BDC
:1046500002FA06FEABF10107012F0FD88568CA6880
:1046600025EA0E05B2402A438260CCF30015426869
:1046700022EA0A0205FA08F52A434260BBF1030F59
:1046800002D18A68012A06D0C2688D6822EA0E0229
:10469000B5402A43C260BBF1020F13D16FF0030291
:1046A000009D02EA580204F01C030F2755F802C0CF
:1046B0009F40D1F810A02CEA070C0AFA03F343EA52
:1046C0000C03AB5002684B6803F0030722EA0E02AA
:1046D000B74013F4403F42EA07020260A2D044F21E
:1046E000F44340F2084CC5F60203C5F6000C0F2552
:1046F0001A6842F002021A601A6802F0020202927C
:1047000028F00302029B04F00C0352F80C709D4049
:10471000AF43019D05FA03F33B4342F80C304FF0E1
:10472000B04CDCF800204B6842EA0907DD0258BFB4
:1047300022EA09079D02CCF8007040F2040CC5F68D
:10474000000CDCF8002042EA090758BF22EA0907FA
:104750009D03CCF80070DCF8802042EA090758BFBE
:1047600022EA0907DB03CCF88070DCF87C2042EAFF
:10477000090758BF22EA0907CCF87C7052E703B05A
:10478000BDE8F08F0000000044F61820C2F200409F
:10479000006870470000000040F2100044F6182145
:1047A000C2F20040C2F2004100780A68104408607A
:1047B000704700000000000080B5032000F0DCF826
:1047C00001F0D2F844F218414DF6BC23C5F60201BF
:1047D000C0F600030A68C2F303229A5C096801F07C
:1047E0000F0102F01F02595CD04040F20C02C2F2ED
:1047F000004201F01F0120FA01F1116040F20801AE
:10480000C2F2004108600F2000F00AF800281CBF27
:10481000012080BD00F054F8002080BD00000000A1
:104820000F2842D8B0B58AB004461920002221468C
:10483000002500F071F8192000F05AF840F2140039
:10484000C2F20040046044F2F040C5F60200016884
:1048500041F001010160006801A900F0010002902F
:10486000029802A800F0CCFF01F04EF84DF68361EB
:104870004000C4F21B310022A0FB010140F288502D
:10488000C2F200404FF0FF33C4F20102026003EBBA
:104890009141C0E9011540F2E731C0E9031501F08B
:1048A000E3FB20B101200AB0B0BD0120704740F207
:1048B0008850C2F2004001F00BFC0AB0B0BD00000D
:1048C00081B044F2F4400022C5F60200016841F0D4
:1048D0000201016000680F2100F0020000906FF0FB
:1048E0000100009B01B000F017B8000000000000BC
:1048F000002848BF704700F01F01012202FA01F1B1
:104900004EF20012C0F34A10CEF2000242F820101C
:10491000704700000000000070B54EF60C5C4FF0D0
:10492000FF36CEF2000C00F1604505F56445DCF879
:104930000030C3F3022E8EF00703042B28BF04239C
:10494000BEF1030406FA03F321EA030100F00F03AA
:1049500038BF0024043B0028634406FA04F048BF33
:1049600003F10C05A14022EA000008430001287071
:1049700070BD0000000000004EF60C514FF6FF0322
:10498000CEF200010A681A4060F30A2242F0806009
:1049900040F0FD7008607047B0B544F60C05C5F6F0
:1049A000020529684907296805D401F00701081A9A
:1049B00018BF0120B0BD21F0070108432860FFF7B0
:1049C000E3FE044655F8080C800407D4FFF7DCFE2C
:1049D000001BB0F57A7FF5D90120B0BD0020B0BD35
:1049E00080B500F039FF44F220414DF6BC22C5F6F7
:1049F0000201C0F600020968C1F30211515C01F026
:104A00001F01C84080BD000080B544F2384EC5F695
:104A1000020E5EF8103C5EF8101C5EF80C2CC1F320
:104A2000053CDEF80410BCF1000F18D0C9089FED5A
:104A30003A1AD20601EAE27103F003026FF35F3122
:104A400000EE101AB8EE400ADFE802F0021F0E1F57
:104A50005EF8381C89060AD49FED311A15E0002152
:104A60008160C0E9001180BD9FED2C1A0DE05EF859
:104A7000381C49F20002C0F2D032C1F3C10122FA5F
:104A800001F101EE101AB8EE411ADEF800109FEDA8
:104A9000253A6FF35F2102EE101ADEF80010C1F321
:104AA0004621B8EE422A013100EE032A00EE10CA78
:104AB000B7EE003AB8EE400A81EE000A32EE031A71
:104AC00020EE010A01EE101AB8EE411A80EE011A2A
:104AD000BCEEC11A80ED001ADEF80010C1F30641E9
:104AE000013101EE101AB8EE411A80EE011ABCEE47
:104AF000C11A80ED011ADEF80010C1F30661013120
:104B000001EE101AB8EE411A80EE010ABCEEC00A9E
:104B100010EE101A816080BD0024744A20BCBE4B88
:104B20000024744C0000003980B544F2404EC5F6B4
:104B3000020E5EF8183C5EF8181C5EF8142CC1F3E7
:104B4000055CDEF80410BCF1000F18D0C9089FED19
:104B50003A1AD20501EAE27103F003026FF35F3102
:104B600000EE101AB8EE400ADFE802F0021F0E1F36
:104B70005EF8401C89060AD49FED311A15E0002129
:104B80008160C0E9001180BD9FED2C1A0DE05EF838
:104B9000401C49F20002C0F2D032C1F3C10122FA36
:104BA00001F101EE101AB8EE411ADEF800109FED87
:104BB000253A6FF35F2102EE101ADEF80010C1F300
:104BC0004621B8EE422A013100EE032A00EE10CA57
:104BD000B7EE003AB8EE400A81EE000A32EE031A50
:104BE00020EE010A01EE101AB8EE411A80EE011A09
:104BF000BCEEC11A80ED001ADEF80010C1F30641C8
:104C0000013101EE101AB8EE411A80EE011ABCEE25
:104C1000C11A80ED011ADEF80010C1F306610131FE
:104C200001EE101AB8EE411A80EE010ABCEEC00A7D
:104C300010EE101A816080BD0024744A20BCBE4B67
:104C40000024744C000000392DE9F04381B0044683
:104C5000C07844F22C490007C5F6020901D40025AA
:104C600020E0606E4FEA3050032835D80025DFE899
:104C700000F0020A1C22D9F8000040F40030C9F804
:104C80000000D5B906E004F10800022102F06CFB37
:104C9000054695B9D9F82400616E20F44010084308
:104CA000C9F824004FF0000808E004F128000221B0
:104CB00002F0EAFB0546002DECD0A8466078C0075C
:104CC0001ED0A06D04283ED8DFE800F02B340A0384
:104CD00003006DB1A84613E00125002DEDD1D9E701
:104CE00004F12800002102F0CFFB0546002DF1D190
:104CF000D9F82400A16D20F007000843C9F824006A
:104D00006078400747D5D4F8A4004FEA70500528D2
:104D10002CD8DFE800F01C2F2503030395B3A84629
:104D200039E0D9F8000040F40030C9F80000002D47
:104D3000D0D1DDE704F10800002102F015FB0546A3
:104D4000002DC7D1D4E70125002DC3D1D0E7D9F874
:104D5000000040F40030C9F80000002DDFD111E060
:104D600004F12800002102F08FFB08E00125002D4E
:104D7000D5D107E004F10800002102F0F5FA05465C
:104D8000002DCCD1D9F82C00D4F8A41020F4600068
:104D90000843C9F82C006078000731D5D4F8A80082
:104DA0004FEA3060052816D8DFE800F006190F0337
:104DB0000303E5B1A84623E0D9F8000040F4003031
:104DC000C9F80000002DF5D111E004F12800002100
:104DD00002F05AFB08E00125002DEBD107E004F1B9
:104DE0000800002102F0C0FA0546002DE2D1D9F8F2
:104DF0002C00D4F8A81020F0E0600843C9F82C007B
:104E0000E07880071BD5E06C4FEA301003282FD8DC
:104E1000DFE800F0020525024DB1A8460FE0D9F801
:104E2000000040F40030C9F80000002DF5D1D9F899
:104E30002000E16C20F030000843C9F820006078C1
:104E4000C00629D5E06D4FEA3030042849D8DFE8A4
:104E500000F0363F13030300B5B1A8461CE004F18F
:104E60000800022102F080FA0546002DD5D1DEE7C8
:104E70000125002DD1D1DAE704F12800002102F04C
:104E800003FB0546002DE8D1D9F82400E16D20F49C
:104E9000E0400843C9F824006078800639D5206EC8
:104EA0004FEA3040052829D8DFE800F025031F2508
:104EB000252504F10800012102F056FA1AE0D9F87C
:104EC000000040F40030C9F80000002DC5D1DBE738
:104ED00004F10800002102F047FA0546002DBCD17C
:104EE000D2E70125002DB8D1CEE704F12800012139
:104EF00002F0CAFA054625B1A8460AE00125002DB0
:104F0000FAD1D9F82400216E20F4E0200843C9F832
:104F100024006078400625D5D4F8AC004FEA307004
:104F2000052813D8DFE800F00F03090F0F0F04F175
:104F30000800012102F018FA04E004F12800012120
:104F400002F0A2FA054625B1A8460BE00125002D86
:104F5000FAD1D9F82C00D4F8AC1020F0E040084386
:104F6000C9F82C006078000620D5E06ED8B1B0F109
:104F7000005F12D0B0F1805F26D1D9F8000040F474
:104F80000030C9F8000085B9D9F82400E16E20F09E
:104F900040500843C9F8240008E004F1080001214A
:104FA00002F0E2F90546002DEED0A846E078C007F1
:104FB0001ED0A06C032800F28080DFE800F0020918
:104FC00074026DB1A84613E00125002DEDD1DBE799
:104FD000D9F8000040F40030C9F80000002DF1D1EC
:104FE000D9F82000A16C20F003000843C9F8200084
:104FF000A078400644D5D9F8D40340F48070C9F8AD
:10500000D403FFF7C1FB0646D9F8D403C00505D485
:10501000FFF7BAFB801B6528F6D303257DBBD9F8C3
:105020004410D4F8B000414011F4407F11D0D9F8B9
:105030004410D9F8442042F48032C9F84420D9F809
:10504000442021F4407122F48032C9F84420C9F888
:105050004410B0F5807F0FD1FFF796FB064641F272
:10506000893700BFD9F84400800705D4FFF78CFBCF
:10507000801BB842F6D30325002D00F07A82A846A3
:105080002078C00732D0A06F4FEAF000052822D860
:10509000DFE800F01E03181E1E1E04F108000121A7
:1050A00002F062F913E004F10800022102F05CF959
:1050B0000546002D7FF486AF92E70125002D7FF491
:1050C00081AF8DE704F12800012102F0DDF90546EA
:1050D00025B1A8460AE00125002DFAD1D9F828000B
:1050E000A16F20F038000843C9F828002078800715
:1050F00021D5606F052813D8DFE800F00F03090FF2
:105100000F0F04F10800012102F02EF904E004F170
:105110002800012102F0B8F9054625B1A8460AE0A9
:105120000125002DFAD1D9F82800616F20F0070081
:105130000843C9F828002078400723D5D4F8900008
:10514000052813D8DFE800F00F03090F0F0F04F153
:105150000800012102F008F904E004F1280001210F
:1051600002F092F9054625B1A8460BE00125002D75
:10517000FAD1D9F82C00D4F8901020F00700084399
:10518000C9F82C002078800625D5D4F88C004FEA89
:105190003070052813D8DFE800F00F03090F0F0F58
:1051A00004F10800002102F0DFF804E004F1280017
:1051B000022102F069F9054625B1A8460BE0012558
:1051C000002DFAD1D9F82800D4F88C1020F0E04056
:1051D0000843C9F828002078400625D5D4F898005F
:1051E0004FEAB020052813D8DFE800F00F03090FBD
:1051F0000F0F04F10800002102F0B6F804E004F1FA
:105200002800022102F040F9054625B1A8460BE02E
:105210000125002DFAD1D9F82C00D4F8981020F4EB
:10522000E0500843C9F82C002078000625D5D4F8B2
:105230009C004FEA7030052813D8DFE800F00F0318
:10524000090F0F0F04F10800002102F08DF804E0AF
:1052500004F12800022102F017F9054625B1A846FD
:105260000BE00125002DFAD1D9F82C00D4F89C10C0
:1052700020F460400843C9F82C002078000716D5B8
:10528000D4F88000B0F5805F08D104F12800022135
:1052900002F0FAF8002818BF4FF00108D9F82800EA
:1052A000D4F8801020F440500843C9F82800207832
:1052B000C00616D5D4F89400B0F5807F08D104F16B
:1052C0002800022102F0E0F8002818BF4FF0010882
:1052D000D9F82C00D4F8941020F440700843C9F891
:1052E0002C00A078000724D5D4F8A000B0F5003F2A
:1052F0001CD0B0F5803F13D0002840F0E58004F1C9
:105300000800002102F030F805468DB9D9F82C00CC
:10531000D4F8A01020F440300843C9F82C0008E06D
:1053200004F12800022102F0AFF80546002DEDD06F
:10533000A846A078400725D5D4F88400B0F5401FD2
:105340001DD0B0F5001F14D0B0F5801F40F0C18013
:10535000D9F8000040F40030C9F800008DB9D9F840
:105360002800D4F8841020F440100843C9F828001D
:1053700008E004F12800012102F086F80546002D1E
:10538000EDD0A846A078C0071FD0206DB0F5803FB3
:105390000BD0002840F09380D9F8000040F4003092
:1053A000C9F800004DB1A8460FE004F10800022141
:1053B00001F0DAFF0546002DF5D1D9F82000216D66
:1053C00020F480300843C9F82000E078800608D532
:1053D00004F12800022102F057F8002818BF4FF00E
:1053E0000108D4E900108A0340F18280E26F6FF077
:1053F000010303EB3223022B0AD34FEA32233BB1E2
:10540000012B6BD1D9F8003043F40033C9F80030D8
:10541000002D66D0CA026ED48A0277D44A0000F109
:105420008080CA0F40F08D80090200F19580C0078E
:1054300007D004F10800002101F096FF002818BFF2
:1054400005462079800707D504F10800012101F005
:105450008BFF002818BF05462079400707D504F1C7
:105460000800022101F080FF002818BF05462079BE
:10547000000707D504F12800002102F005F80028F4
:1054800018BF05462079C00607D504F12800012180
:1054900001F0FAFF002818BF05462079800607D5DD
:1054A00004F12800022101F0EFFF002818BF0125B8
:1054B000002D18BF0125284601B0BDE8F083012565
:1054C000002D7FF470AF78E70125002D7FF430AF19
:1054D0001CE70125002D7FF454AF40E70125002D86
:1054E00098D1D9F8283023F440731A43C9F82820FA
:1054F0004546CA0290D5D9F82420236F22F00042F5
:105500001A43C9F824208A027FF588AFD9F82420ED
:10551000A36E22F080721A43C9F824204A007FF556
:1055200080AF59F81C2C22F4004249F81C2CD4F806
:10553000B42059F81C3C1A4349F81C2CCA0F3FF4FC
:1055400073AFD9F82020636D22F040521A43C9F896
:10555000202009027FF56BAFD9F82810D4F88820F5
:1055600021F440011143C9F82810C0077FF461AF4E
:1055700067E74FF6CF73D4F8B00059F81C2CC0F28F
:10558000FF0300F4407122F47C5203EA1013B1F5DA
:10559000407F08BF1A436FF31F3049F81C2CD9F81D
:1055A00044100843C9F844006AE500000000000008
:1055B0002DE9F04381B0002800F0F88042F20008A5
:1055C0000446C5F200288946D8F8000000F00F0014
:1055D00081420ED9D8F8000020F00F0040EA0900FF
:1055E000C8F80000D8F8000000F00F00484540F06F
:1055F000DD80206844F218474107C5F602070AD546
:1056000021693A6802F07002914204D93A6822F0A6
:1056100070021143396001070AD561697A6802F0A6
:105620007002914204D97A6822F0700211437960C5
:10563000C1060AD5A1697A6802F4E062914204D9F0
:105640007A6822F4E0621143796081060AD5E16943
:10565000BA6802F07002914204D9BA6822F070026E
:105660001143B96081070AD5E1683A6802F00F0278
:10567000914204D93A6822F00F0211433960C00701
:1056800040F08080206881070AD5E1683A6802F01E
:105690000F02914204D23A6822F00F02114339609E
:1056A000D8F8001001F00F0189450DD2D8F800108C
:1056B00021F00F0141EA0901C8F80010D8F80010E4
:1056C00001F00F01494571D141070AD521693A68B6
:1056D00002F07002914204D23A6822F07002114343
:1056E000396001070AD561697A6802F07002914257
:1056F00004D27A6822F0700211437960C1060AD59B
:10570000A1697A6802F4E062914204D27A6822F4D4
:10571000E0621143796080060AD5E069B96801F05A
:105720007001884204D2B96821F070010843B86062
:1057300000F01AF939684DF6BC22C0F60002C1F338
:105740000321515C3B6803F00F0301F01F01D25CA1
:1057500020FA01F102F01F0040F20C02C2F20042F6
:1057600021FA00F0106040F2140040F20802C2F288
:105770000040C2F200420068116001B0BDE8F04391
:10578000FFF74EB8386820F47061D4E90102114384
:105790003960012857F8181C0CD0032804D00228BF
:1057A00028D1890302D507E0890105D4012001B081
:1057B000BDE8F083C905F9D557F8081C21F00701A9
:1057C000084347F8080CFEF7DFFF064641F288352C
:1057D00057F8080C616800F03800B0EBC10F3FF4D7
:1057E00051AFFEF7D1FF801BA842F1D9032001B0D1
:1057F000BDE8F0834907D9D5DEE7000000000000CE
:105800003F22026044F21842C5F6020252F8083CF8
:1058100003F007034360136803F470638360136845
:1058200003F00F03C360136803F070030361536850
:1058300003F070034361536803F4E063836192688B
:1058400002F07002C26142F20000C5F2002000685E
:1058500000F00F000860704780B500F085F844F252
:1058600018414DF6BC23C5F60201C0F600030A68D4
:10587000C2F303229A5C096801F00F0102F01F02D3
:10588000595C20FA02F201F01F0040F20C01C2F252
:10589000004122FA00F0086040F20801C2F2004123
:1058A0000A6080BD0000000080B500F05DF844F2A1
:1058B000184C4DF6BC23C5F6020CC0F60003DCF80C
:1058C0000020C2F303229A5CDCF8001001F00F0103
:1058D00002F01F02595CD04040F20C02C2F20042BA
:1058E00001F01F0120FA01F1116040F20802C2F23A
:1058F00000421060DCF80400C0F30210185C00F0F5
:105900001F0021FA00F080BD80B500F02DF844F2B0
:10591000184C4DF6BC23C5F6020CC0F60003DCF8AB
:105920000020C2F303229A5CDCF8001001F00F01A2
:1059300002F01F02595CD04040F20C02C2F2004259
:1059400001F01F0120FA01F1116040F20802C2F2D9
:1059500000421060DCF80400C0F30220185C00F084
:105960001F0021FA00F080BD44F20041C5F602019B
:105970000869C0F3C200032814D002280DD088BBE8
:105980000868800649F20000C0F2D03058BF704766
:105990000968C1F3C101C840704747F64000C0F232
:1059A0007D1070478B6A886AD1F82CC04A6BC0F3AF
:1059B0000510E0B1C2F3CC0203F0030300EE102A9D
:1059C0009FED291AB8EE400A20EE010A9FED271A32
:1059D000DFE803F0021F0F1F0A6892060CD49FED48
:1059E000251A16E040F60010C0F23D007047002076
:1059F00070479FED1F1A0CE00A6849F20003C0F2DD
:105A0000D033C2F3C10223FA02F201EE102AB8EE3B
:105A1000411A0A6B9FED183A6FF35F2202EE102ACB
:105A20005FEACC7203FE000A03EE100A086BB8EEC0
:105A3000422AC0F34620B8EE433A013030EE020A63
:105A4000B7EE002A81EE031A30EE020A21EE000AB8
:105A500001EE100AB8EE411A80EE010ABCEEC00A4F
:105A600010EE100A704700BF000000390024744A8D
:105A700020BCBE4B0024744C00000000000000005D
:105A80002DE9F04381B0002800F09781804600782E
:105A900044F20049C007C5F6020954D0D9F81000F5
:105AA00000F03801D9F82800102905D018290CD1A8
:105AB00000F00300022808D1D9F8000080033ED589
:105AC000D8F80400D8BB01272CE0D8F80450D9F846
:105AD00000002DB1B5F5A02F0BD0B5F5803F0ED04D
