:020000040800F2
:10000000785E00246D04000847610008B55C0008B4
:1000100045610008F90E0008D973000800000000CF
:10002000000000000000000000000000AD03000818
:100030001D14000800000000090400085B640008AB
:100040008B0400088B0400088B0400088B04000854
:100050008B0400088B0400088B0400088B04000844
:100060008B0400088B0400088B040008FD0E0008B8
:10007000090F0008150F0008210F00082D0F0008B8
:10008000390F0008450F00088B0400088B04000896
:100090008B0400088B0400088B0400088B04000804
:1000A0008B040008E56500088B0400088B04000839
:1000B0008B0400088B0400088B0400088B040008E4
:1000C0008B0400088B0400088B0400088B040008D4
:1000D0008B040008E97200088B0400088B040008F8
:1000E0008B0400088B040008000000008B0400084B
:1000F0008B0400088B0400088B040008510F0008D3
:100100008B0400088B0400088B0400088B04000893
:100110008B040008596700088B0400088B04000852
:100120005D0F0008690F0008750F0008810F0008B7
:100130008B0400088B0400088B0400088B04000863
:1001400000000000000000000000000000000000AF
:100150008B0400088B0400088B0400088B04000843
:100160008B0400088B0400088B0400088B04000833
:100170008B0400088B0400088B04000800000000BA
:100180008B0400088B04000865670008716700088D
:100190008B0400088B0400088B0400088B04000803
:1001A0008B0400088B0400088B040008000000008A
:1001B0008B0400088B0400088B0400088B040008E3
:1001C0008B0400088B040008000000000000000001
:1001D00000000000000000008B0400080000000088
:1001E000000000000000000000000000000000000F
:1001F00000000000000000008B0400088B040008D1
:100200008B0400088B040008000000008B04000829
:100210008B0400088B0400088B0400088B04000882
:100220008B040008000000008B04000800000000A0
:100230008B0400088B040008000000008B040008F9
:100240008B0400088B0400088B0400088B04000852
:100250008B0400088B0400088B0400088B04000842
:100260008B0400088B0400088B0400088B04000832
:100270008B0400088B0400088B04000800000000B9
:100280008B0400088B0400088B0400088B04000812
:10029000000000008B0400088B0400080000000030
:1002A000000000008B0400088B0400087D67000834
:1002B000DD7200088B0400088B0400088B04000822
:1002C0008B0400088B0400088B04000800F002F87F
:1002D00000F05CF80AA090E8000C82448344AAF184
:1002E0000107DA4501D100F051F8AFF2090EBAE882
:1002F0000F0013F0010F18BFFB1A43F0010318475A
:1003000008AD000028AD00000A444FF0000C10F8C2
:10031000013B13F0070408BF10F8014B1D1108BF83
:1003200010F8015B641E05D010F8016B641E01F823
:10033000016BF9D113F0080F1EBF10F8014BAD1C73
:100340000C1B09D16D1E58BF01F801CBFAD505E091
:1003500014F8016B01F8016B6D1EF9D59142D6D3EB
:10036000704700000023002400250026103A28BF13
:1003700078C1FBD8520728BF30C148BF0B60704717
:100380001FB50AF073FD1FBD10B510BD00F0E8F9F0
:100390001146FFF7F5FF07F079FC00F006FA03B409
:1003A000FFF7F2FF03BC00F009FA00002C4B1968BC
:1003B0000868B0E8F04F80F30988BFF36F8F4FF003
:1003C000000080F3118870470000000008480068B2
:1003D000006880F308884FF0000080F3148862B64C
:1003E00061B6BFF34F8FBFF36F8F00DF00BF00BF59
:1003F00008ED00E0DFF80C00016841F470010160D5
:10040000704700BF88ED00E0EFF30980BFF36F8F06
:10041000134B1A681EF0100F08BF20ED108A20E958
:10042000F04F106009B44FF0500080F31188BFF313
:100430004F8FBFF36F8F09F023FF4FF0000080F361
:10044000118809BC19680868B0E8F04F1EF0100F59
:1004500008BFB0EC108A80F30988BFF36F8F704734
:1004600020000024EFF30580704700000A48804711
:100470000A4880470A480047FEE7FEE7FEE7FEE736
:10048000FEE7FEE7FEE7FEE7FEE7FEE70548064972
:10049000064A074B704700000D1800080D6500085C
:1004A000CD02000878580024785E0024785A002491
:1004B000785A002453EA020C00F069802DE9F04BD1
:1004C0004FF00006002B1FBFB3FA83F503FA05F4C3
:1004D00024FA05F65E4012BF1643B2FA82F502FA1C
:1004E00005F4C5F120051EBF22FA05FC44EA0C0400
:1004F000203556EA044C4FEA144418BF641C4FF0F0
:1005000000084FF00009904271EB030C39D3002929
:1005100019BFB1FA81F701FA07F6B0FA80F700FACD
:1005200007F6C7F120071EBF20FA07FC46EA0C06B3
:100530002037B6FBF4FCA7EB0507103F07F01F0BB5
:10054000CBF120060CFA0BFB2CFA06F644BFB3469F
:100550000026202FA4BF5E464FF0000B5BEA060C7E
:1005600008BF4FF0010B19EB0B09ABFB027C48EB0A
:100570000608C01B06FB02CC0BFB03CC71EB0C0185
:10058000C1E70B46024641464846BDE8F08B13B52D
:100590004FF000004FF00001AFF30080BDE81C40B9
:1005A0007047032A40F2308010F0030C00F01580F1
:1005B00011F8013BBCF1020F624498BF11F801CB66
:1005C00000F8013B38BF11F8013BA2F1040298BFCB
:1005D00000F801CB38BF00F8013B11F0030300F035
:1005E0002580083AC0F0088051F8043B083A51F8D9
:1005F00004CBA0E80810F5E7121D5CBF51F8043BDE
:1006000040F8043BAFF30080D20724BF11F8013B50
:1006100011F801CB48BF11F8012B24BF00F8013BB2
:1006200000F801CB48BF00F8012B704710B5203A05
:10063000C0F00B80B1E81850203AA0E81850B1E89B
:100640001850A0E81850BFF4F5AF5FEA027C24BF51
:10065000B1E81850A0E8185044BF18C918C0BDE848
:1006600010405FEA827C24BF51F8043B40F8043B11
:1006700008BF7047D20728BF31F8023B48BF11F8C6
:10068000012B28BF20F8023B48BF00F8012B704720
:1006900002F0FF0343EA032242EA024200F002B8FA
:1006A0004FF000020429C0F0128010F0030C00F09B
:1006B0001B80CCF1040CBCF1020F18BF00F8012B19
:1006C000A8BF20F8022BA1EB0C0100F00DB85FEAE7
:1006D000C17C24BF00F8012B00F8012B48BF00F8B3
:1006E000012B70474FF0000200B513469446964622
:1006F000203922BFA0E80C50A0E80C50B1F1200135
:10070000BFF4F7AF090728BFA0E80C5048BF0CC0E2
:100710005DF804EB890028BF40F8042B08BF704740
:1007200048BF20F8022B11F0804F18BF00F8012BB2
:10073000704770477047704710B500F009F80068BF
:1007400010BD10B5044600F003F8046010BD0000B1
:10075000004870471458002400487047145800247B
:100760007546FFF7F9FFAE4605006946534620F08F
:100770000700854618B020B5FFF788FEBDE8204089
:100780004FF000064FF000074FF000084FF0000B4D
:1007900021F00701AC46ACE8C009ACE8C009ACE800
:1007A000C009ACE8C0098D46704710B50446AFF3E8
:1007B00000802046BDE81040FFF7F1BD0149182038
:1007C000ABBEFEE7260002007047000008B5B74840
:1007D0002022B7490068406804F0C6F9B3482022D7
:1007E000B3496031406C406804F0BEF9AF48202244
:1007F000AF49C031D0F88800406804F0B5F9AB4883
:10080000AC49AC4AAB4B183100683032A94C483384
:10081000A84DA84E603440687835A64F9036DFF872
:1008200094E2DFF89482A837D0F88000DFF888924D
:1008300008F11808DFF880A2DFF87CB209F130096E
:1008400000680AF1480ADFF870C20BF1600B7045CE
:1008500029D0884227D0904225D0984223D0A04268
:1008600021D0A8421FD0B0421DD0B8421BD0604555
:1008700019D0404517D0484515D0504513D058459C
:1008800011D0DFF834E20EF1780E70450BD0DFF8AE
:1008900028E20EF1900E704505D0DFF81CE20EF153
:1008A000A80E704506D1D0F800E02EF0080EC0F872
:1008B00000E005E0D0F800E02EF0040EC0F800E003
:1008C0007A48DFF8F0E1406C4068D0F880000068BA
:1008D000704529D0884227D0904225D0984223D015
:1008E000A04221D0A8421FD0B0421DD0B8421BD098
:1008F000604519D0404517D0484515D0504513D014
:10090000584511D0DFF8B0E10EF1780E70450BD0EC
:10091000DFF8A4E10EF1900E704505D0DFF898E104
:100920000EF1A80E704506D1D0F800E02EF0080EAA
:10093000C0F800E005E0D0F800E02EF0040EC0F8AA
:1009400000E05A48DFF86CE1D0F888004068D0F841
:1009500080000068704523D0884221D090421FD08B
:1009600098421DD0A0421BD0A84219D0B04217D047
:10097000B84215D0604513D0404511D048450FD03E
:1009800050450DD058450BD04B497831884207D09F
:1009900049499031884203D04749A831884204D15F
:1009A000016821F00801016003E0016821F0040101
:1009B00001603E4D0121414A286800F085FD404A12
:1009C0000221686C00F080FD3E4A0321D5F88800C2
:1009D00000F07AFD40F2DC5009F040FB286801216C
:1009E00000F05DFE686C012100F059FED5F888002A
:1009F000012100F054FE4FF47A7009F02FFB2868B3
:100A000000F03EFE686C00F03BFED5F8880000F078
:100A100037FE2D48F0EE040A90ED000A60EE200A41
:100A20009FED2A0A60EE800AC5ED080AD0ED010AA2
:100A300060EE800AC5ED190AD0ED020A20EE800AA8
:100A400085ED2A0A0AF040F800900327A5F596766E
:100A50007078401CC0B2B0FBF7F107FB110070705A
:100A600010B102280FD01CE04FF00B0800244146C3
:100A700004EB041055F8200000F052FE641CE4B2B0
:100A8000032CF4D30DE04FF00C080024414604EB96
:100A9000041055F8200000F043FE641CE4B2032C5F
:100AA000F4D30A21684609F0ADFED1E7D80100244D
:100AB000E003002410000240100402402806002435
:100AC00000050024BC060024F45700244BFA8E3C99
:100AD0002DED068BA2B005F05BFC09F0F5FF21902F
:100AE000DFF8F0B39FEDFC8AFC4F4FF000094FF0A8
:100AF000010AA7F59678F74DD7ED040A343DA5F124
:100B0000180495ED000A30EE200A84ED000A95EDF8
:100B1000010AD7ED150A30EE200A84ED010A95EDA1
:100B2000020AD7ED260A30EE200A84ED020A214699
:100B300004F10C02A1F1340007F090FEE84806F041
:100B4000D9FB00287DD094ED009A94ED010AD4EDF4
:100B5000020A30EE20AAB0EE490A06F047FEF0EE97
:100B6000408AB0EE490A06F0E9FEB0EE409AB0EED7
:100B70004A0A06F03BFEF0EE409AB0EE4A0A06F052
:100B8000DDFEF0EE400A29EEA81A8DED091A69EE95
:100B9000891ACDED0A1ACDED0B0AB1EE492A8DED79
:100BA000062AB0EE680A8DED070A8DED088A60EE20
:100BB000202A48EE612ACDED032A28EE013A02EE02
:100BC000603A8DED043A62EE213A40EE413ACDEDC5
:100BD000053AC34A92F9000092F9011004EE100A96
:100BE00092F90220B8EEC44A64EE222A04EE101AEA
:100BF000B8EEC44A44EE022A02EE102AB8EEC22A27
:100C000042EE012A01EE100AB8EEC11A21EE032AC3
:100C100001EE101AB8EEC11A01EE002A00EE102AF9
:100C2000B8EEC00A00EE212A00EE100AB8EEC00AA3
:100C300020EE233A00EE101AB8EEC00A00EE083A91
:100C400000E060E000EE102AB8EEC00A00EE203AA4
:100C5000A4F13406D6E91112306C8DE807009DED41
:100C6000001ADFEDA01A02EEA11A8DED001ADDEDDB
:100C7000010A42EE210ACDED010A9DED020A03EEC2
:100C8000210A8DED020A04F10C00D0ED001A71EE7C
:100C9000619A90ED011A70EEC18AD0ED020A30EE31
:100CA000609A29EEA90A08EEA80A09EE090A06F0D8
:100CB0000FFFF0EE400A10EE900A8B49884222DDC9
:100CC000D6E91112306C743607C6C8ED040A89EEF5
:100CD000A00A8BED000A88EEA00A8BED010A89EECE
:100CE000200A8BED020AF6EE001A9FED801AB0EE94
:100CF000480A04F1240008F095FA09F0E5FEC8F866
:100D0000140088F800A0CDF83090CDF83490CDF8DC
:100D1000389009F0D9FE98F80010E9B3D8F814100B
:100D2000401A00EE100AB8EE400ADFED710A60EEDC
:100D3000208A684809AB0AAA2838B0EE680A0BA9CD
:100D400008F098F96348283890ED040AB4EEE80AF0
:100D5000F1EE10FA09D898ED040A8DED0B0A8DED2D
:100D60000A8A8DED098A88F800905A48DBED000A5E
:100D70000C38DDED0B1A90ED000A00EEA10A8DEDA6
:100D80001E0A90ED011A9BED010A00EE211A8DED6D
:100D90001F1A90ED022A00E022E09BED021A01EEFC
:100DA000212A8DED202ADDED0A1A20EEA12A8DEDF3
:100DB0001B2A20EE212A8DED1C2A61EE211ACDED91
:100DC0001D1ADDED091A60EEA10ACDED180A20EE1C
:100DD000210A8DED190A21EE210A8DED1A0A13E080
:100DE0003C488038D0E91012806C2090CDE91E126A
:100DF0008DED1B8A8DED1C8A8DED1D8A8DED188A77
:100E00008DED198A8DED1A8A15AA0FA812A9CDE9C0
:100E10000142CDE903100CA800902E4818AB1BAA84
:100E200080381EA906F0B4FFF0BB9DED150AD5ED84
:100E3000000A30EE600AD7ED0E0A20EE200A87ED98
:100E4000080A9DED160AD5ED010A30EE600AD7EDCD
:100E50001F0A20EE200A87ED190A9DED170AD5ED2D
:100E6000020A30EE600AD7ED300A20EE200A87ED44
:100E70002A0A0024DFED1F8A04EB041507EB850620
:100E800096ED080AB0EEC00A20EE280A00F0C8FA73
:100E9000CDE901A9009096ED080AB5EEC00AF1EE81
:100EA00010FA02D8012101E00FE0002157F82500D7
:100EB000FA23142200F007FC641CE4B2032CDBD3F9
:100EC000D8F80C00401CC8F80C000A2121A809F031
:100ED00099FC10E6E857002400000000D801002427
:100EE000C8000024CDCC4C3DBD378635CDCC4C3E22
:100EF0006F12833ABE2E6542FEE70000014800F003
:100F000073BF0000380C0024014800F06DBF0000E2
:100F1000B00C0024014800F067BF0000280D002439
:100F2000014800F061BF0000A00D0024014800F05E
:100F30005BBF000068090024014800F055BF0000B5
:100F4000E0090024014800F04FBF000078080024A9
:100F5000014800F049BF0000F0080024014800F0FB
:100F600043BF0000580A0024014800F03DBF0000C4
:100F7000D00A0024014800F037BF0000480B0024CD
:100F8000014800F031BF0000C00B002410B52C4A0E
:100F9000016891423AD02A4A1832914236D0284A02
:100FA0003032914232D0264A483291422ED0244AE1
:100FB000603291422AD0224A7832914226D0204A89
:100FC0009032914222D01E4AA83291421ED01D4A30
:100FD00091421BD01B4A1832914217D0194A303225
:100FE000914213D0174A483291420FD0154A6032CD
:100FF00091420BD0134A7832914207D0114A903275
:10100000914203D00F4AA832914214D1CAB2103A89
:101010001823B2FBF3F20C4C02F00703E35CC36548
:10102000032A04D96FF30901091D816506E06FF3F6
:101030000901816502E021F0FF018165806D10BD2D
:1010400010000240100402409CAE000810B5016878
:101050000123224CCAB2A1421BD0204C1434A1421D
:1010600017D01E4C2834A14213D01C4C3C34A14252
:101070000FD01A4C5034A1420BD0184C6434A1420A
:1010800007D0164C7834A14203D0144C8C34A142C2
:101090000FD1083A1421B2FBF1F1114A02EB81029F
:1010A00002660F4A8032426601F01F018B40836660
:1010B00010BD103A1824B2FBF4F20A4C2144A829BE
:1010C00000D80832084901EB8201016606498031E7
:1010D000416602F01F018B40836610BD0854025820
:1010E00000580258F0FBFDBF000802400279521E72
:1010F000072A31D8194B016899421BD0174B14337A
:10110000994217D0154B2833994213D0134B3C33D7
:1011100099420FD0114B503399420BD00F4B64338F
:10112000994207D00D4B7833994203D00B4B8C3347
:10113000994207D10A4901EB8201C1660849403151
:10114000016706E0074901EB8201C16605494031AC
:10115000016701219140416770470000085402581F
:101160000059025800090240014610B500208B6961
:101170004FF0C0748A6A002B0ED0B3F5005F1AD00E
:1011800062B3012A2AD0022A28D0032A03D1C96ACD
:10119000C90100D5012010BD1AB1012A06D0022ACA
:1011A000F9D1C96AC901F6D5012010BDC96AA142A9
:1011B000FBD1012010BD52B1012A0AD0022A06D06B
:1011C000032AF7D1C96AA142F4D1012010BD012040
:1011D00010BDC96AC901FBD5012010BD012010BD99
:1011E0002DE9F04F856D8A4E894FDFF824C2A8366D
:1011F000DFF81C82DFF818920CF1180CDFF810A24F
:1012000008F13008DFF808B209F1480904680AF16A
:10121000600A0BF1780BBC426DD064456BD044453D
:1012200069D04C4567D0544565D05C4563D0DFF844
:10123000E0E10EF1900E74455DD0B4425BD0DFF872
:10124000D4E1744557D0DFF8CCE10EF1180E7445A7
:1012500051D0DFF8C0E10EF1300E74454BD0DFF80D
:10126000B4E10EF1480E744545D0DFF8A8E10EF167
:10127000600E74453FD0DFF89CE10EF1780E7445A6
:1012800039D0DFF890E10EF1900E744533D0DFF8DD
:1012900084E10EF1A80E74452DD0DFF87CE1744591
:1012A00029D0DFF874E10EF1140E744523D0DFF875
:1012B00068E10EF1280E74451DD0DFF85CE10EF1F7
:1012C0003C0E744517D0DFF850E10EF1500E744516
:1012D00011D0DFF844E10EF1640E74450BD0DFF855
:1012E00038E10EF1780E744505D0DFF82CE10EF1EF
:1012F0008C0E744509D1D0E919E4CEF80440C46ECF
:101300001CB1D0E91CE4CEF804400468BC422ED0E5
:1013100064452CD044452AD04C4528D0544526D08D
:101320005C4524D03A4F9037BC4220D0B4421ED006
:10133000384EB4421BD0374E1836B44217D0354E13
:101340003036B44213D0334E4836B4420FD0314E0B
:101350006036B4420BD02F4E7836B44207D02D4EB3
:101360009036B44203D02B4EA836B4421BD190F82D
:101370005C4004F01F063F24B440AC60046825685C
:1013800025F480252560046863608368402B05D0C0
:10139000036899600068C260BDE8F08F03689A60D6
:1013A0000068C160F8E71C4EB4421BD01A4E1436D8
:1013B000B44217D0184E2836B44213D0164E3C36DD
:1013C000B4420FD0144E5036B4420BD0124E643695
:1013D000B44207D0104E7836B44203D00E4E8C364D
:1013E000B442D9D190F85C4004F01F060124B44007
:1013F0006C60046863608368402B04D00368996064
:101400000068C260C8E703689A600068C160C3E70B
:1014100010000240100402400854025870470000B7
:10142000DFED060A20EE200ADFED050A80EE201A25
:10143000BDEEC10A10EE100A7047000000004845DA
:101440000000B44330B5034600200022044C04E001
:101450009D5C4540605D521CD2B28A42F8D330BDDB
:10146000DCAE000803460846197A002905D0012998
:1014700005D0022906D06B2070476B2070471146BB
:1014800000F003B81146FFF7DDBF034610B500209A
:10149000002203E09C5C6040521CD2B28A42F9D325
:1014A00010BD000000EE100ADFED050AB8EEC00A1C
:1014B00020EE200ADFED030A20EE200A704700002C
:1014C0000000B44300008037083000F8081C40F8E2
:1014D000042C0021017080F84C108180C1800181B2
:1014E000C160018241618161017F21F0010121F030
:1014F000020121F0040121F008010177417F21F070
:10150000010121F0020121F0040121F008014177DD
:101510007047000070B506460C461546042D01D2F2
:10152000002070BD20783178884201D0002070BD45
:10153000681E2146C2B23046FFF794FF611911F8C8
:10154000011C884201D0002070BD607858B1194854
:101550002A462146FFF725F86078352805D0362839
:1015600013D0002070BD002070BD062D01D20020D8
:1015700070BDE178207940EA012000B2A17801290C
:1015800000D140423083012070BD082D01D20020DF
:1015900070BDE178A079627940EA016120790004A8
:1015A00040EA02200143A078012800D14942F161BC
:1015B000012070BD465700242DE9F04106460F4634
:1015C00015463078401EC4B22A4639463046FFF7E9
:1015D00049FF032C49D2274B03217CB1012C19D0A0
:1015E000022C42D19A78B2FBF1F401FB1422224979
:1015F00001EB4211521C9A7000231BE01A78B2FBD7
:10160000F1F401FB14221C49C03901EB4211521CB8
:101610001A70F1E75A78B2FBF1F401FB1422164973
:10162000603901EB4211521C5A70E5E7FA5CCA546A
:101630005B1CDBB2AB42F9D3485501F01F042034E8
:101640000B46BFF34F8F0D4803602033203C002C26
:10165000FADCBFF34F8FBFF36F8F70686A1C04F022
:10166000DFFA20B1002086F85400BDE8F0810120A7
:10167000F9E70000A70000248003002468EF00E0E1
:1016800008B501788DF800100A218DF801106D2140
:101690008DF8021003226946FFF78EFF08BD1CB5C6
:1016A00002788DF80020F3228DF80120AB228DF80E
:1016B00002208DF8031000218DF8041005226946E0
:1016C000FFF77AFF1CBD2DE9FF410AADE0CD0024F4
:1016D000009401940294039404788DF80040FD2452
:1016E0008DF801408DF80210110A8DF803108DF865
:1016F00004208DF80530290E8DF80610290C8DF880
:101700000710290A8DF808108DF809508DF80A6025
:101710008DF80B700C226946FFF74EFFBDE8FF8184
:1017200008B502788DF80020132955D2DFE801F0C2
:101730000A0E1216541A541E22262A2E32363A3E09
:10174000424651001F218DF8011048E020218DF8FC
:10175000011044E021218DF8011040E024218DF892
:1017600001103CE027218DF8011038E031218DF87F
:10177000011034E032218DF8011030E033218DF872
:1017800001102CE034218DF8011028E035218DF86E
:10179000011024E036218DF8011020E037218DF86A
:1017A00001101CE03A218DF8011018E03B218DF862
:1017B000011014E022218DF8011010E042218DF873
:1017C00001106C218DF8021003226946FFF7F4FE28
:1017D00008BD00F009F808BD00218DF801100222B3
:1017E0006946FFF7E9FE08BD08B501788DF80010DD
:1017F00043218DF801107A218DF8021003226946E9
:10180000FFF7DAFE08BD72B6FEE700000548016882
:1018100041F0020101600348083801688904FCD5E1
:10182000704700000C4802582DE9F84F044601F0BB
:1018300033FB00905CB194F83500022809D0802079
:101840006065002084F834000120BDE8F88F012095
:10185000FBE7D14ED04FD0491836DFF83C83303704
:10186000DFF83493DFF830A308F14808DFF828B335
:1018700009F1600920680AF1780A0BF1900B88429F
:101880002ED0B0422CD0B8422AD0404528D048456E
:1018900026D0504524D0584522D0BF4AA832904285
:1018A0001ED0BE4A90421BD0BC4A1832904217D07C
:1018B000BA4A3032904213D0B84A483290420FD0E0
:1018C000B64A603290420BD0B44A7832904207D088
:1018D000B24A9032904203D0B04AA832904204D12A
:1018E000026822F00102026003E0026822F00102B5
:1018F0000260206888422ED0B0422CD0B8422AD054
:10190000404528D0484526D0504524D0584522D0BF
:10191000A14AA83290421ED0A04A90421BD09F4AB2
:101920001832904217D09D4A3032904213D09B4AD1
:10193000483290420FD0994A603290420BD0974A79
:101940007832904207D0954A9032904203D0934A21
:10195000A83290420AD1026822F01E02026020687A
:10196000426922F080024261256804E0026822F0A8
:101970000E02026025688849206888424DD0B04236
:101980004BD0B84249D0404547D0484545D0504556
:1019900043D0584541D08049A83188423DD07F4945
:1019A00088423AD07D491831884236D07B4930315F
:1019B000884232D07949483188422ED07749603107
:1019C00088422AD075497831884226D073499031AF
:1019D000884222D07149A83188421ED0704988427D
:1019E0001BD06F491431884217D06D492831884285
:1019F00013D06B493C3188420FD06949503188423D
:101A00000BD067496431884207D0654978318842F4
:101A100003D063498C31884214D1206E016821F4CF
:101A2000807101600EE001F037FA0099401A052834
:101A300008D92020343420620320607000202070F8
:101A4000012002E72868C007EDD1534A0121206830
:101A500090422ED0B0422CD0B8422AD0404528D057
:101A6000484526D0504524D0584522D04A4BA8336B
:101A700098421ED0494B98421BD0484B183398428D
:101A800017D0464B3033984213D0444B48339842DA
:101A90000FD0424B603398420BD0404B7833984282
:101AA00007D03E4B9033984203D03C4BA83398422A
:101AB00008D1A06D94F85C3003F01F053F23AB40C4
:101AC000836007E0A06D94F85C3003F01F0301FA17
:101AD00003F34360206890424DD0B0424BD0B842EF
:101AE00049D0404547D0484545D0504543D058455A
:101AF00041D0294AA83290423DD0284A90423AD05B
:101B0000264A1832904236D0244A3032904232D09F
:101B1000224A483290422ED0204A603290422AD047
:101B20001E4A7832904226D01C4A9032904222D0EF
:101B30001A4AA83290421ED0194A90421BD0184A25
:101B40001432904217D0164A2832904213D0144AC9
:101B50003C3290420FD0124A503290420BD0104A81
:101B60006432904207D00E4A7832904203D00C4A39
:101B70008C3290420BD1D4E919205060E06E30B124
:101B8000026822F480720260D4E91C205060343470
:101B900061700020207058E61000024010040240DE
:101BA000085402582DE9F05F002808D090F835104D
:101BB000022906D0802141650120BDE8F09F012067
:101BC000FBE7854C844D854F6034834AA835DFF8A8
:101BD00008A21837DFF800E2DFF800C20AF1300A85
:101BE000DFF8F8B10EF1480EDFF8F0810CF1300C9F
:101BF000DFF8E8910BF1480B016808F16008774EB7
:101C000009F17809914227D0734B1833994223D0B8
:101C1000514521D071451FD0A1421DD06E4B783364
:101C2000994219D06C4B9033994215D0A94213D0E8
:101C30006A4B183B99420FD0B1420DD0B9420BD03C
:101C4000614509D0594507D0414505D0494503D0E4
:101C5000624B9033994236D1042380F8353091425B
:101C600027D05D481830814223D0514521D071459D
:101C70001FD0A1421DD058487830814219D0564813
:101C80009030814215D0A94213D05448183881426F
:101C90000FD0B1420DD0B9420BD0614509D05945A2
:101CA00007D0414505D0494503D04C48903081428A
:101CB00004D1086820F0010008608BE0086820F07B
:101CC0000100086086E0444A7832DFF80CA10AF18E
:101CD000900ADFF808E1AEF1180E0B6823F001035B
:101CE0000B6001680B6823F00E030B60DFF8E8B0AF
:101CF0000123016859454CD0DFF8DCB00BF1180B1B
:101D0000594546D0DFF8D0B00BF1300B594540D0E3
:101D1000DFF8C4B00BF1480B59453AD0A14238D096
:101D2000914236D0514534D0A94232D0714530D09D
:101D3000B1422ED0B9422CD061452AD0274A483230
:101D4000914226D0414524D0494522D0234A9032A1
:101D500091421ED0224A91421BD0214A1432914214
:101D600017D01F4A2832914213D01D4A3C3291426B
:101D70000FD01B4A503291420BD0194A6432914223
:101D800007D0174A7832914203D0154A8C329142DB
:101D900018D1016E0A6822F480720A60816D90F891
:101DA0005C2002F01F0203FA02F24A60D0E9192116
:101DB0005160C16E31B10A6822F480720A60D0E9C4
:101DC0001C21516080F83530002180F83410016DFD
:101DD00001B188470020F0E61000024028040240CC
:101DE00008540258406D70472DE9FF5F04460020FB
:101DF00001904FF41651FD480068B0FBF1F00090DF
:101E0000A56D2E682968FA4FDFF8E4B3DFF8E083A8
:101E1000DFF8DC930BF1180BDFF8D4A308F13008DE
:101E2000206809F148090AF1600AB8423BD05A46D5
:101E3000904238D0404536D0484534D0504532D015
:101E4000EB4A783290422ED0E94A903290422AD022
:101E5000E74AA832904226D0E64A904223D0E54A8B
:101E6000183290421FD0E34B303398421BD0E14BE5
:101E70004833984217D0DFF87CC30CF1600C604502
:101E800011D0DFF870C30CF1780C60450BD0DFF88F
:101E900064C30CF1900C604505D0DFF858E30EF1F7
:101EA000A80E70457ED194F85C10082301F01F0144
:101EB00003FA01F232424BD0B84232D0584530D00A
:101EC00040452ED048452CD050452AD0C8497831BD
:101ED000884226D0C6499031884222D0C449A831D0
:101EE00088421ED0C34988421BD0C249183188425B
:101EF00017D0C0493031884213D0BE49483188429A
:101F00000FD0BC49603188420BD0BA497831884241
:101F100007D0B8499031884203D0B649A8318842E9
:101F200003D1016801F0040102E0016801F0080139
:101F300071B1016821F00401016094F85C0000F0C7
:101F40001F0003FA00F2AA60606D40F001006065B6
:101F500094F85C00012100F01F008140314240D024
:101F60002068B84234D0584532D0404530D048453A
:101F70002ED050452CD09E4A7832904228D09C4A90
:101F80009032904224D09A4AA832904220D0994A66
:101F900090421DD0974A1832904219D0954A30325B
:101FA000904200E0D2E113D0924A483290420FD0E2
:101FB000904A603290420BD08E4A7832904207D0DD
:101FC0008C4A9032904203D08A4AA83290427DD106
:101FD000406910F0800F04D0A960606D40F00200ED
:101FE000606594F85C00042100F01F0081403142DC
:101FF0003ED02068B84232D0584530D040452ED02F
:1020000048452CD050452AD0794A7832904226D083
:10201000774A9032904222D0754AA83290421ED020
:10202000744A90421BD0734A1832904217D0714ABA
:102030003032904213D06F4A483290420FD06D4AEE
:10204000603290420BD06B4A7832904207D0694A96
:102050009032904203D0674AA83290424ED1006835
:1020600010F0020F04D0A960606D40F004006065BC
:1020700094F85C00102100F01F008140314260D0D4
:102080002068B84234D0584532D0404530D0484519
:102090002ED050452CD0564A7832904228D0544AFF
:1020A0009032904224D0524AA832904220D0514AD5
:1020B00090421DD04F4A1832904219D04D4A3032CA
:1020C000904215D04B4A4832904200E014E00FD0C5
:1020D000484A603290420BD0464A7832904207D04C
:1020E000444A9032904203D0424AA832904207D1EB
:1020F000006800F0080006E0006872E70068B7E7D3
:10210000006800F0040058B1A96020680168490324
:102110000CD50068000304D4216C09B1204688471F
:102120000FE0A16C69B1204688470AE00168C90543
:1021300003D4016821F008010160216C09B1204637
:10214000884794F85C00202100F01F008140314254
:102150007BD02068B84232D0584530D040452ED090
:1021600048452CD050452AD0214A7832904226D07A
:102170001F4A9032904222D01D4AA83290421ED06F
:102180001C4A90421BD01B4A1832904217D0194A61
:102190003032904213D0174A483290420FD0154A3D
:1021A000603290420BD0134A7832904207D0114AE5
:1021B0009032904203D00F4AA832904203D1006877
:1021C00000F0100002E0006800F00200E8B3A9602F
:1021D00094F83500042812D02068016849033DD5E1
:1021E0000068000335D5616C79B305E01800002460
:1021F0001000024010040240204688473FE020685B
:10220000016821F0160101602068416921F0800118
:102210004161206C08B9A06C20B12068016821F0F0
:102220000801016094F85C0000F01F013F20884025
:10223000A860012084F83500002084F83400216D66
:10224000002974D004B0204600E018E0BDE8F05F3B
:102250000847E16B99B12046884710E00168C9053D
:1022600009D4016821F010010160012084F83500D3
:10227000002084F83400E16B09B120468847606D86
:10228000002854D0606DC00758D0042084F8350071
:102290002068B84231D058452FD040452DD0484510
:1022A0002BD0504529D0B749884226D0B54918319E
:1022B000884222D0B349303188421ED0B249884288
:1022C0001BD0B1491831884217D0AF49303188420C
:1022D00013D0AD49483188420FD0AB4960318842B4
:1022E0000BD0A9497831884207D0A749903188425C
:1022F00003D0A549A831884204D1016821F0010129
:10230000016003E0016821F001010160216801988A
:10231000009A401C0190904202D80868C007F6D18C
:102320000868C00704D0032084F8350003E087E084
:10233000012084F83500002084F83400E16C002985
:102340007ED004B02046BDE8F05F08478F4EB04213
:102350001BD08E4E1436B04217D08C4E2836B04269
:1023600013D08A4E3C36B0420FD0884E5036B04221
:102370000BD0864E6436B04207D0844E7836B042D9
:1023800003D0824E8C36B0425AD106684FF0040E0C
:1023900094F85CB00BF01F0B0EFA0BFE1EEA010F57
:1023A000CDF80CE05ED05FEA467E5BD503986860AE
:1023B000300411D5F00307D5A16C002940D004B03A
:1023C0002046BDE8F05F0847216C002938D004B0F2
:1023D0002046BDE8F05F0847B0063BD42068B8420D
:1023E0002DD068496039884229D0404527D04845DA
:1023F00025D0504523D06349884220D06149183107
:1024000088421CD05F493031884218D05E498842EA
:1024100015D0904213D05C49303188420FD0984299
:102420000DD059496031884209D0574978318842E6
:1024300005D0604503D05449A831884206D100E058
:102440007CE0016821F00801016003E0016821F0EF
:1024500004010160216C002970D004B02046BDE861
:10246000F05F08474FF0020E0EFA0BFE1EEA010F56
:10247000CDF808E063D05FEA867E60D50298686098
:10248000300411D5F00307D4616C002978D004B072
:102490002046BDE8F05F0847E16B002970D004B02A
:1024A0002046BDE8F05F0847B0063FD42068B84238
:1024B0002DD034496039884229D0404527D048453D
:1024C00025D0504523D02F49884220D02D4918319E
:1024D00088421CD02B493031884218D02A49884282
:1024E00015D0904213D02849303188420FD09842FD
:1024F0000DD025496031884209D02349783188427E
:1025000005D0604503D02049A831884204D1016834
:1025100021F01401016003E0016821F00A0101606B
:10252000012084F83500002084F83400E16B002994
:1025300026D004B02046BDE8F05F084720E008221E
:1025400002FA0BF20A421BD0310719D5016821F0BB
:102550000E01016094F85C0000F01F01012000FAF8
:1025600001F16960606584F83500002084F834006A
:10257000E16C002904D004B02046BDE8F05F0847B4
:10258000BDE8FF9F88000240100402400854025832
:102590002DE9F05F044600F07FFC0646002C7DD05C
:1025A000F24F0222DFF8C4830025DFF8C093DFF882
:1025B000BCA308F13008DFF8B4B309F1480920687A
:1025C0000AF1600A0BF1780BB84232D0E7491831B2
:1025D00088422ED040452CD048452AD0504528D09E
:1025E000584526D0E1499031884222D0DF49A831B0
:1025F00088421ED0DE4988421BD0DD49183188420E
:1026000017D0DB493031884213D0D949483188424C
:102610000FD0D749603188420BD0D54978318842F4
:1026200007D0D3499031884203D0D149A83188429C
:102630007ED184F8352084F83450B84234D0CB4968
:102640001831884230D040452ED048452CD05045D6
:102650002AD0584528D0C5499031884224D0C34952
:10266000A831884220D0C24988421DD0C0491831C3
:10267000884219D0BE493031884215D0BC49483112
:10268000884211D0BA49603188420DD0B8497831BA
:10269000884209D0B6499031884200E009E003D071
:1026A000B349A831884207D1016821F001010160D6
:1026B00013E00120BDE8F09F016821F001010160F5
:1026C0000BE000F0E9FB801B052806D9202060659F
:1026D000032084F835000120ECE720680068C0077B
:1026E000EFD122681168A3480140D4E902031843DE
:1026F000D4E9043633431843A3691843E369184304
:10270000236A18430843616A042903D1D4E90B13EF
:10271000194308436168A1F12903052B0DD9163B24
:10272000032B0AD9083B012B07D9083B032B00E0F8
:102730002AE002D97439032901D840F480101060CE
:102740002068406920F00701606A40EA0106042819
:102750000DD1A06A0643E06A48B12046FEF704FDA9
:1027600028B140206065012084F83500A2E7206888
:1027700046612046FEF70AFC94F85C1001F01F0247
:102780003F219140816066E07B4988421BD07A4BB3
:102790001433984217D0784B2833984213D0764B95
:1027A0003C3398420FD0744B503398420BD0724B4D
:1027B0006433984207D0704B7833984203D06E4B05
:1027C0008C3398427ED1884211D06B4914318842B3
:1027D0000DD069492831884209D067493C31884287
:1027E00005D065495031884201D06349643184F88D
:1027F000352084F83450026860490A40A1684029B5
:102800007ED080297DD00021E36841EAD30123698D
:1028100041EAD301636941EAD301A36941EAD301E3
:10282000E36941EAD301236A41EA131111430160CC
:1028300051492068494208441421B0FBF1F080005E
:10284000E0652046FEF7A2FB94F85C1001F01F0241
:102850000121914041602068B84256D04349183167
:10286000884252D0404550D048454ED050454CD07B
:1028700058454AD03D499031884246D03B49A8311D
:10288000884242D03A4988423FD03949183188427B
:102890003BD037493031884237D0354948318842BA
:1028A00033D03349603188422FD031497831884262
:1028B0002BD02F499031884227D02D49A83188420A
:1028C00023D000E02DE02C4988421ED02A49143143
:1028D00088421AD028492831884216D026493C31EE
:1028E000884212D02449503188420ED022496431A6
:1028F00088420AD020497831884206D01E4901E03A
:102900000AE00BE08C31884229D12046FEF79EFB7D
:10291000A06880280CD00CE0102175E74FF48041AE
:1029200072E740206065032084F835000120C1E68D
:102930006560216E20790860D4E9191048606068EC
:10294000401E072808D82046FEF7D0FBE06E056041
:10295000D4E91C10486002E0E56625676567656597
:10296000012084F835000020A4E600001000024099
:10297000100402403F8010FE085402580F00FEFF72
:102980002DE9F84F044600200090002C15D094F853
:102990003400012813D0012084F8340094F8355015
:1029A0000020012D0DD04FF40061616584F83400E2
:1029B000012000900098BDE8F88F0120FBE702207D
:1029C000F9E7022584F835506065A54DA44EA44F63
:1029D0001835DFF88CC23036DFF884824837DFF8EC
:1029E0008092DFF87CA208F16008DFF874B209F188
:1029F000780920680AF1900A0BF1A80B60453BD0DA
:102A0000A84239D0B04237D0B84235D0404533D053
:102A1000484531D050452FD058452DD0DFF844C21D
:102A2000604529D0DFF83CC20CF1180C604523D07A
:102A3000DFF830C20CF1300C60451DD0DFF824C245
:102A40000CF1480C604517D0DFF818C20CF1600C8F
:102A5000604511D0DFF80CC20CF1780C60450BD04A
:102A6000DFF800C20CF1900C604505D0DFF8F4C12E
:102A70000CF1A80C604506D1D0F800C02CF0010C78
:102A8000C0F800C005E0D0F800C02CF0010CC0F880
:102A900000C02046FEF7A4FB7149206888422CD074
:102AA000A8422AD0B04228D0B84226D0404524D0EF
:102AB000484522D0504520D058451ED0694A904202
:102AC0001BD0684A1832904217D0664A3032904282
:102AD00013D0644A483290420FD0624A603290422A
:102AE0000BD0604A7832904207D05E4A90329042D2
:102AF00003D05C4AA83290420DD1026822F01E0237
:102B000042F016020260206C90B12068026842F028
:102B1000080202600CE0026822F00E0242F00A0293
:102B20000260206C20B12068026842F0040202605A
:102B3000206888424BD0A84249D0B04247D0B84222
:102B400045D0404543D0484541D050453FD05845F9
:102B50003DD0444A90423AD0424A1832904236D050
:102B6000404A3032904232D03E4A483290422ED0D3
:102B70003C4A603290422AD03A4A7832904226D07B
:102B8000384A9032904222D0364AA83290421ED023
:102B9000354A90421BD0344A1432904217D0324A00
:102BA0002832904213D0304A3C3290420FD02E4A05
:102BB000503290420BD02C4A6432904207D02A4ABD
:102BC0007832904203D0284A8C3290420DD1206E48
:102BD0000268D20303D5026842F480720260E06E9C
:102BE00018B1026842F480720260206888422CD0DA
:102BF000A8422AD0B04228D0B84226D0404524D09E
:102C0000484522D0504520D058451ED0154988420D
:102C10001BD014491831884217D0124930318842EC
:102C200013D01049483188420FD00E496031884294
:102C30000BD00C497831884207D00A49903188423C
:102C400003D00849A831884204D1016841F001014C
:102C50000160AFE6016841F001010160AAE60000F1
:102C60001000024010040240085402582DE9F84FA9
:102C700000227A4D03264FF001080F274FF0B04C89
:102C8000E4E008FA02F31C409A46002C7ED00B794F
:102C900003F00303012B01D0022B1BD1D0F80890C5
:102CA000530006FA03FB29EA0B09D1F80CB00BFA22
:102CB00003FB4BEA090BC0F808B0436823EA0A0398
:102CC00091F80490C9F3001909FA02F949EA0309D5
:102CD000C0F804900B79DB439B0702D18B68012B72
:102CE0000ED0D0F80C90530006FA03FA29EA0A092C
:102CF000D1F808A00AFA03FA4AEA090AC0F80CA0B7
:102D00000B7903F00303022B14D1D30800EB8303E8
:102D1000D3F820A04FEA42794FEAD96907FA09FBB4
:102D20002AEA0B0AD1F810B00BFA09FB4BEA0A0B9E
:102D3000C3F820B0D0F80090530006FA03FA29EA4D
:102D40000A0991F804A00AF0030A0AFA03FA4AEA07
:102D5000090AC0F800A04B6813F4403F75D0404BFF
:102D6000D3F8009049F00209C3F800901B6803F003
:102D70000203009322F0030909F1B049D9F808B41D
:102D800093074FEA137A07FA0AF300E05DE02BEAB3
:102D9000030B344B984201D1002328E0324B984278
:102DA00001D1012323E0314B984201D102231EE0DF
:102DB0002F4B984201D1032319E02E4B984201D1A9
:102DC000042314E02C4B984201D105230FE02B4B38
:102DD000984201D106230AE0294B984201D10723EA
:102DE00005E0284B984201D1092300E00A2303FAA9
:102DF0000AF343EA0B03C9F80834DCF80030A343B4
:102E0000D1F804905FEAC92900D52343CCF80030FB
:102E1000DCF80430A343D1F804905FEA892900D597
:102E20002343CCF804306B68A343D1F804905FEAE5
:102E3000893900D523436B602B68A343D1F80490F4
:102E40005FEAC93900D523432B60521C0C6834FA61
:102E500002F37FF416AFBDE8F88F00008000005841
:102E6000F4440258000002580004025800080258B6
:102E7000000C0258001002580014025800180258A2
:102E8000001C025800240258002A01D081617047BA
:102E900009048161704700000148806870470000A4
:102EA0000C00002402488168027811448160704758
:102EB0000C00002410B5032000F0AEF801F038F942
:102EC0000F490A68C2F303230E4AD35C03F01F03C1
:102ED000D840096801F00F01515C0B4A01F01F0155
:102EE00020FA01F11160094908600F2000F010F884
:102EF00008B1012010BD00F04FF8002010BD000007
:102F000018440258CCAE00081C000024180000240D
:102F100010B58AB00446102C2DD20022214619206B
:102F200000F05AF8192000F049F8164804601648D5
:102F3000016841F001010160006800F001000090AB
:102F400001A902A801F07EF801F0E0F840000F4965
:102F5000B0FBF1F1491E0F480D4A026040F2E73222
:102F6000C260416000210161816001F0AAFC20B1D2
:102F700001200AB010BD0120FBE7064801F0CAFCA1
:102F8000F7E7000010000024F044025840420F0010
:102F900000000140180E002482B00748016841F08B
:102FA00002010160006800F00200019000220F2180
:102FB000901E02B000F010B8F4440258002809DB5B
:102FC000012100F01F0291404009800000F1E02043
:102FD000C0F8001170470000F0B40D460D4B1B689F
:102FE000C3F30223C3F10704042C00D90424191DE0
:102FF000072901D2002300E0DB1E012606FA04F1B6
:10300000491E294099409E40761E16403143F0BC2F
:1030100004F082BA0CED00E000F00701054A1068E8
:103020004FF6FF03184040EA0120034908431060AF
:10303000704700000CED00E00000FA0570B514497F
:103040000A68D243520708D5096801F00701814296
:1030500001D0012070BD002070BD0A6822F0070277
:1030600002430A60FFF718FF0446094D4FF47A76D1
:10307000083D06E0FFF710FF001BB04201D9012018
:1030800070BD2868C0438004F4D4002070BD0000E7
:103090000C48025810B501F005F805490968054AC1
:1030A000C1F30211515C01F01F01C84010BD0000C6
:1030B00020440258CCAE000810B569490A6802F0F5
:1030C00003020968C1F30531654B1B1D1B68C3F37F
:1030D0000013634C14342468C4F3CC0414FB03F3CE
:1030E00000EE103AB8EE400A002971D09FED5D1A4B
:1030F0005B4BF7EE000A1033F2B39FED5B2A012A17
:103100007FD0022A7CD001EE901A1968F8EE611A7D
:10311000C2EE212AC1F3080101EE901AF8EE611AFD
:1031200040EE011A31EEA00A22EE800A1968C1F3BE
:10313000462101EE101AB8EE411A31EE201AC0EE07
:10314000011ABCEEE11A80ED001A1968C1F30641BC
:1031500001EE101AB8EE411A31EE201AC0EE011A33
:10316000BCEEE11A80ED011A1968C1F3066101EEA7
:10317000101AB8EE411A00E008E071EE200A80EE65
:10318000201ABCEEC10A80ED020A10BD344A283A6A
:103190001468A4061ED51268C2F3C104334AE24083
:1031A00001EE902AF8EE612A01EE901A1968F8EE05
:1031B000611A82EEA12AC1F3080101EE901AF8EE1D
:1031C000611A40EE011A31EEA00A22EE000AADE7C4
:1031D00041E016E001EE901ADFED252A1968F8EEBD
:1031E000611A82EEA12AC1F3080101EE901AF8EEED
:1031F000611A40EE011A31EEA00A22EE000A95E7AC
:1032000013E001EE901A1968F8EE611AC2EE212A55
:10321000C1F3080101EE901AF8EE611A40EE011AAE
:1032200031EEA00A22EE800A80E701EE901ADFED6F
:10323000112A1968F8EE611A82EEA12AC1F3080179
:1032400001EE901AF8EE611A40EE011A31EEA00A72
:1032500022EE000A6AE7002101604160816010BD32
:1032600028440258000000390024744A0090D0031A
:103270000024744C20BCBE4B10B569490A6802F0AA
:1032800003020968C1F30551654B1B1D1B68C3F39D
:103290000023634C1C342468C4F3CC0414FB03F3F4
:1032A00000EE103AB8EE400A002971D09FED5D1A89
:1032B0005B4BF7EE000A1833F2B39FED5B2A012A4D
:1032C0007FD0022A7CD001EE901A1968F8EE611ABC
:1032D000C2EE212AC1F3080101EE901AF8EE611A3C
:1032E00040EE011A31EEA00A22EE800A1968C1F3FD
:1032F000462101EE101AB8EE411A31EE201AC0EE46
:10330000011ABCEEE11A80ED001A1968C1F30641FA
:1033100001EE101AB8EE411A31EE201AC0EE011A71
:10332000BCEEE11A80ED011A1968C1F3066101EEE5
:10333000101AB8EE411A00E008E071EE200A80EEA3
:10334000201ABCEEC10A80ED020A10BD344A283AA8
:103350001468A4061ED51268C2F3C104334AE240C1
:1033600001EE902AF8EE612A01EE901A1968F8EE43
:10337000611A82EEA12AC1F3080101EE901AF8EE5B
:10338000611A40EE011A31EEA00A22EE000AADE702
:1033900041E016E001EE901ADFED252A1968F8EEFB
:1033A000611A82EEA12AC1F3080101EE901AF8EE2B
:1033B000611A40EE011A31EEA00A22EE000A95E7EA
:1033C00013E001EE901A1968F8EE611AC2EE212A94
:1033D000C1F3080101EE901AF8EE611A40EE011AED
:1033E00031EEA00A22EE800A80E701EE901ADFEDAE
:1033F000112A1968F8EE611A82EEA12AC1F30801B8
:1034000001EE901AF8EE611A40EE011A31EEA00AB0
:1034100022EE000A6AE7002101604160816010BD70
:1034200028440258000000390024744A0090D00358
:103430000024744C20BCBE4B2DE9FC5F04460025E3
:103440000026F94F2068DFF8E493C043010104F13E
:103450000800019004F1280000900DD4606EB8B10E
:10346000B0F5801F19D0B0F5001F1CD0B0F5401F7B
:1034700000D00125EDB12E462088C043C00535D4CB
:10348000A06D05282FD2DFE800F01D22282F2F0085
:10349000386840F400303860ECE70198022102F00F
:1034A00053FE0546E6E70098022102F0DFFE0546DE
:1034B000E0E7D9F80000616E20F440100843C9F835
:1034C0000000D9E7386840F4003038600CE001981B
:1034D000002102F039FE054606E00098002102F0C6
:1034E000C5FE054600E00125A5B12E462088DFF87F
:1034F0004083C04340051FD4D4F8A400B0F5C00FEA
:1035000018D010DC50B3B0F5001F2CD0B0F5800FF0
:103510000FD12EE0D9F80000A16D20F0070008437C
:10352000C9F80000E2E7B0F5000F03D0B0F5200FB6
:1035300000D001251DB32E462088C043000531D49C
:10354000D4F8A800B0F1407F2AD022DCF0B3B0F16B
:10355000807F4BD0B0F1007F21D14DE0386840F43E
:1035600000303860E6E70198002102F0EDFD0546E5
:10357000E0E70098002102F079FE0546DAE7D8F886
:103580000000D4F8A41020F460000843C8F800003C
:10359000D2E7B0F1806F03D0B0F1A06F00D0012569
:1035A00085B32E462068C04380010AD4E06C30B158
:1035B000102832D0202836D0302800D001258DB3F5
:1035C0002E462088C043C00446D400E009E0E06DE8
:1035D000B0F5005F5CD036DCA0B3B0F5805F38D1C9
:1035E00050E0386840F400303860D9E70198002195
:1035F00002F0AAFD0546D3E70098002102F036FE4E
:103600000546CDE7FFE7D8F80000D4F8A81020F071
:10361000E0600843C8F80000C4E7386840F40030B0
:103620003860CCE705E00198022102F08DFD0546E7
:10363000C5E77E48001F0168E26C21F030011143AC
:103640000160BEE719E0B0F5405F03D0B0F5804FF0
:1036500000D0012515B32E462088C04380042FD406
:10366000206EB0F5403F29D021DC38B3B0F5803F63
:1036700038D0B0F5003F20D13AE0386840F400304F
:103680003860E7E70198002102F05EFD0546E1E7BA
:103690000098002102F0EAFD0546DBE7D9F80000BA
:1036A000E16D20F4E0400843C9F80000D4E7B0F52C
:1036B000802F03D0B0F5A02F00D00125F5B12E4604
:1036C0002088C04340042BD4D4F8AC00B0F1405F54
:1036D00024D01CDC10B3B0F1805F4FD0B0F1005F9C
:1036E0001BD152E00198012102F02EFD0546E5E7CD
:1036F0000098012102F0BAFD0546DFE7D9F8000085
:10370000216E20F4E0200843C9F80000D8E7B0F1AA
:10371000804F03D0B0F1A04F00D00125A5B32E46B5
:103720002088C04300040AD4E06E30B1B0F1805F5D
:103730003DD0B0F1005F3FD00125B5B32E462068E3
:10374000C043C0010AD4A06C30B1012843D0022884
:1037500046D0032800D0012545B32E462068C0433B
:1037600040025AD4DFF8CCB0DBF8000040F480709F
:10377000CBF80000FFF790FB824648E0019801215A
:1037800002F0E2FC0546C9E705E00098012102F0DD
:103790006DFD0546C2E7D8F80000D4F8AC1020F063
:1037A000E0400843C8F80000BAE70BE01EE03868C4
:1037B00040F400303860C0E70198012102F0C4FCF9
:1037C0000546BAE7D9F80000E16E20F04050084302
:1037D000C9F80000B3E7386840F400303860BBE750
:1037E0000198022102F0B0FC0546B5E70F48001F22
:1037F0000168A26C21F0030111430160AEE7FFF7FD
:103800004BFBA0EB0A00642801D9032503E0DBF899
:103810000000C005F3D58DB12E462078DFF818A042
:10382000C043C00763D073E02C4402585044025890
:10383000584402580048025854440258DFF850B423
:10384000DBF80000B4F8B01000F4407001F44071EF
:10385000884211D0DBF8000020F44070DBF8001043
:1038600041F48031CBF80010DBF8001021F48031F6
:10387000CBF80010CBF80000D4F8B000B0F5807F92
:1038800011D1FFF709FB824609E0FFF705FBA0EB2A
:103890000A0141F28830814201D9032503E0DBF8B7
:1038A00000008007F1D50DB12E46B6E7D4F8B00080
:1038B000C0F3012103290FD0F5486038016821F4D5
:1038C0007C510160DBF80000B4F8B010C1F30B01CB
:1038D0000843CBF80000A0E7ED4960390A68ED4BDA
:1038E00022F47C52184042EA10100860EAE7A06F08
:1038F00018280BD005DC48B1082815D0102804D1B1
:1039000018E0202802D0282800D00125C5B12E4675
:103910002078C04380072BD4606F062825D2DFE8CB
:1039200000F025181E2525250198012102F00CFC28
:103930000546EBE70098012102F098FC0546E5E713
:10394000DAF80000A16F20F038000843CAF8000040
:10395000DEE70198012102F0F7FB054606E000983A
:10396000012102F083FC054600E001256DB12E46E1
:103970002078C043400720D4D4F89000062819D2FC
:10398000DFE800F0190C12191919DAF80000616F5C
:1039900020F007000843CAF80000E9E70198012178
:1039A00002F0D2FB054606E00098012102F05EFC21
:1039B000054600E0012595B12E462078C0438006DB
:1039C00020D4D4F88C00B0F1405F19D011DCB8B12C
:1039D000B0F1805F28D0B0F1005F10D12AE0D8F8B4
:1039E0000000D4F8901020F007000843C8F8000049
:1039F000E3E7B0F1804F03D0B0F1A04F00D0012534
:103A0000F5B12E462078C04340062CD4D4F8980057
:103A1000B0F5406F25D01DDC18B3B0F5806F34D001
:103A2000B0F5006F1CD136E00198002102F08CFB4C
:103A30000546E5E70098022102F018FC0546DFE79D
:103A4000DAF80000D4F88C1020F0E0400843CAF8FF
:103A50000000D7E7B0F5805F03D0B0F5A05F00D0DD
:103A60000125F5B12E462078C04300062CD4D4F8A9
:103A70009C00B0F5C04F25D01DDC18B3B0F5005F39
:103A80002CD0B0F5804F1CD12EE00198002102F01F
:103A90005BFB0546E5E70098022102F0E7FB0546DF
:103AA000DFE7D8F80000D4F8981020F4E05008437D
:103AB000C8F80000D7E7B0F5004F03D0B0F5204FAD
:103AC00000D00125B5B12E462078C04300072AD486
:103AD000D4F88000B0F5805F16D01BE0019800217B
:103AE00002F032FB0546EDE70098022102F0BEFB32
:103AF0000546E7E7D8F80000D4F89C1020F46040B1
:103B00000843C8F80000DFE70098022102F0AEFB8E
:103B100000B10126DAF80000D4F8801020F44050FB
:103B20000843CAF800002078C043C00613D4D4F874
:103B30009400B0F5807F05D10098022102F096FB39
:103B400000B10126D8F80000D4F8941020F4407099
:103B50000843C8F800002068C04300030BD4D4F821
:103B6000A000E8B3B0F5803F7DD0B0F5003F00D0B5
:103B70000125B5B32E462068C04340030DD4D4F8C8
:103B80008400B0F5801F70D0B0F5001F6ED0B0F586
:103B9000401F00D001252DB32E462068C043C0032E
:103BA00007D4206DF0B3B0F5803F75D00125D5B3B3
:103BB0002E462068C043800005D40098022102F000
:103BC00055FB00B101262068C043800311D4E06F8B
:103BD00068B1B0F5807F76D0B0F5007F07D002E005
:103BE0005BE066E07BE0B0F5407F00D00125DDB30F
:103BF0002E462068C043C00207D4D9F80000216FC8
:103C000020F000400843C9F800002068C04380024B
:103C100007D4D9F80000A16E20F080700843C9F8DD
:103C2000000001E065E06FE02068C04340000AD476
:103C300017486038016821F4004101600168D4F838
:103C4000B420114301602068C04307D410482438D1
:103C50000168626D21F04051114301602068C0434A
:103C600000020DD403E01EE05BE02DE031E0DAF865
:103C70000000D4F8881020F440000843CAF800007F
:103C800020790025C04300F00100284352D057E0BE
:103C900070440258FFFCFF0F30E00198002102F051
:103CA00053FA054665E70098022102F0DFFA05465F
:103CB0005FE7D8F80000D4F8A01020F440300843A3
:103CC000C8F8000057E727E0386840F40030386053
:103CD00061E70098012102F0C9FA05465BE7DAF8CE
:103CE0000000D4F8841020F440100843CAF8000003
:103CF00053E7386840F40030386058E701980221F3
:103D000002F022FA054652E72E480168226D21F49E
:103D10008031114301604CE7386840F4003038606E
:103D200065E7DAF80000E16F20F440700843CAF854
:103D300000005EE70198002102F006FA00B1064695
:103D40002079C04300F00200284305D101980121E9
:103D500002F0FAF900B106462079C04300F00400F1
:103D6000284305D10198022102F0EEF900B1064680
:103D70002079C04300F00800284305D100980021B5
:103D800002F074FA00B106462079C04300F010003A
:103D9000284305D10098012102F068FA00B10646D7
:103DA0002079C04300F02000054305D1009802218E
:103DB00002F05CFA00B1064616B10120BDE8FC9F96
:103DC0000020FBE74C4402582DE9F05F04460D4605
:103DD000002C17D0DFF84C82D8F8000000F00F005C
:103DE000A84211D2D8F8000020F00F002843C8F8EC
:103DF0000000D8F8000000F00F00A84204D0012015
:103E0000BDE8F09F0120FBE72078874E40070AD5E8
:103E10002069316801F07001884204D9316821F0CD
:103E20007001014331602078804F00070AD5606936
:103E3000396801F07001884204D9396821F07001B5
:103E4000014339602078C0060AD5A069396801F4B9
:103E5000E061884204D9396821F4E06101433960A6
:103E60002078DFF8CC9180060DD5E069D9F80010F4
:103E700001F07001884206D9D9F8001021F07001D4
:103E80000143C9F80010207880070AD5E06831683E
:103E900001F00F01884204D9316821F00F0101437C
:103EA00031602078C00743D03068A16820F470608A
:103EB000084330605C4960681839022808D003283C
:103EC0000BD001280ED00968490710D4012097E7CC
:103ED000096889030BD4012092E70968890106D497
:103EE00001208DE70968C90501D4012088E7DFF8C2
:103EF00038A1AAF1080ADAF8001021F007010143FD
:103F0000CAF80010FEF7C8FF834609E0FEF7C4FFB9
:103F1000A0EB0B0141F28830814201D903206FE709
:103F2000DAF80000616800F03800B0EBC10FEDD1A5
:103F3000207880070AD5E068316801F00F018842D7
:103F400004D2316821F00F0101433160D8F800003C
:103F500000F00F00A8420ED9D8F8000020F00F00A2
:103F60002843C8F80000D8F8000000F00F00A8426D
:103F700001D0012044E7207840070AD52069316844
:103F800001F07001884204D2316821F070010143D0
:103F90003160207800070AD56069396801F0700146
:103FA000884204D2396821F07001014339602078D9
:103FB000C0060AD5A069396801F4E061884204D2DC
:103FC000396821F4E06101433960207880060DD51D
:103FD000E069D9F8001001F07001884206D2D9F8E2
:103FE000001021F070010143C9F8001000F0A0F8A2
:103FF0003168C1F303220F498A5C02F01F02D040EE
:10400000326802F00F02895C0B4A01F01F0120FAAE
:1040100001F111600949086009480068BDE8F05FD6
:10402000FEF776BF00200052184402581C44025884
:1040300020440258CCAE00081C00002418000024C4
:10404000100000243F220260144A126802F00702A6
:104050004260124A0832136803F470638360136885
:1040600003F00F03C360126802F0700202610B4A92
:104070000C32136803F070034361126802F4E062CB
:104080008261064A1032126802F07002C26104486E
:10409000006800F00F0008607047000010440258EC
:1040A0000020005200B500F043F80B490A68C2F343
:1040B00003230A4AD35C03F01F03D840096801F0C8
:1040C0000F01515C064A01F01F0120FA01F1116055
:1040D000044A1060084600BD18440258CCAE0008DF
:1040E0001C0000241800002400B5FFF7DBFF054981
:1040F0000968054AC1F30211515C01F01F01C84073
:1041000000BD00001C440258CCAE000800B5FFF70B
:10411000C9FF05490968054AC1F30221515C01F054
:104120001F01C84000BD00001C440258CCAE00086E
:1041300030B564480068654C10F03801624808D01A
:10414000021108290DD010290DD018290DD01046C4
:1041500030BD21688906FBD52168C1F3C101C84083
:1041600030BD104630BD5A4830BD564918310A6836
:1041700002F003020968C1F30511524B1C331B689E
:1041800003F001034F4D24352D68C5F3CC0515FB15
:1041900003F300EE103AB8EE400A002977D0DFEDC5
:1041A0004D0A484BB7EE001A20333AB39FED4A2A26
:1041B000012A58D0022A6CD001EE901A1868F8EE45
:1041C000611AC2EE212AC0F3080001EE900AF8EE4F
:1041D000611A40EE201A31EE810A22EE800A186838
:1041E000C0F34620401C00EE900AF8EE600A80EE14
:1041F000201ABCEEC10A10EE100A30BD22689206E9
:104200001BD52268C2F3C102D04001EE900A1868A3
:10421000F8EE612A01EE901AF8EE611A82EEA12AF8
:10422000C0F3080001EE900AF8EE611A40EE201A81
:1042300031EE810A22EE000AD1E701EE901ADFED9D
:10424000272A1868F8EE611A82EEA12AC0F3080046
:1042500001EE900AF8EE611A40EE201A31EE810A62
:1042600022EE000ABBE701EE901A1868F8EE611A18
:10427000C2EE212AC0F3080001EE900AF8EE611A9E
:1042800040EE201A31EE810A22EE800AA7E716E0FE
:10429000FFE701EE901ADFED122A1868F8EE611AB6
:1042A00082EEA12AC0F3080001EE900AF8EE611A2E
:1042B00040EE201A31EE810A22EE000A8FE700203C
:1042C00030BD0000104402580090D0030044025852
:1042D00040787D01000000390024744A0024744CA9
:1042E00020BCBE4B2DE9F05F0446002C10D0207896
:1042F000DFF8F883FE4EFF4DC0075DD0D8F8000010
:1043000000F03800316810281FD0182803D006E0CC
:104310000120BDE8F09F01F00300022815D060687D
:10432000B0F5803F18D0E0B1B0F5A02F22D02868BA
:1043300020F480302860286820F48020286060689D
:1043400060B3FEF7A9FD074624E02868800333D553
:10435000606810BB0120DCE7286840F480302860EA
:10436000EDE7286820F480302860286820F4802059
:104370002860E4E7286840F480202860286840F43A
:1043800080302860DBE7FEF787FDC01B642801D979
:104390000320BEE728688003F5D50DE0FEF77CFD1D
:1043A000074606E0FEF778FDC01B642801D903200C
:1043B000AFE728688003F5D42078800764D5D8F863
:1043C000000000F038003168DFF8289309F1040993
:1043D00070B1182801D188070AD0E068A0B3296815
:1043E00021F0190101432960FEF756FD07462CE034
:1043F0002868400701D5E06848B12868E16820F0E6
:10440000190008432860FEF747FD074608E0012031
:104410007FE7FEF741FDC01B022801D9032078E7A2
:1044200028684007F5D5D9F80000217C20F0FE402F
:1044300040EA0160C9F8000026E0FEF72DFDC01B30
:10444000022802D9032064E70CE028684007F4D56D
:10445000D9F80000217C20F0FE4040EA0160C9F854
:10446000000011E0286820F001002860FEF714FD2C
:10447000074606E0FEF710FDC01B022801D9032005
:1044800047E728684007F5D42078C00655D5D8F806
:10449000000000F038003168DFF850920828A9F1D8
:1044A00004090FD0182803D101F00300012809D016
:1044B000E06978B3286840F080002860FEF7ECFCE3
:1044C000074619E02868C00504D5E069802801D0B6
:1044D00001201EE7D9F8000094F8201020F07C504D
:1044E00040EA0160C9F8000027E0FEF7D5FCC01BD8
:1044F000022801D903200CE72868C005F5D5D9F8B2
:10450000000094F8201020F07C5040EA0160C9F8C7
:10451000000012E0FFE7286820F080002860FEF726
:10452000BBFC074606E0FEF7B7FCC01B022801D91A
:104530000320EEE62868C005F5D42078000730D5C2
:10454000DFF8AC91606909F14C09A8B1D9F8000015
:1045500040F00100C9F80000FEF79EFC074606E0A7
:10456000FEF79AFCC01B022801D90320D1E6D9F836
:1045700000008007F4D514E0D9F8000020F0010015
:10458000C9F80000FEF788FC074606E0FEF784FC49
:10459000C01B022801D90320BBE6D9F80000800720
:1045A000F4D42078800626D5A06990B1286840F41C
:1045B00080502860FEF770FC074606E0FEF76CFCB2
:1045C000C01B022801D90320A3E628688004F5D582
:1045D00011E0286820F480502860FEF75DFC074653
:1045E00006E0FEF759FCC01B022801D9032090E623
:1045F00028688004F5D4207840075DD53E4F3868A0
:1046000040F480703860FEF747FC814607E0FEF713
:1046100043FCA0EB0900642801D9032079E638683F
:10462000C005F4D5324FA0684837012812D0B0B188
:1046300005281DD0386820F001003860386820F067
:1046400004003860A06841F2883930B3FEF724FCDA
:1046500082461EE0386840F001003860F2E73868B2
:1046600020F001003860386820F004003860E9E785
:10467000386840F004003860386840F00100386065
:10468000E0E7FEF709FCA0EB0A00484501D903204A
:104690003FE638688007F4D50EE0FEF7FDFB824662
:1046A00007E0FEF7F9FBA0EB0A00484501D903201B
:1046B0002FE638688007F4D4616AB1B1D8F80000F9
:1046C0004FF6F87BDFF828A00AF1080AC0F3C20011
:1046D00003280AF10409AAF104087CD0022911D0A8
:1046E000286820F08070286008E0E5E01044025857
:1046F000284402580044025800480258FEF7CCFBF8
:10470000044689E0286820F080702860FEF7C4FB2A
:10471000074606E0FEF7C0FBC01B022801D90320B4
:10472000F7E528688001F5D4306840F2F33188431A
:10473000E16A40EA0110A16A08433060208E4FF61A
:10474000FF72616B401E491EC0F3080002EA41215E
:104750000843218F4FF4FE02491E02EA014108433B
:1047600094F83C10491E120202EA01610843CAF89B
:104770000000D8F8000020F00100C8F80000D9F8C7
:104780000000A16C20EA0B0040EAC100C9F800005B
:10479000D8F80000216C20F00C000843C8F8000095
:1047A000D8F80000616C20F002000843C8F800004F
:1047B000D8F8000040F48030C8F80000D8F80000B5
:1047C00040F40030C8F80000D8F8000040F4802021
:1047D000C8F8000000E023E0D8F8000040F0010035
:1047E000C8F80000286840F080702860FEF754FB8D
:1047F000044606E0FEF750FB001B022801D9032007
:1048000087E528688001F5D556E0FEF745FB001BDB
:10481000022801D903207CE528688001F5D44BE00B
:104820003268DAF80000012921D0A36A02F00301FE
:1048300099421CD1E16AC2F30512914217D1216B52
:10484000C0F30802491E8A4211D1616BC0F34622AF
:10485000491E91420BD1A16BC0F30642491E914201
:1048600005D1E16BC0F30660491E814201D00120F1
:104870004FE5D9F80000C0F3CC00A16C81421BD0F9
:10488000D8F8000020F00100C8F80000FEF704FB93
:104890000546FEF701FBA842FBD0D9F80000A16C49
:1048A00020EA0B0040EAC100C9F80000D8F8000077
:1048B00040F00100C8F8000000202AE5704770476A
:1048C000704710B50446002C03D094F83D0010B199
:1048D00007E0012010BD002084F83C00204600F0D5
:1048E00017F8022084F83D002068211D01F080FEA9
:1048F00001203D34E0726070A070E0702071607142
:10490000A071E07120726072A0722070002010BD52
:104910007047000090F83D10012901D00120704738
:10492000022180F83D100168CA6842F00102CA60A5
:104930000068184988421AD0B0F1804F17D0164944
:10494000884214D01549884211D0154988420ED0AA
:10495000144988420BD01449884208D01349884230
:1049600005D01349884202D0124988420CD181688F
:10497000114A114006290BD0B1F5803F08D00168DB
:1049800041F00101016003E0016841F001010160B3
:104990000020704700000140000400400008004073
:1049A000000C00400004014000180040004001409D
:1049B00000E0004000E400400700010070472DE9DE
:1049C000F04104462068C66805694FF00007A90752
:1049D00014D5B10712D5F91E016101202077206896
:1049E0008069800703D02046FFF7E8FF05E02046F6
:1049F00000F08EF8204600F08CF82777680717D56E
:104A0000700715D521686FF0040008610220207737
:104A10002068806910F4407F03D02046FFF7CEFF66
:104A200005E0204600F074F8204600F072F8277781
:104A3000280716D5300714D521686FF008000861E3
:104A4000042020772068C069800703D02046FFF744
:104A5000B5FF05E0204600F05BF8204600F059F86D
:104A60002777E80617D5F00615D521686FF01000F6
:104A70000861082020772068C06910F4407F03D0C7
:104A80002046FFF79BFF05E0204600F041F8204656
:104A900000F03FF82777E80708D0F00706D0216834
:104AA0006FF001000861204600F034F8280601D4B8
:104AB000A80408D5300606D521686FF402500861B5
:104AC0002046FFF7FCFEE80508D5300606D521682C
:104AD0006FF4807008612046FFF7F0FE680608D585
:104AE000700606D521686FF040000861204600F08E
:104AF0001BF8A8060AD5B00608D521686FF020007B
:104B000008612046BDE8F041FFF7DABEBDE8F0815C
:104B10007047704700680349884201D1FEF7C2B967
:104B20007047000000000140704790F88410012990
:104B300018D0012180F884102421C0F88810016861
:104B40000A680B6823F001030B6022F00051002279
:104B50004266036819602021C0F8881080F884201C
:104B6000002070470220704710B50446D4F88C002E
:104B7000202801D0022010BD51B14AB10120E066C9
:104B800000202067204602F00BFB014611B105E032
:104B9000012010BDE06E012802D00121084610BDA1
:104BA000226810201062206850E8002F42F01002A6
:104BB00040E80023002BF6D1F0E700002DE9FE4F7E
:104BC00005468A46FF248E484168A94201D1002447
:104BD00009E0C16DA94201D1012404E0D0F8B4007C
:104BE000A84200D10224874FDFF81882DFF8149220
:104BF0001837844EFF2C08F1300809F148097AD0A3
:104C0000DFF8FCC1ACF1220C1CF80400BAF1200F53
:104C100001D94FF0200A7C4904EB440201EB420128
:104C200021F810A076491C390B5D4FF0030B032BC4
:104C300003D20B5D5B1C0B550CE0DFF8C4E1AEF159
:104C40001F0E1EF80410491CB1FBFBF30BFB1311E4
:104C50000EF80410401CB0FBFBF10BFB11000CF82C
:104C600004006A481CF8041000EB4210202200EBFC
:104C700041112846FFF778FFD5F880000268B2425C
:104C800034D0BA4232D0424530D04A452ED05D4869
:104C9000603082422AD05B487830824226D0594820
:104CA0009030824222D05748A83082421ED05848C5
:104CB00082421BD056481830824217D054483030B8
:104CC000824213D05248483082420FD05048603060
:104CD00082420BD04E487830824207D04C48903008
:104CE000824203D04A48A830824205D1106820F0A1
:104CF0000800106004E01BE0106820F00400106061
:104D00000020029002A901220123CDE900013C48C4
:104D10000021A2402438806905F0C0FD029838B116
:104D20003C494FF080500860BFF34F8FBFF36F8F47
:104D30003949286888425BD1BAF10E0F58D13748FB
:104D40000178AA2912D1417B55290FD134494278E3
:104D50000A7082784A70C2788A700279CA70427981
:104D60000A718079487101202E4908700E222B4962
:104D70002D48FFF7F9FE2D480068B04234D0B84204
:104D800032D0404530D048452ED01E49603188424F
:104D90002AD01C497831884226D01A49903188425D
:104DA00022D01849A83188421ED0194988421BD008
:104DB00017491831884217D015493031884213D02D
:104DC0001349483188420FD01149603188420BD0D5
:104DD0000F497831884207D00D499031884203D07D
:104DE0000B49A831884205D1016821F00801016012
:104DF000BDE8FE8F016821F004010160F8E70000C2
:104E0000D00000241000024000580024E0030024D9
:104E10001004024004ED00E0001001403857002467
:104E2000A1000024A000002450070024380C002416
:104E3000704770B5044694F8840001281DD0012005
:104E400084F884002420C4F888002068056802687B
:104E500022F0010202602068826822F060620A4348
:104E60008260204601F090FC206805602020C4F894
:104E70008800002084F8840070BD022070BD70B5E9
:104E8000044694F8840001281DD0012084F8840091
:104E90002420C4F8880020680568026822F0010216
:104EA00002602068826822F060420A4382602046E5
:104EB00001F06AFC206805602020C4F8880000200A
:104EC00084F8840070BD022070BD7047704770B5D3
:104ED0000446D4F88800D4F88C60216889684FF0C3
:104EE0001005090618D5212816D12068083050E889
:104EF000001F21F0800140E80012002AF5D1E06F88
:104F000038B1FCF791FC20B1E06FFCF76BFF202873
:104F100009D0204601F094FE2068806840061FD525
:104F2000222E04D01CE0C4F89050032070BD2068ED
:104F3000083050E8001F21F0400140E80012002A2C
:104F4000F5D1D4F8800040B1FCF76EFC28B1D4F85C
:104F50008000FCF747FF202804D0204601F034FEF3
:104F6000002070BDC4F89050032070BD2DE9F05FA3
:104F700082460020DFF848B200EB400101EBC0019F
:104F80000BEBC1014968514509D100EB400202EB2E
:104F9000C00001210BEBC00080F8541003E0401C5E
:104FA000C0B20328E8D3DAF8001010200862504697
:104FB000FFF78DFFDAF800100F200862DAF8000022
:104FC000816941F0080181617D497F4D7E4E223922
:104FD0007D4F1835DFF8F0813036DFF8EC91483737
:104FE000DBF8043001F59570764A08F16008764CDC
:104FF000534509F1780948D10978006802EB41115D
:1050000020224068FFF7B0FDDAF880000068A04277
:1050100030D0A8422ED0B0422CD0B8422AD0404541
:1050200028D0484526D068499031884222D0664928
:10503000A83188421ED0654988421BD06349183187
:10504000884217D061493031884213D05F494831D6
:1050500088420FD05D49603188420BD05B4978317E
:10506000884207D059499031884203D05749A83126
:10507000884205D1016821F008010160BDE8F09F78
:10508000016821F004010160F8E7DBF85C3053456A
:1050900048D14978406C02EB4111603140682022D0
:1050A000FFF762FDDAF880000068A04230D0A84225
:1050B0002ED0B0422CD0B8422AD0404528D0484506
:1050C00026D041499031884222D03F49A8318842B8
:1050D0001ED03E4988421BD03C491831884217D027
:1050E0003A493031884213D03849483188420FD08C
:1050F0003649603188420BD034497831884207D034
:1051000032499031884203D03049A831884204D1D5
:10511000016821F008010160B0E7016821F0040195
:105120000160ABE7DBF8B4305345A7D18978D0F8FC
:10513000880002EB4111C03140682022FFF714FDC6
:10514000DAF880000068A04230D0A8422ED0B042E9
:105150002CD0B8422AD0404528D0484526D01A49FC
:105160009031884222D01849A83188421ED0174970
:1051700088421BD015491831884217D01349303165
:10518000884213D01149483188420FD00F4960310D
:1051900088420BD00D497831884207D00B499031B5
:1051A000884203D00949A831884204D1016821F01E
:1051B0000801016062E7016821F0040101605DE718
:1051C000D0000024E003002410000240100402403C
:1051D0002DE9F04104462368D86919689A6840F6B9
:1051E0000F0500EA0507002F0ED185060CD501F04A
:1051F000200502F08056354306D0616F00297DD02E
:105200002046BDE8F041084700260225002F76D051
:10521000D54FDFF858C3174001EA0C0C57EA0C0CC5
:105220006DD05FEAC07C0CD05FEAC15C09D54FF05D
:10523000010CC3F820C0D4F8903043F00103C4F847
:105240009030830709D5D30707D023681D62D4F8AF
:10525000903043F00403C4F8903043070AD5D307D5
:1052600008D0256804232B62D4F8903043F0020361
:10527000C4F8903003070CD501F020033B4308D05D
:10528000256808232B62D4F8903043F00803C4F853
:10529000903003050BD54B0109D525684FF4006309
:1052A0002B62D4F8903043F02003C4F89030D4F847
:1052B0009030002B3CD0800609D501F0200002F090
:1052C0008051084303D0616F09B120468847D4F864
:1052D000900021688968490602D410F0280F2DD06B
:1052E000204601F071FC20688068400622D52068C5
:1052F000083050E8001F21F0400101E018E023E0F1
:1053000040E80012002AF2D1D4F8800068B1984930
:105310000165D4F88000FCF745FC002808D0D4F8DB
:105320008000016DBDE8F04108472046FFF71EFEF2
:10533000BDE8F0812046FFF719FEF9E72046FFF7A8
:1053400015FEC4F89060F3E7E76E012F7ED1C70623
:105350007CD5CF067AD510201862206880684FF07F
:105360002003400673D5D4F8802082491068884213
:105370003AD080491831884236D07E49303188424F
:1053800032D07C49483188422ED07A4960318842F7
:105390002AD078497831884226D07649903188429F
:1053A00022D07449A83188421ED0734988421BD04C
:1053B00071491831884217D06F493031884213D073
:1053C0006D49483188420FD06B49603188420BD01B
:1053D00069497831884207D067499031884203D0C3
:1053E0006549A831884201D1406800E0406880B238
:1053F0004FF4807760B3B4F85C10814240D9A4F8D0
:105400005E00D069B84230D0206850E8001F21F417
:10541000807140E80012002AF6D12068083050E878
:10542000001F21F0010140E80012002AF5D1206898
:10543000083050E8001F21F0400140E80012002A27
:10544000F5D1C4F88C30E666206802E056E023E02F
:1054500016E050E8001F21F0100140E80012002A79
:10546000F2D1D4F88000FCF7DFF92567B4F85C00CE
:10547000B4F85E10401A81B22046FFF79FFB57E751
:10548000B4F85C108142FAD1D069B842F7D12567EF
:105490002046FFF793FB4BE734F85C0F6188401A16
:1054A00081B260885C3C0028E9D00029E7D0206800
:1054B00050E8002F22F4907240E80027002FF6D128
:1054C000294FFF432068083050E8002F3A4040E859
:1054D000002CBCF1000FF5D1C4F88C30E66666678D
:1054E000206850E8002F22F0100240E80023002B33
:1054F000F6D125672046FFF761FB19E7C50209D5FC
:10550000550207D54FF4801018622046BDE8F041DF
:10551000FFF7DCBC03060CD501F0800302F40002A7
:10552000134306D0A16F0029A9D02046BDE8F04161
:105530000847420606D54A0604D52046BDE8F04194
:1055400001F06CBB020206D54A0004D52046BDE836
:10555000F041FFF7BABCC00191D500298FDA20468F
:10556000BDE8F041FFF764BC010000102001000419
:1055700043690008100002401004024010B50446C0
:10558000002C03D0D4F8880010B107E0012010BD32
:10559000002084F88400204600F028F82420C4F875
:1055A00088002068016821F001010160A06A10B143
:1055B000204601F00DF9204601F05AFB012813D0D6
:1055C0002068416821F4904141602068816821F0A1
:1055D0002A0181602068016841F0010101602046D4
:1055E000BDE8104001F058B9012010BD2DE9F04F81
:1055F000B5B00446142130A8FBF774F8B82102A80E
:10560000FBF770F8FE490227FE4D4FF04008206876
:105610004FF0000ADFF8EC93083D0E15884273D175
:1056200002200021CDE90201CDF87CA002A8FDF7FF
:1056300003FF08B1FCF7E7F8D9F8000040F4801048
:10564000C9F80000D9F8000000F480100190286823
:1056500040F002002860286800F0020001904FF43A
:10566000405030903197CDF8C8A0CDF8CCA00E2096
:10567000349030A9E448FDF7F9FAE54DE348286095
:1056800041206860C5F808A0C5F80CA02E61C5F8D7
:1056900014A0C5F818A0C5F81CA0C5F820A0C5F82E
:1056A00024A02846FCF774FF08B1FCF7ACF8C4F856
:1056B0008050AC63D548D64D1830783528604220EC
:1056C0006860C5F80880C5F80CA02E61C5F814A064
:1056D000C5F818A0C5F81CA0C5F820A0C5F824A0DE
:1056E0002846FCF755FF08B1FCF78DF8E567AC6379
:1056F000002205213520FDF76FFC3520FDF75EFC0B
:1057000035B0BDE8F08FFFE7C249884272D102216F
:105710000020CDE90210CDF87CA002A8FDF78CFE98
:1057200008B1FCF770F8D9F8000040F08040C9F8E3
:105730000000D9F8000000F080400190286840F097
:1057400010002860286800F0100001904FF4C0702D
:1057500030903197CDF8C8A0CDF8CCA00720349078
:1057600030A9AD48FDF782FAA848A94D3038F03588
:1057700028604F206860C5F808A0C5F80CA02E610D
:10578000C5F814A0C5F818A0C5F81CA0C5F820A03D
:10579000C5F824A02846FCF7FBFE08B1FCF733F857
:1057A000C4F88050AC639D4D98481838286050204C
:1057B0006860C5F80880C5F80CA02E61C5F814A073
:1057C000C5F818A0C5F81CA0C5F820A0C5F824A0ED
:1057D0002846FCF7DDFE08B1FCF715F8E567AC6379
:1057E000002205215220FDF7F7FB5220FDF7E6FBD2
:1057F00086E7FFE78A49884271D102210020CDE97E
:105800000210CDF87CA002A8FDF716FE08B1FBF748
:10581000FAFFD9F8000040F00040C9F80000D9F8BC
:10582000000000F000400190286840F0100028605F
:10583000286800F010000190032030903197CDF8D7
:10584000C8A0CDF8CCA00820349030A97248FDF74C
:105850000DFA724D73487835286051206860C5F89C
:1058600008A0C5F80CA02E61C5F814A0C5F818A0B2
:10587000C5F81CA0C5F820A0C5F824A02846FCF750
:1058800087FE08B1FBF7BFFFC4F88050AC636548E2
:10589000624D1830F035286052206860C5F80880E5
:1058A000C5F80CA02E61C5F814A0C5F818A0C5F85D
:1058B0001CA0C5F820A0C5F824A02846FCF768FE67
:1058C00008B1FBF7A0FFE567AC6300220521532078
:1058D000FDF782FB5320FDF771FB11E7FFE752490B
:1058E000DFF82091884209F1080972D101200021D6
:1058F000CDE90201CDF880A002A8FDF79DFD08B119
:10590000FBF781FFD9F8000040F04000C9F8000023
:10591000D9F8000000F040000190286840F008002D
:105920002860286800F0080001904FF44040309053
:105930003197CDF8C8A0CDF8CCA00B20349030A979
:105940003A48FDF793F93A4D3648303028607420D4
:105950006860C5F808A0C5F80CA02E61C5F814A0B1
:10596000C5F818A0C5F81CA0C5F820A0C5F824A04B
:105970002846FCF70DFE08B1FBF745FFC4F8805040
:10598000AC6328482A4D4830783528607520686017
:10599000C5F80880C5F80CA02E61C5F814A0C5F89C
:1059A00018A0C5F81CA0C5F820A0C5F824A028465A
:1059B000FCF7EEFD08B1FBF726FFE567AC630022BC
:1059C00005219B20FDF708FB9B20FDF7F7FA97E6E2
:1059D000FFE718494FF0040B88427CD101210020D9
:1059E000CDE90210CDF880A002A8FDF725FD08B191
:1059F000FBF709FFD9F8000040F010001CE00000A0
:105A000000500040E844025800040258A000024040
:105A1000780800240078004000100258E0090024B3
:105A2000007C00401004024000180140000C0258A5
:105A3000480B002400100140C9F80000D9F800000C
:105A400000F010000190286840F0020028602868EB
:105A500000F0020001904FF4404030903197CDF8B3
:105A6000C8A0CDF8CCA0CDF8D0B030A96548FDF7DE
:105A7000FDF8664D6448286029206860C5F808A0D4
:105A8000C5F80CA02E61C5F814A0C5F818A0C5F87B
:105A90001CA0C5F820A0C5F824A02846FCF778FD76
:105AA00008B1FBF7B0FEC4F88050AC635648574DC0
:105AB0001830783528602A206860C5F80880C5F855
:105AC0000CA02E61C5F814A0C5F818A0C5F81CA03C
:105AD000C5F820A000E012E0C5F824A02846FCF795
