:020000040800F2
:10000000905B002445040008A1C50008F9BE000863
:1000100099C500082127000899ED0008000000009C
:1000200000000000000000000000000071CB00088C
:10003000A13600080000000011C7000839CC0008F4
:1000400063040008630400086304000863040008F4
:1000500063040008630400086304000863040008E4
:10006000630400086304000863040008B92700085B
:10007000C9270008D9270008E9270008F927000840
:10008000092800081928000863040008D936000868
:1000900063040008630400086304000863040008A4
:1000A0006304000899CE0008630400086304000894
:1000B0006304000863040008630400086304000884
:1000C0006304000863040008630400086304000874
:1000D000630400086304000879ED00086304000865
:1000E00063040008630400080000000063040008C3
:1000F000630400086304000863040008292800085A
:100100006304000863040008630400086304000833
:10011000F1D0000801D1000863040008630400085E
:10012000392800084928000863040008630400080F
:10013000630400086304000863040008E93600084B
:1001400000000000000000000000000000000000AF
:1001500063040008630400086304000889ED0008D4
:1001600063040008630400086304000863040008D3
:100170006304000863040008630400080000000032
:10018000630400086304000811D100086304000838
:1001900063040008630400086304000863040008A3
:1001A0006304000863040008630400080000000002
:1001B0006304000863040008630400086304000883
:1001C0006304000863040008000000000000000051
:1001D00000000000000000006304000800000000B0
:1001E000000000000000000000000000000000000F
:1001F0000000000000000000630400086304000821
:1002000063040008630400080000000063040008A1
:100210006304000863040008630400086304000822
:1002200063040008000000006304000800000000F0
:100230006304000863040008000000006304000871
:1002400063040008630400086304000863040008F2
:1002500063040008630400086304000863040008E2
:1002600063040008630400086304000863040008D2
:100270006304000863040008630400080000000031
:1002800063040008630400086304000863040008B2
:100290000000000063040008630400080000000080
:1002A0000000000063040008630400086304000801
:1002B0006304000863040008630400086304000882
:1002C00063040008630400086304000800F002F8F7
:1002D00000F0A8F814A696E8000CB244B344DA453E
:1002E00001D100F09FF8BAE80F000FA696E83000A1
:1002F000A5EB040504EB0607AAEB0704A7F1010729
:100300004FEA15154FEA3414A4F10104AC4201D3AD
:1003100000F088F813F0010F18BFFB1A43F0010337
:1003200000F001F8DBE718477C2801009C28010059
:10033000103A24BF78C878C1FAD8520724BF30C811
:1003400030C144BF04680C60704700007047000073
:100350000023002400250026103A28BF78C1FBD8CE
:10036000520728BF30C148BF0B6070476E2900F0AC
:100370003783702900F07984662912F05382652949
:1003800012F05082672912F04D82612912F04C82DE
:1003900003681B0A28BF41F08001692900F0E4824C
:1003A000642900F0E182752900F0DE826F2900F0F7
:1003B0000784782900F04584E92900F0A183E42925
:1003C00000F09E83F52900F09B83EF2900F0048460
:1003D000F82900F044840368DB0928BF41F080015C
:1003E000632901F00D82732901F01282E32901F0E3
:1003F0001D82F32901F02282002070471FB512F000
:1004000001FA01F0F5FA04000020002112F0DCF9F5
:10041000401C60600020002112F0C0F9E0601FBDA8
:1004200010B510BD01F0BFFA1146FFF7E7FF0EF05F
:100430003FFD01F01DFE03B4FFF7F2FF03BC01F026
:1004400075FE00000A4880470A4880470A4800476E
:10045000FEE7FEE7FEE7FEE7FEE7FEE7FEE7FEE774
:10046000FEE7FEE705480649064A074B70470000CD
:10047000B136000831CD0008CD02000890550024A7
:10048000905B0024905700249057002453EA020CFC
:1004900000F069802DE9F04B4FF00006002B1FBFE4
:1004A000B3FA83F503FA05F424FA05F65E4012BFA9
:1004B0001643B2FA82F502FA05F4C5F120051EBF13
:1004C00022FA05FC44EA0C04203556EA044C4FEAB3
:1004D000144418BF641C4FF000084FF0000990420C
:1004E00071EB030C39D3002919BFB1FA81F701FA76
:1004F00007F6B0FA80F700FA07F6C7F120071EBF2B
:1005000020FA07FC46EA0C062037B6FBF4FCA7EB02
:100510000507103F07F01F0BCBF120062CFA06F65B
:100520000CFA0BFB44BFB3460026202FA4BF5E4647
:100530004FF0000B5BEA060C08BF4FF0010B19EB04
:100540000B0948EB0608ABFB027C06FB02CC0BFB5D
:1005500003CCC01B71EB0C01C1E70B4602464146C0
:100560004846BDE8F08B13B5084318BF4FF0FF3085
:100570000146AFF30080BDE81C4070470FB41CB5C6
:10058000084B06AA7B4469460090059800F041FAA2
:1005900004460020694600F04FFA20461CBC5DF876
:1005A00014FB0000B104000070B5064600F06AF9C3
:1005B0000468054630460A22002100F07DFC2C60CC
:1005C00070BD0000014A00F0AFBC00000000002434
:1005D00040EA0103024630B59B0710D14FF00134C9
:1005E00000E008C208C91D1B9D4315EAC41FF8D0CE
:1005F00013F0FF0102F8011B0DD01B0AF8E711F8F8
:10060000013B002B02F8013B05D011F8013B002B08
:1006100002F8013BF3D130BD10B5431C02E010F8E5
:10062000011B71B18107FAD14FF0013202C88C1A57
:100630008C4314EAC211F9D0C01A0A0603D0C01EB6
:1006400010BDC01A10BD0A0401D0801E10BD0902E1
:10065000FCD0401E10BD40EA010370B59B072ED1AF
:100660004FF00136042A2AD308C810C99D1B9D43A8
:10067000121F15EAC61517D0D8B2E1B2401A50EAD7
:10068000056110D198B2A1B2401A50EA05410AD1D1
:1006900023F07F4024F07F41401A50EA052102D127
:1006A000180EA0EB146070BDA342DBD018BA21BABB
:1006B000884201D9012070BD4FF0FF3070BD0AB9EA
:1006C000002070BD10F8013B11F8014B63B1A3424B
:1006D0000AD1521E08D010F8013B11F8014B1BB192
:1006E000A34201D1521EEDD1181B70BD032A40F266
:1006F000308010F0030C00F0158011F8013BBCF1C4
:10070000020F624498BF11F801CB00F8013B38BFDB
:1007100011F8013BA2F1040298BF00F801CB38BFE9
:1007200000F8013B11F0030300F02580083AC0F007
:10073000088051F8043B083A51F804CBA0E80810AF
:10074000F5E7121D5CBF51F8043B40F8043BAFF3E2
:100750000080D20724BF11F8013B11F801CB48BF3C
:1007600011F8012B24BF00F8013B00F801CB48BF72
:1007700000F8012B704710B5203AC0F00B80B1E8AB
:100780001850A0E81850B1E81850A0E81850203AC6
:10079000BFF4F5AF5FEA027C24BFB1E81850A0E8CF
:1007A000185044BF18C918C0BDE810405FEA827CE9
:1007B00024BF51F8043B40F8043B08BF7047D20700
:1007C00028BF31F8023B48BF11F8012B28BF20F8A1
:1007D000023B48BF00F8012B704702F0FF0343EAD9
:1007E000032242EA024200F024B84FF0000204293A
:1007F000C0F0128010F0030C00F01B80CCF1040C50
:10080000BCF1020F18BF00F8012BA8BF20F8022B83
:10081000A1EB0C0100F00DB85FEAC17C24BF00F829
:10082000012B00F8012B48BF00F8012B70474FF057
:10083000000200B5134694469646203922BFA0E830
:100840000C50A0E80C50B1F12001BFF4F7AF09073C
:1008500028BFA0E80C5048BF0CC05DF804EB89002D
:1008600028BF40F8042B08BF704748BF20F8022B70
:1008700011F0804F18BF00F8012B70477047704788
:1008800070470000004870472000002410B5FFF7B3
:10089000F9FF006810BD10B50446FFF7F3FF0460D0
:1008A00010BD70B5044685690068C10601D53026C3
:1008B00000E02026C00707D070BDD4E901213046F2
:1008C0009047206A401C20626D1EF6D570BD70B541
:1008D000044685690078C00707D170BDD4E90121BD
:1008E00020209047206A401C20626D1EF6D570BD06
:1008F00009684A0501D540B27047C905FCD500B268
:10090000704709684A0501D5C0B27047C905FCD5D2
:1009100080B2704770B50C460546012A05D028788C
:10092000800600D5EA69002302E0012305E05B1C94
:10093000934202D2E05C0028F9D1A869E618C01AF7
:10094000A861286A184428622846FFF7AAFF04E035
:10095000D5E9012114F8010B9047B442F8D3284699
:10096000FFF7B5FF70BD00002DE9F04106460024F9
:1009700010687529314616A510D0FFF7B9FF002879
:1009800002DA404213A507E031688A0701D512A5B3
:1009900002E0490704D511A5012401E0FFF7B1FFEA
:1009A00000210A2206F1240709E0B0FBF2FCB0FBAB
:1009B000F2F302FB1C00303078541846491C002822
:1009C000F3D123462A463046BDE8F04100F028BB6B
:1009D000000000002D0000002B000000200000009F
:1009E00011680268006A530501D508700AE0D30552
:1009F00001D5088006E0130603D5C217C1E900023D
:100A000000E008600120704701694A1C0261087813
:100A1000704700B58FB0CDE901310021059105493E
:100A20007944CDE903101146684600F029F90FB06A
:100A300000BD0000E5FFFFFF0A6802F8010B0A6035
:100A4000704700002DE9FF5F15468A460446DFF82F
:100A5000AC80F8440027D8E900103E46CDE90010EC
:100A600010E03AF816106A4602A800F05AFF411C3E
:100A700007D02178890603D5E269391891420DD84B
:100A80000744761C2078800602D5E069B84205DD6F
:100A9000AE42E6DB3AF816000028E2D1A069C01B9E
:100AA000A0612046FFF7FDFED8E90010CDE9001057
:100AB000002017E03AF818106A4602A800F031FF4B
:100AC000B0F1FF3F81460BD000250DF1080B05E08A
:100AD000D4E901211BF8050090476D1C4D45F7D363
:100AE00008F10100B0428046E4DB206A384420620D
:100AF0002046FFF7ECFEBDE8FF9F0000D21E01007C
:100B00002DE9F0418046D21D22F007020025D2E9EE
:100B10000002F52915A614D0011E72F1000106DAB3
:100B20000023D0EB030063EB020211A608E0D8F823
:100B300000108B0701D50FA602E0490701D50EA6CC
:100B400001251146002408F1240704E000F01AFAF8
:100B500030323A55641C50EA0102F7D12B46324636
:100B600021464046BDE8F04100F05ABA00000000BE
:100B70002D0000002B0000002000000030B40021F8
:100B800000F1240408E002F00705D208303542EAFB
:100B90004372DB086554491C52EA0305F3D104682B
:100BA000002310A2250708D504F020040C4304D02C
:100BB000C46901230CA2641EC46130BC00F030BAC9
:100BC00010B5044621461068FFF79BFE02462046FA
:100BD000BDE810400023D1E7D21D22F00701D1E982
:100BE0000023CBE70000000030000000F0B40D4609
:100BF0000188090502D5214C7C4402E01F4C7C444D
:100C00000E34002100F1240608E002F00F0712095B
:100C1000E75D42EA03721B097754491C52EA030755
:100C2000F3D102780023120704D5702D06D009B144
:100C3000022311342246F0BC00F0F2B90123103433
:100C4000F8E770B504460D4621461068FFF759FED7
:100C5000024629462046BDE870400023C6E7D21D63
:100C600022F00703D3E90023C0E70368126843F0CA
:100C7000200303600823C3610023B7E7341D01008C
:100C80002DE9F05F894604464FF0000ADFF874B1A1
:100C9000FB44C0F820A02046E1688847002874D0B3
:100CA000252806D0D4E901219047206A401C206203
:100CB000F1E700265F462046E16888472028054680
:100CC00007DB312D05D2781910F8200C08B1064346
:100CD000F1E7B00701D526F00406C4F81CA00027F0
:100CE000C4F818A02A2D09D0284611F009FD38B300
:100CF00004EB8708303DC8F8185019E059F8041B78
:100D0000204604EB87029161E1688847012F054680
:100D100018D1E069002820DA26F020061DE0D8F876
:100D2000180000EB800005EB40003038C8F81800D0
:100D30002046E1688847054611F0E2FC0028EED124
:100D4000012F0AD02E2D08D12046E16888477F1C4C
:100D50000546022F46F02006C4DBA069002803DA0E
:100D6000404246F00106A061F00701D026F01006CF
:100D70006C2D0BD0682D09D04C2D39D06A2D35D073
:100D8000742D35D07A2D33D016E038E0E1682F4647
:100D900020468847B842054609D16C2F26D04FF42B
:100DA0008060E168064320468847054604E06C2FD2
:100DB0001AD04FF4807006430DB3A5F141001928F5
:100DC00002D8203546F400664A4629462046266069
:100DD0004E46FFF7CBFA80B101280BD0F61D26F066
:100DE000070000F1080956E74020E4E78020D8E733
:100DF0000020D6E706F104094DE7284652E7206AAD
:100E0000BDE8F09FC41C01000FB40B0010B54FF0FB
:100E100000048AB00FA900910E99CC60234C7C4449
:100E2000234A7A44CDE9064200D004236FF0004201
:100E3000CDE901321F4A7A446B46089202460020EF
:100E400011F054FD0AB010BC5DF814FBF0B5074674
:100E50004FF0FF301E4615460C463B4685B06A46AD
:100E60000091CDE9010131460020049004A8FFF76C
:100E7000CBFF04990346601825B109B1024600E092
:100E800022462A6000290ED0002B02DD0099814203
:100E900009D03B466A463146001B0094CDE9010467
:100EA00004A8FFF7B1FF05B0F0BD0000230A000061
:100EB0003D0A0000D50100002DE9F04791460F469C
:100EC00080460446002614F8015B2DB100F052F86C
:100ED0000068405DC007F6D12B2D02D02D2D18D013
:100EE000641E4A463946204600F0CCFC27B13968DA
:100EF000A14201D1C7F800804FF0020471050BD563
:100F00004042002803DDFFF7BDFC0460A007BDE8F8
:100F1000F08746F48066E4E70028F8DAFFF7B2FCD1
:100F200004606FF00040F2E72DE9F04115460E46EF
:100F3000040002D12C6804B90BA4204600F025FD62
:100F40000444207870B127463146384600F00DFD44
:100F50000444207810B1002004F8010B38462C60BE
:100F6000BDE8F0810027F9E7000000000048704765
:100F70002000002410B500F03BFD001D10BD00BF97
:100F80004918010030B5B0F10A0271F100034FEACF
:100F9000900E4EEA817EB0EB0E0061EB91014FEABC
:100FA000101E4EEA017E10EB0E0041EB11114FEACC
:100FB000102E4EEA016E10EB0E0041EB11214FEAAC
:100FC000104E4EEA014E10EB0E0041EB114140185D
:100FD00041F100014FEAD00040EA41704FEAD101EF
:100FE0004FEA810444EA907410EB800544EB01045D
:100FF0006D1944EB0404521BA3414FF0000348BF9A
:101000000A3200D530BD401C41F1000130BD10B5A1
:101010000446FFF7AFFF0068005D00F0010010BD5F
:101020002DE9F0470D4699469246044600F1240802
:101030000168880604D5E06921F01001216000E014
:101040000120A84201DD471B00E00027A1697A19B1
:1010500002EB0900081AA0612078C00602D42046DD
:10106000FFF71FFC002608E0D4E901211AF806006A
:101070009047206A401C761C20624E45F4DB2078A5
:10108000C0060AD52046FFF70CFC06E0D4E9012192
:1010900030209047206A401C2062381EA7F10107CB
:1010A000F4DC07E0D4E9012118F805009047206A34
:1010B000401C2062281EA5F10105F3DC2046FFF745
:1010C00006FC2078000602D50220BDE8F08701204A
:1010D000FBE72DE9FF4F0C461E464FF0FF378BB064
:1010E000D2E90001DDF860800A908A46C1F30A5512
:1010F00005B93D46002108464FF00000BAF1000F47
:1011000000F4400005DA00EB80004FF4400101EAF2
:1011100050004FEA9059B9F1010F00DDB9460A9825
:1011200050EA4A000ED044F61050A5F2FF35454370
:101130002F14B8F1000F1ED07542291E1EDDC9F113
:1011400000021CE0B8F1010F4FF0000001D0302187
:1011500003E0F24305E02154401CB042FBDB304683
:101160000022002121540B99C1F80880C1E9002018
:101170000FB0BDE8F08FBD1B6D1CDEE74A4600DAFC
:10118000694206A800F002FF06AB93E8070003AB34
:1011900083E8070050460A9910F074FD8DE80700B7
:1011A000A0F500501F3800900398002D0ADD42F290
:1011B0001F014A460844002303A90390684611F022
:1011C0001FF809E0A0F500504A461F38002303A984
:1011D0000390684611F03EF88DE807000004000C0B
:1011E00003D04FF0FF30410800E01046B8F1000F87
:1011F00003D00022009215461EE0751E05D4FFF7AD
:10120000C1FE303262556D1EF9D5B3460122084346
:1012100002D000227F1C04E02078302801D1002277
:101220007F1E002A099784D01DE0112D07DAFFF7F1
:10123000A9FE303262556D1C50EA0102F5D1084317
:1012400002D00098C8B10EE00021681E05E0235CC2
:10125000625C63542254401E491C8142F7DBAB465A
:10126000A81B401E0990002004F80B000B98099A57
:10127000C0F80880C0E9002B7AE711264FF000087B
:1012800057E72DE9F04F88460446D21D22F00701AA
:1012900091B0D1E90001CDE90A0111F027F9024628
:1012A0000B98C00F01D02D2007E02068810701D5E1
:1012B0002B2002E0202101EAC000032A099001D07E
:1012C000072A05DB03464146204600F095FB0BE16B
:1012D0002078800601D5E06900E00620B8F1650FAE
:1012E000814606D0B8F1660F18D0B8F1670F70D1FB
:1012F00031E00020B9F1110F009001DB112301E072
:1013000009F101030AAA01A90CA8FFF7E2FEDDE931
:101310000C70002609F10105834647E001204B4689
:1013200000904FF000470AAA01A90CA8FFF7D1FED0
:10133000DDE90DB00C995D46002610B909F10100F8
:101340000D18B9EB050003D4C0F1FF3609F1010512
:10135000A5EB09002BE0B9F1010F01DA4FF001090B
:101360000020B9F1110F0090484601DD112300E083
:1013700003460AAA01A90CA8FFF7ABFEDDE90C7031
:101380004D4600268346207800070AD4AB4500DA94
:101390005D4601A8012D04DD411911F8011C302919
:1013A00007D04F4502DA17F1040F04DA0120824614
:1013B0000FE06D1EEEE7002F02DCED1B3E4403E064
:1013C000781CA84200DD7D1CB81B00F1010A4FF01B
:1013D00000472078000703D4AA4501DB4FF0FF3A0D
:1013E0000021B7F1004F0DF143088DF8431024D0D0
:1013F00002202B23002F01DA7F422D230A21021E17
:10140000A0F1010000DC5FB197FBF1FC97FBF1F26A
:1014100001FB1C7C17460CF1300C08F801CDEEE7FF
:10142000A8F1010003702188090501D5452100E0DC
:101430006521A0F1010800F8011C09980FA9A1EB92
:101440000807FF1D00B10120411901EBEA70A169F5
:101450003844081A401EA0612078C00602D42046F5
:10146000FFF71FFA099828B1D4E901219047206AB3
:10147000401C20622078C00622D52046FFF711FAD2
:101480001EE0002E04DBB34502DD01A8805D00E014
:101490003020D4E901219047206A401C2062761C4C
:1014A000AAF101005FEA000A0AD100F0A1FAC068BF
:1014B0000168405CD4E901219047206A401C206209
:1014C000281EA5F10105DCDC07E0D4E9012118F8AC
:1014D000010B9047206A401C2062381EA7F10107CB
:1014E000F3DC2046FFF7F3F9032011B041E60000DA
:1014F0002DE9F04F04460D46D21D22F0070089B0B9
:10150000D0E900974846394610F0F0FF0246F80F40
:1015100001D02D2307E02068810701D52B2302E0AD
:10152000202101EAC0038DF820300BB1012000E03A
:101530000020032A824601D0072A04DB29462046E0
:1015400000F05AFA3FE12078800601D40D2500E032
:10155000E569C7F30A560D2D49DA00214FEA175BFA
:1015600008464FF00000002F00F4400007DA00EBBF
:1015700080004FF4400100EBD07001EA600081155B
:10158000012901DD4FF0FF3100224FEA850CBCF14B
:10159000180F06D31346ACF118004FF08052C2402A
:1015A00003E04FF4801323FA0CF30CF10C0CBCF1A4
:1015B000200F04D3ACF1200C09FA0CF001E007FA7B
:1015C0000CF000294FF0004801DD18B90FE00ED1F2
:1015D00040450CD319EB02095F4121B9404502D1C6
:1015E0009F4329EA0209BBEB175F00D0761C2088D5
:1015F000000502D57B48784402E07A4878441938DF
:1016000008AA302302F80A30037C0AF10101002EF7
:101610000AF1020A53546A4602DC4FF0300101E03D
:101620004FF031014FF001088DF8001002D0A6F202
:10163000FF3603E059EA470100D06B4E002D02DC73
:101640002178090704D54FF002082E218DF80110EA
:10165000C44600210BE0C7F303433F01C35C491CB0
:101660006D1E02F80830052908F1010801DA002D85
:10167000F1DC00210CE000EB1973491C1B786D1E96
:10168000082902F808304FEA091908F1010801DABF
:10169000002DF0DC21688B0602D516E0A8F10108C8
:1016A000E04505DD02EB080313F8013C302BF5D0D3
:1016B000B8F1000F09DD02EB080313F8013C2E2BF3
:1016C00003D1090701D4A8F10108002D05DD3E2151
:1016D00002F808106D1E08F10108407C002E02F887
:1016E000080008F1010804DA2D20764202F808000B
:1016F00002E02B2002F808000A214FF47A7086429B
:1017000008F101080BDB96FBF0F3303302F80830E8
:1017100096FBF0F308F1010800FB136601E0642E6C
:101720000CDB642096FBF0F3303302F8083096FBB4
:10173000F0F308F1010800FB136601E00A2E06DB56
:1017400096FBF1F0303002F8080008F1010896FB32
:10175000F1F001FB1060303002F80800A16908F1D7
:10176000010808EB050202EB0A00081AA0612078C4
:10177000C00602D42046FFF794F8216A08AE01EBB8
:101780000A00206204E0D4E9012116F8010B904719
:10179000BAF1010AF7D22078C00602D52046FFF739
:1017A00080F86E4609E016F8010B3E280FD0D4E908
:1017B00001219047206A401C2062B8F10108F2D252
:1017C0002046FFF784F809B00320BDE8F08F206AB7
:1017D0002844206203E0D4E90121302090476D1EA7
:1017E000EBD3F8E78213010002FCFFFF10B5436959
:1017F00013B1AFF3008001E0FFF78CF8012010BDBA
:10180000127800F124010A7000224A700122EDE7EB
:1018100011684FF0FF32E9E710B5436913B1AFF338
:10182000008001E0FFF70EF9012010BD128800F1E1
:10183000240182840022C2840122EDE711684FF066
:10184000FF32E9E7426842B1016811F8013B23B178
:10185000521EC0E90012184670470121C160881E5F
:10186000704742685AB1C368016843B983688B42C4
:1018700005D0491E521CC0E90012002070474FF0ED
:10188000FF3070472DE9F05F824615468B460027F2
:101890000AF10104B9460078302801D09DB113E067
:1018A00014F8010B0127782803D0582801D045B13E
:1018B0000AE00DB1102D07D1002714F8010B1025F7
:1018C00002E0082500E00A250026B0460EE005FBF0
:1018D000080005FB06F101271FFA80F801EB10460E
:1018E000B6F5803F00D3B94614F8010B294600F045
:1018F000C3F80028EBDABBF1000F05D00FB1641E6E
:1019000000E05446CBF80040B9F1000F06D0FEF7D6
:10191000B9FF02210160C81EBDE8F09F48EA0640F9
:10192000FAE72DE9F04116460C460546FFF722FB83
:10193000036893F80101012807D0FF2C12D8185D25
:1019400080B101202C70BDE8F081D3F80701324648
:10195000214603F20713C7182846BC46BDE8F041EC
:10196000002360474FF0FF30EDE730B503461D78A8
:101970001DB10A4603E0AC4201D1181A30BD12F87D
:10198000014B002CF7D15B1CF1E730B503461D7805
:101990003DB10A4612F8014B1CB1AC42FAD15B1CB6
:1019A000F5E7181A30BD7546FFF7E0FAAE460500B8
:1019B0006946534620F00700854618B020B5FEF76B
:1019C00051FDBDE820404FF000064FF000074FF0FA
:1019D00000084FF0000BAC46ACE8C009ACE8C00909
:1019E000ACE8C009ACE8C00921F007018D4670479A
:1019F00000487047400000242DE9F0411F4604468E
:101A000003260168072A01F4006004DB08B116A56B
:101A100005E016A503E008B115A500E015A521F025
:101A200010002060A069C01EA0610FB1401EA0611F
:101A30002046FEF736FF4FB1D4E9012138469047E2
:101A4000206A401C2062C01C206206E0206AFAE77F
:101A5000D4E9012115F8010B9047761EF8D22046F3
:101A6000FEF735FFBDE8F0814E414E006E616E001D
:101A7000494E4600696E66003A2800D2303820F0A0
:101A80002002412A01D3A2F13700884201D34FF04E
:101A9000FF3070472DE9FF4F06468BB00878FF28CE
:101AA00006D0491C2D2805D000244FF0000908E07D
:101AB00000200CE00124F8E709EB8903491C00EB46
:101AC00043090878FF28F7D114B1C9F10000814615
:101AD000107800252C46AA4629462D2801D02B280F
:101AE00004D1521C2D2813D0002082468B4610783A
:101AF000FF280FD04FF0000C0A21521CA5FB0178E3
:101B000004FB018105FB0C11C5194BEB0104EEE749
:101B10000120EAE7002108464FF00000BAF1000F6B
:101B200002D000EB80004008C0F38157012F01DD97
:101B30004FF0FF370E9955EA040009EB01080BD06E
:101B40004FF0020918F5FA7F16DA4FEACA70002F33
:101B5000706008DD012007E04FEACA70C6E900B0F6
:101B60000FB0BDE8F08F00203060FEF78BFEC0F8AC
:101B700000901821084616E0B8F5FA7F18DD002F0E
:101B800002DAF748784401E0F6487844D0E90010DA
:101B9000C6E9001040EACA707060FEF773FEC0F834
:101BA0000090142108460FB0BDE8F04F10F037BE8A
:101BB000002108464FF00000B8F10001099002DA58
:101BC000C7F1000200E03A4601DAC8F1000106A8B8
:101BD00000F0DCF906AB93E8070003AB83E80700ED
:101BE00044F23E005BEA04010090584604D144F2FE
:101BF0001E012C465D460091210C0904014306D1CB
:101C00000099240444EA15442D041039009104F08D
:101C10007F41014306D10099240244EA15642D0254
:101C20000839009104F07041014306D10099240164
:101C300044EA15742D01091F009104F0404101434D
:101C400006D10099A40044EA9574AD00891E009164
:101C500004F00041084304D100986D196441401E0E
:101C600000904FF001033A466846B8F1000FCDE905
:101C7000014503A902DD10F002FB01E010F0D5FAE6
:101C8000BAF1000F04460D4601D084F00044002153
:101C900008464FF00000099940F2FF77484010F0E5
:101CA0000C0F07D124F00040284303D0C4F30A509E
:101CB000B84212D1FEF7E6FDC0F80090C4F30A5016
:101CC000B8420AD1A8487844D0E90010C6E900100B
:101CD00004F000410843706042E7C6E900543FE762
:101CE0002DE9FF4F1F464FF0000A4FF0FF384546E1
:101CF00091B0D7E90146CDF83CA0FFF779FEC06866
:101D00000168405C1090B96912986D1C8847396A67
:101D1000814688470028F6D1B9F1FF3F0AD0002E4E
:101D200024F4D06411DDB9F12B0F08D0B9F12D0FD7
:101D30000BD102E0404615B013E744F48064B96962
:101D400012986D1C8847761E8146600504A901D54E
:101D50002D2000E02B20002E01F1010B0DF13008A9
:101D60008DF810003FDDB9F1690F08D0B9F1490FC6
:101D700005D0B9F16E0F02D0B9F14E0F1CD13B4620
:101D800001A8009580E85002DDE912126FF0020010
:101D900010F0B0FDC11CCED10EE0B96912986D1CD7
:101DA000884781461398761E44F4007405600F98A6
:101DB000401C002E0F9016DDB9F1300FEDD0B9F1B7
:101DC000780F02D0B9F1580F0DD10F9801280AD120
:101DD0003B46CDE90054DDE91212001F029610F0D7
:101DE00087FDC11CA7D1109989453ED144F08004DC
:101DF00006E01399681CAAF1010A44F40074086013
:101E0000B9696D1C1298761E884730288146F0D03B
:101E10002BE01099894505D1200603D4761E44F0A5
:101E2000800418E0484610F06BFC08B3761E0DF1F4
:101E300023029345A9F1300044F4007406D20BF854
:101E4000010B200607D5AAF1010003E0200602D409
:101E50000AF101008246A00502D51399681C0860AA
:101E6000B96912986D1C88478146002ED1DC53E079
:101E7000002E51DDB9F1650F02D0B9F1450F4BD1FC
:101E8000A00549D5B9696D1C1298761E24F44074DA
:101E90008847002E81460CDD2B2804D0B9F12D0F88
:101EA00007D144F48074B96912986D1C8847761E76
:101EB0008146E00501D52D2100E02B2108F8011B0A
:101EC000CDF8008021E0761E0DF13901884544F4FB
:101ED00000740CD2A9F1300010F0FF0088F8000067
:101EE00002D10099884509D908F1010806E0E0050A
:101EF00001D51E4801E042F20F708246B96912987E
:101F00006D1C8847814613980560002E04DD484605
:101F100010F0F6FB0028D6D1F96912988847FF2007
:101F200053468BF8000088F8000000200A900B90C0
:101F300004AA0CA90AA8FFF7ADFDA00502D46FF012
:101F40000100F8E614F0240F12D0E0071CD1386825
:101F5000DDE90A12031D3B600068C0E9001213E0CE
:101F60004410010036100100FA0E0100F1D8FFFF05
:101F70000AA9684610F068FBE00705D13868009AA6
:101F8000011D3960006802602846D4E62DE9F0475B
:101F9000814616468AB0354878440DC88DE80D0054
:101FA00032487844801C03AC0DC884E80D0041F62B
:101FB0009B300844372190FBF1F290FBF1F5A5F13D
:101FC000800501FB12041B3C02D56442012000E0A5
:101FD0000020DFF898A080460027FA44AAF1BE0A44
:101FE0000EE0E0070AD03246684607EB47010123BE
:101FF0000AEB810110F02EF98DE8070064107F1CB8
:10200000002CEED1194F7F44AE3F19E0E80715D000
:1020100007EB04100DF1180A90E80E008AE80E0094
:10202000C068F04201D1981908903246012306A9F0
:1020300003A810F00FF903AB83E807006D10641CD0
:10204000002DE3D14FF0010332466946B8F1000F8D
:1020500003A802D010F0D4F801E010F0FBF8C9E9B1
:102060000001C9F808200AB0BDE8F087700A010035
:1020700010B50446AFF300802046BDE81040FEF7DF
:10208000DAB900000000000030B44FF0013C50F815
:10209000042BCCFA52F451F8043BD51A20D1FCB9E8
:1020A00050F8042BCCFA52F451F8043BD51A17D14E
:1020B000B4B950F8042BCCFA52F451F8043BD51AB9
:1020C0000ED16CB950F8042BCCFA52F451F8043B01
:1020D000D51A05D1002CDAD030BC4FF00000704783
:1020E00029BAB1FA81F111F01801D1F12000844030
:1020F000F2D1CA40CB4012F0FF0213F0FF0330BC14
:10210000D01A7047B2F120030AD5C2F1200301FAB8
:1021100002F120FA03F341EA030100FA02F07047EA
:1021200000FA03F14FF00000704700000149182049
:10213000ABBEFEE7260002002DE9FF4F1F464FF021
:102140003C0987B04FF00042DDE9141001F10108AD
:10215000DDF858A002EA4050039000200590834625
:10216000054604460490B969461E08988847AAF1B6
:10217000010A0290BAF1000F3BDD02982E2815D01B
:102180001021FFF779FC00282EDB4FF0010B059999
:10219000014317D0B9F1000F0BDB4A46C117FFF717
:1021A000B1FF05430C43A9F1040905E001200490A7
:1021B0000BE008B145F0010501200590049820B915
:1021C000361D02E0049800B1361FB969089808F17D
:1021D00001088847BBF1000FAAF1010A0290C9D09B
:1021E0000999C1F80080C5E70298702808D05028E6
:1021F00006D0F96908988847BBF1000F14D04FE06A
:10220000002002900120BBF1000F049009D0B969B1
:10221000089808F101088847AAF10109B9F1000FEF
:1022200007DCF969089888476FF001000BB0BDE83A
:10223000F08F2B2804D02D280CD14FF0FF300490C4
:10224000B969089808F101088847A9F10109B9F1AD
:10225000000FE6DD411CE4D00A21FFF70DFC002849
:10226000DFDB029908F1010801EB810100EB41007D
:102270000290B969089888470A21FFF7FDFB099A7F
:10228000A9F10109B9F1000FC2F8008001DD0028B1
:10229000E7DAF969089888470499029800FB016613
:1022A00055EA040004D004F04041090002D006E0E1
:1022B000039898E0A40044EA9574AD00B61E04F0BB
:1022C0000041080002D16D196441761E159810F086
:1022D000240F03D04FF00B095C4803E04FF02809AE
:1022E0006FF07D008246564507DAAAEB0601894465
:1022F000B9F1410F01DD4FF0410901200021A9F1A1
:102300000102FFF7FFFE024628400B46214008432A
:1023100001D0012100E00021501E029143F1FF3164
:1023200028402140084301D0012000E0002002990C
:10233000834651EA0B014FD0002108464FF00000C0
:10234000039900F4400039B100EB80004FF44001E4
:1023500000EBD07001EA60008015012802DD4FF02B
:10236000FF3000E013D0401C36D0029860B3BBF1C0
:10237000000F0CD14A4601200021FFF7C3FE284080
:102380002140084301D0012000E00020E0B10120FD
:102390004A460021FFF7B6FE034640190A4661414E
:1023A0002D1A8C4111D3B9F1400F09DD159810F0A9
:1023B000240F02D0AAF1340603E0AAF1170600E0C8
:1023C000761C00254FF0004406E05B1E42F1FF3210
:1023D00020EA030521EA0204CAF10100B04206DA4C
:1023E0001B49039808430190002000900EE0039AD7
:1023F000C4F3D321E80A0A43164940EA44500A4389
:102400003146CDE90002684610F027F9159810F022
:10241000240F0BD01598C00715D13868DDE90012DC
:10242000031D3B600068C0E900120CE002A8694689
:1024300010F00AF91598C00705D13868029A011DF5
:102440003960006802604046F0E6000002FCFFFFD1
:102450000000F07F0000F03F2DE9FF4F92461D463F
:1024600085B04FF00041DDE9124BDDE914727F1EAB
:1024700001EA4B50414940F0FF4940EA0108002180
:1024800022F020004928049102D04E2828D04CE0A8
:102490003BA0012607C88DE80700A9690698641CBF
:1024A00088477F1E014606D41DF8060018B121F0AA
:1024B000200181420BD0E96906988847032E34D069
:1024C000082E32D06FF0010009B0BDE8F08F761C05
:1024D000032E01D0082EE0D1601CCAF80000DCE712
:1024E000A9690698641C88477F1E2AD420F0200022
:1024F000412826D1A9690698641C88477F1E20D4EC
:1025000020F020004E281CD1A9690698641C884739
:102510007F1E48F4002849F48009CAF8004001D41D
:10252000282806D0E969069888475FEACB7012D060
:1025300022E0A9690698641C88477F1E01D4002800
:1025400003DAE96906988847BCE72928F1D1641CB9
:10255000CAF80040E9E71BF0240F07D02868049967
:10256000031D2B600068C0E9001805E02868021D03
:102570002A600068C0F800902046A5E70000F07FC0
:10258000494E46494E49545900000000704700002A
:1025900080B588B0079001220492104611460DF0D4
:1025A0002FFE04980DF0D8FD642005900EF0D8F8A9
:1025B00038200DF009FE05980EF0D2F80B200DF032
:1025C000E7FD05980EF0CCF89FED430A0DF044FEB0
:1025D00005980EF0C5F840F26C700DF0A1FD05985D
:1025E0000EF0BEF80EF0B8FF0690FFE740F2642050
:1025F000C2F200400078012809D1FFE740F26421CF
:10260000C2F200410020087000F0DEFEFFE740F259
:10261000F000C2F20040009090ED000AB8EEC00A4F
:1026200040F68830C2F20040B0F9000001EE100A16
:10263000F8EEC10A40F21810C2F20040019009F011
:10264000EBFF009890ED010AB8EEC00A40F690301A
:10265000C2F20040B0F9000001EE100AF8EEC10A23
:1026600040F23C10C2F20040029009F0D5FF009801
:1026700090ED020AB8EEC00A40F69830C2F200406F
:10268000B0F9000001EE100AF8EEC10A40F2601045
:10269000C2F20040039009F0BFFF01980299039A2B
:1026A00090ED070ABDEEC00A10EE100A91ED070A80
:1026B000BDEEC00A10EE101A92ED070ABDEEC00A78
:1026C00010EE102A002300F02FF8FFE706A80A21D9
:1026D0000EF09AFEFFE789E7000086420000000046
:1026E00080B582B001900EF037FF0090FFE740F216
:1026F0006420C2F200400078012809D1FFE740F2CF
:102700006421C2F200410020087000F05DFEFFE786
:10271000FFE768460A210EF077FEFFE7E7E70000D3
:10272000FFE7FEE70000000080B586B0ADF81600B8
:10273000ADF81410ADF81220ADF8103041F2AE1023
:10274000C2F20040007890B1FFE740F20401C2F20B
:1027500000410B6841F24A10C2F2004041F27C1283
:10276000C2F20042834208BF10460860FFE740F211
:102770000400C2F2004002900068BDF91620BDF9C5
:102780001430BDF91210BDF910E0EC46CCF804E0AD
:10279000CCF8001042F6F521C0F60101FDF7EEFE7F
:1027A000029800680390FDF737FF0146039889B24D
:1027B0000AF006FA06B080BD80B540F26820C2F289
:1027C000004002F019F980BD80B540F2E020C2F26D
:1027D000004002F011F980BD80B540F25830C2F2DD
:1027E000004002F009F980BD80B540F2D030C2F25D
:1027F000004002F001F980BD80B540F24840C2F2CD
:10280000004002F0F9F880BD80B540F2C040C2F24D
:10281000004002F0F1F880BD80B540F23850C2F2BD
:10282000004002F0E9F880BD80B540F2B050C2F23D
:10283000004002F0E1F880BD80B540F2A060C2F235
:10284000004002F0D9F880BD80B540F22860C2F2A5
:10285000004002F0D1F880BD83B002900298016878
:1028600001201022C4F202029142009000F0A380E5
:10287000FFE70298016801202822C4F20202914277
:10288000009000F09880FFE7029801680120402244
:10289000C4F202029142009000F08D80FFE702989E
:1028A000016801205822C4F202029142009000F017
:1028B0008280FFE70298016801207022C4F20202C0
:1028C0009142009077D0FFE70298016801208822AA
:1028D000C4F20202914200906DD0FFE702980168B5
:1028E0000120A022C4F202029142009063D0FFE7CF
:1028F000029801680120B822C4F2020291420090BD
:1029000059D0FFE702980168012040F21042C4F25A
:102910000202914200904ED0FFE702980168012028
:1029200040F22842C4F202029142009043D0FFE7F5
:1029300002980168012040F24042C4F20202914232
:10294000009038D0FFE702980168012040F2584219
:10295000C4F20202914200902DD0FFE70298016874
:10296000012040F27042C4F202029142009022D053
:10297000FFE702980168012040F28842C4F2020297
:102980009142009017D0FFE702980168012040F2C1
:10299000A042C4F20202914200900CD0FFE70298DC
:1029A00000684FF64831CBF6FD710844B0FA80F06C
:1029B00040090090FFE70098C00740B3FFE7029886
:1029C000007810384AF6AB21CAF6AA21A0FB011004
:1029D00000090190019800F0070142F68020C0F63E
:1029E0000100405C0299C8650198042807D3FFE7FD
:1029F00002990868042262F30900886506E00299DA
:102A0000086840F2FF3290438865FFE705E00299CD
:102A1000086820F0FF008865FFE70298806D03B02A
:102A2000704700000000000084B003900398006825
:102A3000019003980168012045F20842C5F60202A0
:102A4000914200904ED0FFE703980168012045F2C3
:102A50001C42C5F602029142009043D0FFE7039862
:102A60000168012045F23042C5F602029142009011
:102A700038D0FFE703980168012045F24442C5F6CB
:102A80000202914200902DD0FFE7039801680120D7
:102A900045F25842C5F602029142009022D0FFE76B
:102AA00003980168012045F26C42C5F6020291428A
:102AB000009017D0FFE703980168012045F280429B
:102AC000C5F60202914200900CD0FFE7039800681F
:102AD0004AF66C31CAF2FD710844B0FA80F0400940
:102AE0000090FFE70098C00710B3FFE70398007855
:102AF00008384CF6CD41CCF6CC41A0FB01100009C2
:102B00000290029945F60000C5F6020000EB810034
:102B100003990866039945F68000C5F602004866E9
:102B2000029800F01F01012088400399886635E073
:102B30000398007810384AF6AB21CAF6AA21A0FB08
:102B4000011000090290019840F2B841C4F202015C
:102B500088420CD8FFE7019840F21041C4F202010C
:102B6000884204D3FFE7029808300290FFE70299F9
:102B700040F60000C4F2020000EB810003990866F1
:102B8000039940F68000C4F202004866029800F003
:102B90001F010120884003998866FFE704B0704751
:102BA00083B002900298007901900198002800F00B
:102BB0008A80FFE70198082800F28580FFE70298E5
:102BC0000168012045F20842C5F6020291420090D8
:102BD0004ED0FFE702980168012045F21C42C5F67D
:102BE00002029142009043D0FFE702980168012061
:102BF00045F23042C5F602029142009038D0FFE71C
:102C000002980168012045F24442C5F60202914251
:102C100000902DD0FFE702980168012045F258424C
:102C2000C5F602029142009022D0FFE702980168A7
:102C3000012045F26C42C5F602029142009017D085
:102C4000FFE702980168012045F28042C5F60202C2
:102C5000914200900CD0FFE7029800684AF66C3170
:102C6000CAF2FD710844B0FA80F040090090FFE715
:102C70000098C00780B1FFE7019945F6FC00C5F652
:102C8000020000EB81000299C866029945F64010E7
:102C9000C5F6020008670FE0019940F6FC00C4F297
:102CA000020000EB81000299C866029940F64010CC
:102CB000C4F202000867FFE70198411E0120884026
:102CC00002994867FFE703B070470000000000006A
:102CD00085B0049000208DF80F000498806918BB1F
:102CE000FFE70498806A029003281BD80299DFE866
:102CF00001F0020D0218049890F82F00C00720B1CF
:102D0000FFE701208DF80F00FFE70CE00498C06A90
:102D1000B0F1C07F04D1FFE701208DF80F00FFE77D
:102D200001E000E0FFE747E004988069B0F5005F4C
:102D300026D1FFE70498806A019003281ED80199E4
:102D4000DFE801F00206021101208DF80F0016E005
:102D5000049890F82F00C00720B1FFE701208DF8FC
:102D60000F00FFE70BE00498C06AB0F1C07F04D108
:102D7000FFE701208DF80F00FFE700E0FFE71AE012
:102D80000498806A0090032804D3FFE70098032882
:102D900004D00EE001208DF80F000BE0049890F8AD
:102DA0002F00C00720B1FFE701208DF80F00FFE7DB
:102DB00000E0FFE7FFE7FFE79DF80F0005B0704771
:102DC00089B008900791069205930898806D049049
:102DD0000898806D03900898016801201022C4F2C1
:102DE00002029142029000F00381FFE70898016817
:102DF00001202822C4F202029142029000F0F880E1
:102E0000FFE70898016801204022C4F202029142C3
:102E1000029000F0ED80FFE7089801680120582239
:102E2000C4F202029142029000F0E280FFE70898AB
:102E3000016801207022C4F202029142029000F067
:102E4000D780FFE70898016801208822C4F20202B7
:102E50009142029000F0CC80FFE7089801680120C1
:102E6000A022C4F202029142029000F0C180FFE76A
:102E7000089801680120B822C4F20202914202902F
:102E800000F0B680FFE708980168012040F2104288
:102E9000C4F202029142029000F0AA80FFE7089873
:102EA0000168012040F22842C4F2020291420290DD
:102EB00000F09E80FFE708980168012040F2404240
:102EC000C4F202029142029000F09280FFE708985B
:102ED0000168012040F25842C4F20202914202907D
:102EE00000F08680FFE708980168012040F27042F8
:102EF000C4F20202914202907AD0FFE7089801687A
:102F0000012040F28842C4F20202914202906FD046
:102F1000FFE708980168012040F2A042C4F20202D3
:102F20009142029064D0FFE708980168012040F2C6
:102F3000B842C4F202029142029059D0FFE70898C9
:102F40000168012045F20842C5F602029142029052
:102F50004ED0FFE708980168012045F21C42C5F6F3
:102F600002029142029043D0FFE7089801680120D5
:102F700045F23042C5F602029142029038D0FFE796
:102F800008980168012045F24442C5F602029142C8
:102F900002902DD0FFE708980168012045F25842C1
:102FA000C5F602029142029022D0FFE7089801681C
:102FB000012045F26C42C5F602029142029017D000
:102FC000FFE708980168012045F28042C5F6020239
:102FD000914202900CD0FFE7089800684AF66C31E5
:102FE000CAF2FD710844B0FA80F040090290FFE790
:102FF0000298C00770B1FFE70898416E806E486084
:103000000898C06E28B1FFE70898016F406F4860CC
:10301000FFE7FFE70898016801201022C4F20202CE
:103020009142019000F0A380FFE708980168012019
:103030002822C4F202029142019000F09880FFE73A
:103040000898016801204022C4F2020291420190D6
:1030500000F08D80FFE70898016801205822C4F233
:1030600002029142019000F08280FFE70898016817
:1030700001207022C4F202029142019077D0FFE752
:103080000898016801208822C4F20202914201904E
:103090006DD0FFE7089801680120A022C4F2020267
:1030A0009142019063D0FFE7089801680120B8229F
:1030B000C4F202029142019059D0FFE708980168DA
:1030C000012040F21042C4F20202914201904ED01F
:1030D000FFE708980168012040F22842C4F202028A
:1030E0009142019043D0FFE708980168012040F227
:1030F0004042C4F202029142019038D0FFE70898A2
:103100000168012040F25842C4F20202914201904B
:103110002DD0FFE708980168012040F27042C4F208
:1031200002029142019022D0FFE708980168012035
:1031300040F28842C4F202029142019017D0FFE7A8
:1031400008980168012040F2A042C4F202029142B4
:1031500001900CD0FFE7089800684FF64831CBF695
:10316000FD710844B0FA80F040090190FFE7019832
:10317000C00750B3FFE70898C06D00F01F013F2063
:1031800088400499886008980168086820F48020C5
:103190000860059808990968486008988068402880
:1031A00009D1FFE706980899096888600798089987
:1031B0000968C86008E00798089909688860069857
:1031C00008990968C860FFE782E008980168012053
:1031D00045F20842C5F60202914200904ED0FFE748
:1031E00008980168012045F21C42C5F6020291428E
:1031F000009043D0FFE708980168012045F2304273
:10320000C5F602029142009038D0FFE708980168A5
:10321000012045F24442C5F60202914200902DD0B1
:10322000FFE708980168012045F25842C5F60202FE
:103230009142009022D0FFE708980168012045F2F2
:103240006C42C5F602029142009017D0FFE7089841
:103250000168012045F28042C5F6020291420090C9
:103260000CD0FFE7089800684AF66C31CAF2FD718D
:103270000844B0FA80F040090090FFE70098C007CA
:1032800020B3FFE70898C06D00F01F0101208840BF
:10329000039948600598089909684860089880680B
:1032A000402809D1FFE706980899096888600798BF
:1032B00008990968C86008E0079808990968886053
:1032C000069808990968C860FFE700E0FFE7FFE794
:1032D00009B070470000000080B582B08DF807008B
:1032E0009DF80700242814D1FFE740F28801C2F2BC
:1032F00000410120087040F28901C2F20041002023
:10330000087040F29C10C2F200406421FDF76DFA93
:1033100056E040F28800C2F20040007801284ED109
:10332000FFE79DF8070023281DD1FFE740F2880141
:10333000C2F200410020087040F28901C2F200414F
:10334000087040F26421C2F200410120087040F28E
:103350000020C2F2004040F29C11C2F200416422FF
:10336000FDF7C4F92AE040F28900C2F2004000787B
:1033700062280FDCFFE79DF8070040F28903C2F2E4
:1033800000431A78511C197040F29C11C2F200419E
:10339000885412E040F28801C2F200410020087017
:1033A00040F28901C2F20041087040F29C10C2F262
:1033B00000406421FDF719FAFFE7FFE7FFE7FFE7A9
:1033C00002B080BD0000000080B5CCB000208DF8B8
:1033D0002F0142F68C30C0F6010040F20021C2F20B
:1033E00000410422FDF737F9002866D1FFE740F2DB
:1033F0000020C2F20040FDF70FF905388DF82F01CB
:1034000000208DF82E01FFE79DF82E019DF82F1169
:10341000884214DAFFE79DF82E2140F20020C2F224
:1034200000401044407940F28A01C2F200418854C1
:10343000FFE79DF82E0101308DF82E01E4E79DF89D
:103440002F2140F28A01C2F2004108910020099028
:10345000885437A82821FDF7C8F9089942F6F222C6
:10346000C0F6010241A80CF017FF09983690FFE75B
:103470003698032820DCFFE7369A02EB820137A852
:10348000079000EB410041A951F82210FDF7A0F888
:103490000798369901EB810100EB4100FDF784F8B4
:1034A000369A40F2F001C2F2004141F82200FFE7F3
:1034B000369801303690DBE7EDE042F68730C0F613
:1034C000010040F20021C2F200410422FDF7C3F8DE
:1034D000002866D1FFE740F20020C2F20040FDF76D
:1034E0009BF805388DF82F0100208DF8D700FFE7F5
:1034F0009DF8D7009DF82F11884214DAFFE79DF858
:10350000D72040F20020C2F200401044407940F23F
:103510008A01C2F200418854FFE79DF8D7000130CC
:103520008DF8D700E4E79DF82F2140F28A01C2F21E
:103530000041059100200690885421A82821FDF71C
:1035400054F9059942F6F222C0F601022BA80CF0BC
:10355000A3FE06982090FFE72098032820DCFFE7D1
:10356000209A02EB820121A8049000EB41002BA9D4
:1035700051F82210FDF72CF80498209901EB8101F5
:1035800000EB4100FDF710F8209A40F20011C2F262
:10359000004141F82200FFE7209801302090DBE74E
:1035A00078E042F68230C0F6010040F20021C2F21B
:1035B00000410422FDF74FF800286AD1FFE740F2EE
:1035C0000020C2F20040FDF727F805388DF82F01E2
:1035D00000208DF87F00FFE79DF87F009DF82F11F8
:1035E000884214DAFFE79DF87F2040F20020C2F203
:1035F00000401044407940F28A01C2F200418854F0
:10360000FFE79DF87F0001308DF87F00E4E79DF82B
:103610002F2140F28A01C2F2004102910020039062
:1036200088540BA82821FDF7E0F8029942F6F2220F
:10363000C0F6010215A80CF02FFE03980A90FFE7D0
:103640000A98032824DCFFE70A9A02EB82010BA800
:10365000019000EB410015A951F82210FCF7B8FFCA
:1036600001980A9901EB810100EB41000EF0B8FFCF
:10367000B7EEC00B0A9940F28C10C2F2004000EB8A
:10368000810080ED000AFFE70A9801300A90D7E731
:10369000FFE7FFE7FFE74CB080BD0000000000003F
:1036A000704700000000000072B6FFE7FEE7000070
:1036B00044F60C01C5F60201086840F002000860FB
:1036C000FFE744F60400C5F6020000688004002805
:1036D00001D4FFE7F5E7704780B540F21870C2F2F9
:1036E000004003F0B5FA80BD80B540F21870C2F218
:1036F000004003F0ADFA40F2B870C2F2004003F0AF
:10370000A7FA80BD0000000084B002900298406BD0
:10371000009002980068D0F884004FF6FC7188434E
:10372000009940EA810002990968C1F88400029872
:103730000068D0F8840020F47F00029A1168926B30
:1037400040EA0240C1F884000298816B0098084466
:10375000009002980068D0F888006FF38F000099FD
:1037600040EA810002990968C1F88800029800685F
:10377000D0F8880020F4FE00029A1168D26B40EA6B
:103780000240C1F888000298C16B009800EB41002C
:10379000009002980068D0F8A0006FF38F000099A5
:1037A00040EA810002990968C1F8A0000298006807
:1037B000D0F8A00020F4FE00029A1168126C40EAD2
:1037C0000240C1F8A0000299086C496C009A00FB05
:1037D0000120009002980068D0F8B0006FF38F00CD
:1037E000009940EA810002990968C1F8B000029886
:1037F0000068D0F8B00020F4FE00029A1168926CC4
:1038000040EA0240C1F8B0000299886CC96C009A85
:1038100000FB0120009002980068D0F8AC006FF324
:103820008F00009940EA810002990968C1F8AC0054
:103830000299086D496D009A00FB012000900298E2
:103840000068D0F8F0006FF38F00009940EA810023
:1038500002990968C1F8F00002980068D0F8F000F9
:1038600020F47C10029A1168926D40EA0240C1F87F
:10387000F0000298816D009800EB410000900298E2
:103880000068D0F8C0006FF38F00009940EA810013
:1038900002990968C1F8C00002980068D0F8C00019
:1038A00020F47C10029A1168D26D40EA0240C1F8FF
:1038B000C00002980068D0F8C00020F07C50029A46
:1038C0001168126E40EA0260C1F8C00002994A6BAA
:1038D0004AF60040C4F2000000EB8200C86602997C
:1038E0008A6BC86E00EB820008670299CA6B086F8A
:1038F00000EBC200486702990A6C4B6C486F5A4350
:1039000000EB8200886702998A6CCB6C886F5A43FF
:1039100000EB8200C86702990A6D4B6DC86F5A436D
:1039200000EB8200C1F8800002998A6DD1F8800016
:1039300000EBC200C1F884000299CA6D8B6ED1F809
:1039400084005A4300EB8200C1F8880002990A6E95
:103950008B6ED1F888005A4300EB8200C1F89000CA
:103960000298D0F890004DF2FD31C4F20001884277
:103970000FD3FFE70299D1F89C0040F02000C1F876
:103980009C000299032081F8980001208DF80F0017
:1039900017E00298C06E0190FFE701980299D1F8F4
:1039A0009010884208D2FFE7019900200860FFE7E5
:1039B000019804300190F0E7FFE700208DF80F0038
:1039C000FFE79DF80F0004B0704700000000000002
:1039D00080B58AB0089004F00BF90490089828B9D3
:1039E000FFE701208DF8270000F0AABC089890F8A6
:1039F000350002280ED0FFE7089980204865FFE7D0
:103A00000899002081F83400FFE701208DF8270095
:103A100000F096BC089800681021C4F202018842A8
:103A200000F08180FFE7089800682821C4F20201B5
:103A3000884278D0FFE7089800684021C4F202016C
:103A4000884270D0FFE7089800685821C4F202014C
:103A5000884268D0FFE7089800687021C4F202012C
:103A6000884260D0FFE7089800688821C4F202010C
:103A7000884258D0FFE708980068A021C4F20201EC
:103A8000884250D0FFE708980068B821C4F20201CC
:103A9000884248D0FFE70898006840F21041C4F21D
:103AA000020188423FD0FFE70898006840F22841B1
:103AB000C4F20201884236D0FFE70898006840F25D
:103AC0004041C4F2020188422DD0FFE70898006807
:103AD00040F25841C4F20201884224D0FFE708981E
:103AE000006840F27041C4F2020188421BD0FFE737
:103AF0000898006840F28841C4F20201884212D05E
:103B0000FFE70898006840F2A041C4F20201884231
:103B100009D0FFE70898006840F2B841C4F20201FA
:103B2000884207D1FFE708980168086820F0010083
:103B3000086006E008980168086820F00100086045
:103B4000FFE70898016801201022C4F202029142A6
:103B5000039000F0A380FFE7089801680120282265
:103B6000C4F202029142039000F09880FFE70898A7
:103B7000016801204022C4F202029142039000F049
:103B80008D80FFE70898016801205822C4F20202E4
:103B90009142039000F08280FFE7089801680120BD
:103BA0007022C4F202029142039077D0FFE7089896
:103BB000016801208822C4F20202914203906DD074
:103BC000FFE7089801680120A022C4F20202914296
:103BD000039063D0FFE7089801680120B822C4F27F
:103BE00002029142039059D0FFE708980168012032
:103BF00040F21042C4F20202914203904ED0FFE71D
:103C000008980168012040F22842C4F20202914261
:103C1000039043D0FFE708980168012040F240423A
:103C2000C4F202029142039038D0FFE7089801687D
:103C3000012040F25842C4F20202914203902DD07A
:103C4000FFE708980168012040F27042C4F20202C6
:103C50009142039022D0FFE708980168012040F2CA
:103C60008842C4F202029142039017D0FFE70898FD
:103C70000168012040F2A042C4F202029142039086
:103C80000CD0FFE7089800684FF64831CBF6FD717D
:103C90000844B0FA80F040090390FFE70398C0079A
:103CA00080B1FFE708980168086820F01E000860EE
:103CB00008980168486920F0800048610898006809
:103CC000059009E008980168086820F00E00086077
:103CD000089800680590FFE7089801680120102205
:103CE000C4F202029142029000F00381FFE70898BB
:103CF000016801202822C4F202029142029000F0E1
:103D0000F880FFE70898016801204022C4F202020F
:103D10009142029000F0ED80FFE7089801680120D1
:103D20005822C4F202029142029000F0E280FFE7C2
:103D30000898016801207022C4F2020291420290A8
:103D400000F0D780FFE70898016801208822C4F2BC
:103D500002029142029000F0CC80FFE708980168CF
:103D60000120A022C4F202029142029000F0C18020
:103D7000FFE7089801680120B822C4F202029142CC
:103D8000029000F0B680FFE708980168012040F239
:103D90001042C4F202029142029000F0AA80FFE7B2
:103DA00008980168012040F22842C4F202029142C0
:103DB000029000F09E80FFE708980168012040F221
:103DC0004042C4F202029142029000F09280FFE76A
:103DD00008980168012040F25842C4F20202914260
:103DE000029000F08680FFE708980168012040F209
:103DF0007042C4F20202914202907AD0FFE7089822
:103E00000168012040F28842C4F20202914202900D
:103E10006FD0FFE708980168012040F2A042C4F289
:103E200002029142029064D0FFE7089801680120E5
:103E300040F2B842C4F202029142029059D0FFE728
:103E400008980168012045F20842C5F60202914235
:103E500002904ED0FFE708980168012045F21C420D
:103E6000C5F602029142029043D0FFE7089801682C
:103E7000012045F23042C5F602029142029038D04C
:103E8000FFE708980168012045F24442C5F60202A6
:103E9000914202902DD0FFE708980168012045F279
:103EA0005842C5F602029142029022D0FFE70898DC
:103EB0000168012045F26C42C5F60202914202906F
:103EC00017D0FFE708980168012045F28042C5F647
:103ED0000202914202900CD0FFE7089800684AF66F
:103EE0006C31CAF2FD710844B0FA80F040090290CA
:103EF000FFE70298C00738B1FFE70898016E08682D
:103F000020F480700860FFE7FFE705980068C007AD
:103F1000C8B1FFE703F06CFE0499401A062811D3DC
:103F2000FFE70899202048650899032081F83500AB
:103F3000FFE70899002081F83400FFE701208DF8A1
:103F40002700FDE1E1E70898016801201022C4F292
:103F500002029142019000F0A380FFE708980168F7
:103F600001202822C4F202029142019000F09880C0
:103F7000FFE70898016801204022C4F20202914242
:103F8000019000F08D80FFE7089801680120582219
:103F9000C4F202029142019000F08280FFE708988B
:103FA000016801207022C4F202029142019077D090
:103FB000FFE70898016801208822C4F202029142BA
:103FC00001906DD0FFE7089801680120A022C4F29B
:103FD00002029142019063D0FFE708980168012036
:103FE000B822C4F202029142019059D0FFE708982A
:103FF0000168012040F21042C4F202029142019095
:104000004ED0FFE708980168012040F22842C4F230
:1040100002029142019043D0FFE708980168012015
:1040200040F24042C4F202029142019038D0FFE7D0
:1040300008980168012040F25842C4F202029142FD
:1040400001902DD0FFE708980168012040F27042EE
:10405000C4F202029142019022D0FFE70898016861
:10406000012040F28842C4F202029142019017D02E
:10407000FFE708980168012040F2A042C4F2020262
:10408000914201900CD0FFE7089800684FF6483144
:10409000CBF6FD710844B0FA80F040090190FFE7CB
:1040A0000198C00760B1FFE70898806D07900898F5
:1040B000C06D00F01F013F208840079988600BE029
:1040C0000898806D06900898C06D00F01F010120CF
:1040D000884006994860FFE708980168012010228F
:1040E000C4F202029142009000F00381FFE70898B9
:1040F000016801202822C4F202029142009000F0DF
:10410000F880FFE70898016801204022C4F202020B
:104110009142009000F0ED80FFE7089801680120CF
:104120005822C4F202029142009000F0E280FFE7C0
:104130000898016801207022C4F2020291420090A6
:1041400000F0D780FFE70898016801208822C4F2B8
:1041500002029142009000F0CC80FFE708980168CD
:104160000120A022C4F202029142009000F0C1801E
:10417000FFE7089801680120B822C4F202029142C8
:10418000009000F0B680FFE708980168012040F237
:104190001042C4F202029142009000F0AA80FFE7B0
:1041A00008980168012040F22842C4F202029142BC
:1041B000009000F09E80FFE708980168012040F21F
:1041C0004042C4F202029142009000F09280FFE768
:1041D00008980168012040F25842C4F2020291425C
:1041E000009000F08680FFE708980168012040F207
:1041F0007042C4F20202914200907AD0FFE7089820
:104200000168012040F28842C4F20202914200900B
:104210006FD0FFE708980168012040F2A042C4F285
:1042200002029142009064D0FFE7089801680120E3
:1042300040F2B842C4F202029142009059D0FFE726
:1042400008980168012045F20842C5F60202914231
:1042500000904ED0FFE708980168012045F21C420B
:10426000C5F602029142009043D0FFE7089801682A
:10427000012045F23042C5F602029142009038D04A
:10428000FFE708980168012045F24442C5F60202A2
:10429000914200902DD0FFE708980168012045F277
:1042A0005842C5F602029142009022D0FFE70898DA
:1042B0000168012045F26C42C5F60202914200906D
:1042C00017D0FFE708980168012045F28042C5F643
:1042D0000202914200900CD0FFE7089800684AF66D
:1042E0006C31CAF2FD710844B0FA80F040090090C8
:1042F000FFE70098C007A0B1FFE70898416E806E05
:1043000048600898C06E58B1FFE70898C16E086809
:1043100020F4807008600898016F406F4860FFE7E4
:10432000FFE70899012081F83500FFE70899002090
:1043300081F83400FFE7FFE700208DF82700FFE752
:104340009DF827000AB080BD80B586B0049004981F
:1043500020B9FFE701208DF8170046E3049890F894
:104360003500022807D0FFE7049980204865012026
:104370008DF8170039E30498016801201022C4F277
:1043800002029142029000F0A380FFE704980168C6
:1043900001202822C4F202029142029000F098808B
:1043A000FFE70498016801204022C4F20202914212
:1043B000029000F08D80FFE70498016801205822E8
:1043C000C4F202029142029000F08280FFE704985A
:1043D000016801207022C4F202029142029077D05B
:1043E000FFE70498016801208822C4F2020291428A
:1043F00002906DD0FFE7049801680120A022C4F26A
:1044000002029142029063D0FFE704980168012004
:10441000B822C4F202029142029059D0FFE70498F8
:104420000168012040F21042C4F20202914202905F
:104430004ED0FFE704980168012040F22842C4F200
:1044400002029142029043D0FFE7049801680120E4
:1044500040F24042C4F202029142029038D0FFE79B
:1044600004980168012040F25842C4F202029142CD
:1044700002902DD0FFE704980168012040F27042BD
:10448000C4F202029142029022D0FFE70498016830
:10449000012040F28842C4F202029142029017D0F9
:1044A000FFE704980168012040F2A042C4F2020232
:1044B000914202900CD0FFE7049800684FF6483113
:1044C000CBF6FD710844B0FA80F040090290FFE796
:1044D0000298C007002800F09D80FFE7049904209F
:1044E00081F83500049800681021C4F20201884266
:1044F00000F08180FFE7049800682821C4F20201DF
:10450000884278D0FFE7049800684021C4F2020195
:10451000884270D0FFE7049800685821C4F2020175
:10452000884268D0FFE7049800687021C4F2020155
:10453000884260D0FFE7049800688821C4F2020135
:10454000884258D0FFE704980068A021C4F2020115
:10455000884250D0FFE704980068B821C4F20201F5
:10456000884248D0FFE70498006840F21041C4F246
:10457000020188423FD0FFE70498006840F22841DA
:10458000C4F20201884236D0FFE70498006840F286
:104590004041C4F2020188422DD0FFE70498006830
:1045A00040F25841C4F20201884224D0FFE7049847
:1045B000006840F27041C4F2020188421BD0FFE75C
:1045C0000498006840F28841C4F20201884212D087
:1045D000FFE70498006840F2A041C4F2020188425B
:1045E00009D0FFE70498006840F2B841C4F2020124
:1045F000884207D1FFE704980168086820F00100AD
:10460000086006E004980168086820F0010008606E
:10461000FFE7E5E1049800681021C4F20201884236
:1046200000F08180FFE7049800682821C4F20201AD
:10463000884278D0FFE7049800684021C4F2020164
:10464000884270D0FFE7049800685821C4F2020144
:10465000884268D0FFE7049800687021C4F2020124
:10466000884260D0FFE7049800688821C4F2020104
:10467000884258D0FFE704980068A021C4F20201E4
:10468000884250D0FFE704980068B821C4F20201C4
:10469000884248D0FFE70498006840F21041C4F215
:1046A000020188423FD0FFE70498006840F22841A9
:1046B000C4F20201884236D0FFE70498006840F255
:1046C0004041C4F2020188422DD0FFE704980068FF
:1046D00040F25841C4F20201884224D0FFE7049816
:1046E000006840F27041C4F2020188421BD0FFE72B
:1046F0000498006840F28841C4F20201884212D056
:10470000FFE70498006840F2A041C4F20201884229
:1047100009D0FFE70498006840F2B841C4F20201F2
:10472000884207D1FFE704980168086820F001007B
:10473000086006E004980168086820F0010008603D
:10474000FFE704980168086820F00E0008600498EC
:10475000016801201022C4F202029142019000F08F
:104760000381FFE70498016801202822C4F20202B5
:104770009142019000F0F880FFE704980168012061
:104780004022C4F202029142019000F0ED80FFE766
:104790000498016801205822C4F20202914201905B
:1047A00000F0E280FFE70498016801207022C4F263
:1047B00002029142019000F0D780FFE7049801685F
:1047C00001208822C4F202029142019000F0CC80C4
:1047D000FFE7049801680120A022C4F2020291427E
:1047E000019000F0C180FFE7049801680120B82221
:1047F000C4F202029142019000F0B680FFE70498F3
:104800000168012040F21042C4F20202914201907C
:1048100000F0AA80FFE704980168012040F22842D6
:10482000C4F202029142019000F09E80FFE70498DA
:104830000168012040F24042C4F20202914201901C
:1048400000F09280FFE704980168012040F258428E
:10485000C4F202029142019000F08680FFE70498C2
:104860000168012040F27042C4F2020291420190BC
:104870007AD0FFE704980168012040F28842C4F230
:104880000202914201906FD0FFE704980168012075
:1048900040F2A042C4F202029142019064D0FFE7CC
:1048A00004980168012040F2B842C4F20202914229
:1048B000019059D0FFE704980168012045F20842B1
:1048C000C5F60202914201904ED0FFE704980168BC
:1048D000012045F21C42C5F602029142019043D0EC
:1048E000FFE704980168012045F23042C5F6020254
:1048F0009142019038D0FFE704980168012045F209
:104900004442C5F60202914201902DD0FFE704987F
:104910000168012045F25842C5F602029142019019
:1049200022D0FFE704980168012045F26C42C5F6E9
:1049300002029142019017D0FFE70498016801201C
:1049400045F28042C5F60202914201900CD0FFE789
:10495000049800684AF66C31CAF2FD710844B0FA56
:1049600080F040090190FFE70198C00728B3FFE7F6
:104970000498016E086820F4807008600498806DC7
:1049800003900498C06D00F01F0101208840039936
:1049900048600498416E806E48600498C06E58B1BB
:1049A000FFE70498C16E086820F4807008600498DE
:1049B000016F406F4860FFE7FFE70499012081F82D
:1049C0003500FFE70499002081F83400FFE70498E0
:1049D000006D20B1FFE70498016D8847FFE7FFE70E
:1049E000FFE700208DF81700FFE79DF8170006B0DD
:1049F00080BD00000000000080B590B00F90002046
:104A00000B9040F20800C2F20040006848F2B51175
:104A1000C1F64E31A0FB0110800A0A900F98806DFC
:104A200009900F98806D0890099800680E9008987A
:104A300000680D900F98016801201022C4F2020254
:104A40009142079000F0A380FFE70F9801680120D2
:104A50002822C4F202029142079000F09880FFE7FA
:104A60000F98016801204022C4F20202914207908F
:104A700000F08D80FFE70F98016801205822C4F2F2
:104A800002029142079000F08280FFE70F980168D0
:104A900001207022C4F202029142079077D0FFE712
:104AA0000F98016801208822C4F202029142079007
:104AB0006DD0FFE70F9801680120A022C4F2020226
:104AC0009142079063D0FFE70F9801680120B82258
:104AD000C4F202029142079059D0FFE70F98016893
:104AE000012040F21042C4F20202914207904ED0DF
:104AF000FFE70F980168012040F22842C4F2020249
:104B00009142079043D0FFE70F980168012040F2DF
:104B10004042C4F202029142079038D0FFE70F985A
:104B20000168012040F25842C4F20202914207900B
:104B30002DD0FFE70F980168012040F27042C4F2C7
:104B400002029142079022D0FFE70F9801680120EE
:104B500040F28842C4F202029142079017D0FFE768
:104B60000F980168012040F2A042C4F20202914273
:104B700007900CD0FFE70F9800684FF64831CBF64E
:104B8000FD710844B0FA80F040090790FFE70798EC
:104B9000C007002800F01385FFE70E980F99C96D34
:104BA00001F01F01C8400007002840F1B080FFE776
:104BB0000F9800681021C4F20201884200F0818041
:104BC000FFE70F9800682821C4F20201884278D0DC
:104BD000FFE70F9800684021C4F20201884270D0BC
:104BE000FFE70F9800685821C4F20201884268D09C
:104BF000FFE70F9800687021C4F20201884260D07C
:104C0000FFE70F9800688821C4F20201884258D05B
:104C1000FFE70F980068A021C4F20201884250D03B
:104C2000FFE70F980068B821C4F20201884248D01B
:104C3000FFE70F98006840F21041C4F20201884279
:104C40003FD0FFE70F98006840F22841C4F202010C
:104C5000884236D0FFE70F98006840F24041C4F226
:104C6000020188422DD0FFE70F98006840F25841BA
:104C7000C4F20201884224D0FFE70F98006840F296
:104C80007041C4F2020188421BD0FFE70F98006810
:104C900040F28841C4F20201884212D0FFE70F9827
:104CA000006840F2A041C4F20201884209D0FFE747
:104CB0000F98006840F2B841C4F20201884207D15F
:104CC000FFE70F980068006800F00400069006E017
:104CD0000F980068006800F008000690FFE706984B
:104CE000A0B1FFE70F980168086820F00400086091
:104CF0000F98C06D00F01F01082088400999886056
:104D00000F99486D40F001004865FFE7FFE70E98F6
:104D10000F99C96D01F01F01C840C007002800F0BD
:104D2000A980FFE70F9800681021C4F202018842B1
:104D300000F08180FFE70F9800682821C4F202018B
:104D4000884278D0FFE70F9800684021C4F2020142
:104D5000884270D0FFE70F9800685821C4F2020122
:104D6000884268D0FFE70F9800687021C4F2020102
:104D7000884260D0FFE70F9800688821C4F20201E2
:104D8000884258D0FFE70F980068A021C4F20201C2
:104D9000884250D0FFE70F980068B821C4F20201A2
:104DA000884248D0FFE70F98006840F21041C4F2F3
:104DB000020188423FD0FFE70F98006840F2284187
:104DC000C4F20201884236D0FFE70F98006840F233
:104DD0004041C4F2020188422DD0FFE70F980068DD
:104DE00040F25841C4F20201884224D0FFE70F98F4
:104DF000006840F27041C4F2020188421BD0FFE714
:104E00000F98006840F28841C4F20201884212D033
:104E1000FFE70F98006840F2A041C4F20201884207
:104E200009D0FFE70F98006840F2B841C4F20201D0
:104E3000884207D1FFE70F980068406900F08000C2
:104E4000059005E00F980068006800200590FFE7D6
:104E5000059870B1FFE70F98C06D00F01F010120A9
:104E60008840099988600F99486D40F002004865B4
:104E7000FFE7FFE70E980F99C96D01F01F01C840C9
:104E80004007002840F1A980FFE70F980068102133
:104E9000C4F20201884200F08180FFE70F980068A9
:104EA0002821C4F20201884278D0FFE70F980068F9
:104EB0004021C4F20201884270D0FFE70F980068D9
:104EC0005821C4F20201884268D0FFE70F980068B9
:104ED0007021C4F20201884260D0FFE70F98006899
:104EE0008821C4F20201884258D0FFE70F98006879
:104EF000A021C4F20201884250D0FFE70F98006859
:104F0000B821C4F20201884248D0FFE70F98006838
:104F100040F21041C4F2020188423FD0FFE70F98EF
:104F2000006840F22841C4F20201884236D0FFE70F
:104F30000F98006840F24041C4F2020188422DD02F
:104F4000FFE70F98006840F25841C4F2020188421E
:104F500024D0FFE70F98006840F27041C4F20201CC
:104F600088421BD0FFE70F98006840F28841C4F2E6
:104F70000201884212D0FFE70F98006840F2A0417A
:104F8000C4F20201884209D0FFE70F98006840F29E
:104F9000B841C4F20201884207D1FFE70F980068C8
:104FA000006800F00200049005E00F9800680068B7
:104FB00000200490FFE7049870B1FFE70F98C06DE0
:104FC00000F01F0104208840099988600F99486DFE
:104FD00040F004004865FFE7FFE70E980F99C96DA0
:104FE00001F01F01C840C006002840F1DE80FFE745
:104FF0000F9800681021C4F20201884200F08180FD
:10500000FFE70F9800682821C4F20201884278D097
:10501000FFE70F9800684021C4F20201884270D077
:10502000FFE70F9800685821C4F20201884268D057
:10503000FFE70F9800687021C4F20201884260D037
:10504000FFE70F9800688821C4F20201884258D017
:10505000FFE70F980068A021C4F20201884250D0F7
:10506000FFE70F980068B821C4F20201884248D0D7
:10507000FFE70F98006840F21041C4F20201884235
:105080003FD0FFE70F98006840F22841C4F20201C8
:10509000884236D0FFE70F98006840F24041C4F2E2
:1050A000020188422DD0FFE70F98006840F2584176
:1050B000C4F20201884224D0FFE70F98006840F252
:1050C0007041C4F2020188421BD0FFE70F980068CC
:1050D00040F28841C4F20201884212D0FFE70F98E3
:1050E000006840F2A041C4F20201884209D0FFE703
:1050F0000F98006840F2B841C4F20201884207D11B
:10510000FFE70F980068006800F00800039006E0D1
:105110000F980068006800F004000390FFE7039810
:10512000002841D0FFE70F98C06D00F01F0110204C
:105130008840099988600F9800680068400300283B
:105140001AD5FFE70F98006800680003002809D40B
:10515000FFE70F98006C20B1FFE70F98016C8847BC
:10516000FFE708E00F98806C20B1FFE70F98816C93
:105170008847FFE7FFE716E00F9800680068C00562
:10518000002807D4FFE70F980168086820F008009E
:105190000860FFE70F98006C20B1FFE70F98016CE3
:1051A0008847FFE7FFE7FFE7FFE70E980F99C96D14
:1051B00001F01F01C8408006002840F12681FFE76A
:1051C0000F9800681021C4F20201884200F081802B
:1051D000FFE70F9800682821C4F20201884278D0C6
:1051E000FFE70F9800684021C4F20201884270D0A6
:1051F000FFE70F9800685821C4F20201884268D086
:10520000FFE70F9800687021C4F20201884260D065
:10521000FFE70F9800688821C4F20201884258D045
:10522000FFE70F980068A021C4F20201884250D025
:10523000FFE70F980068B821C4F20201884248D005
:10524000FFE70F98006840F21041C4F20201884263
:105250003FD0FFE70F98006840F22841C4F20201F6
:10526000884236D0FFE70F98006840F24041C4F210
:10527000020188422DD0FFE70F98006840F25841A4
:10528000C4F20201884224D0FFE70F98006840F280
:105290007041C4F2020188421BD0FFE70F980068FA
:1052A00040F28841C4F20201884212D0FFE70F9811
:1052B000006840F2A041C4F20201884209D0FFE731
:1052C0000F98006840F2B841C4F20201884207D149
:1052D000FFE70F980068006800F01000029006E0F9
:1052E0000F980068006800F002000290FFE7029843
:1052F000002800F08980FFE70F98C06D00F01F01C3
:1053000020208840099988600F9890F8350004287B
:1053100037D1FFE70F980168086820F01600086091
:105320000F980168486920F0800048610F98006C70
:1053300020B9FFE70F98806C38B1FFE70F9801683C
:10534000086820F008000860FFE70F98C06D00F0C3
:105350001F013F208840099988600F99012081F83A
:105360003500FFE70F99002081F83400FFE70F9820
:10537000006D20B1FFE70F98016D8847FFE700F04F
:1053800019BC0F9800680068400300281AD5FFE791
:105390000F98006800680003002809D5FFE70F9800
:1053A000406C20B1FFE70F98416C8847FFE708E0A9
:1053B0000F98C06B20B1FFE70F98C16B8847FFE7DC
:1053C000FFE720E00F9800680068C005002811D4AE
:1053D000FFE70F980168086820F0100008600F9937
:1053E000012081F83500FFE70F99002081F8340093
:1053F000FFE7FFE70F98C06B20B1FFE70F98C16B85
:105400008847FFE7FFE7FFE7FFE70F98406D0028B9
:1054100000F0D480FFE70F98406DC007002800F02F
:10542000C480FFE70F99042081F835000F980068C9
:105430001021C4F20201884200F08180FFE70F983A
:1054400000682821C4F20201884278D0FFE70F9853
:1054500000684021C4F20201884270D0FFE70F9833
:1054600000685821C4F20201884268D0FFE70F9813
:1054700000687021C4F20201884260D0FFE70F98F3
:1054800000688821C4F20201884258D0FFE70F98D3
:105490000068A021C4F20201884250D0FFE70F98B3
:1054A0000068B821C4F20201884248D0FFE70F9893
:1054B000006840F21041C4F2020188423FD0FFE789
:1054C0000F98006840F22841C4F20201884236D0A9
:1054D000FFE70F98006840F24041C4F202018842A1
:1054E0002DD0FFE70F98006840F25841C4F2020146
:1054F000884224D0FFE70F98006840F27041C4F260
:10550000020188421BD0FFE70F98006840F28841F3
:10551000C4F20201884212D0FFE70F98006840F2FF
:10552000A041C4F20201884209D0FFE70F98006849
:1055300040F2B841C4F20201884207D1FFE70F9858
:105540000168086820F00100086006E00F98016813
:10555000086820F001000860FFE7FFE70B980130C2
:105560000B900A99884201D9FFE707E0FFE70F98FF
:1055700000680068C0070028F0D1FFE70F980068B6
:105580000068C00728B1FFE70F99032081F83500B4
:1055900004E00F99012081F83500FFE7FFE70F993C
:1055A000002081F83400FFE7FFE70F98C06C20B1BE
:1055B000FFE70F98C16C8847FFE7FFE7FAE20F9813
:1055C0000168012045F20842C5F6020291420190AD
:1055D0004ED0FFE70F980168012045F21C42C5F646
:1055E00002029142019043D0FFE70F980168012029
:1055F00045F23042C5F602029142019038D0FFE7F1
:105600000F980168012045F24442C5F6020291421A
:1056100001902DD0FFE70F980168012045F2584214
:10562000C5F602029142019022D0FFE70F9801686F
:10563000012045F26C42C5F602029142019017D05A
:10564000FFE70F980168012045F28042C5F602028B
:10565000914201900CD0FFE70F9800684AF66C3138
:10566000CAF2FD710844B0FA80F040090190FFE7EA
:105670000198C007002800F09B82FFE70F980068A0
:1056800000680C900D980F99C96D01F01F01C8407A
:105690004007002840F1D780FFE79DF83000400721
:1056A000002840F1D080FFE70F98C06D00F01F0187
:1056B00004208840089948609DF8310000060028C1
:1056C00018D5FFE79DF83200C00748B1FFE70F98F3
:1056D000806C20B1FFE70F98816C8847FFE708E0F6
:1056E0000F98006C20B1FFE70F98016C8847FFE727
:1056F000FFE7A7E09DF830008006002800F19980C0
:10570000FFE70F9800681021C4F20201884200F000
:105710008180FFE70F9800682821C4F202018842C7
:1057200078D0FFE70F9800684021C4F20201884258
:1057300070D0FFE70F9800685821C4F20201884238
:1057400068D0FFE70F9800687021C4F20201884218
:1057500060D0FFE70F9800688821C4F202018842F8
:1057600058D0FFE70F980068A021C4F202018842D8
:1057700050D0FFE70F980068B821C4F202018842B8
:1057800048D0FFE70F98006840F21041C4F20201D0
:1057900088423FD0FFE70F98006840F22841C4F2EA
:1057A0000201884236D0FFE70F98006840F240417E
:1057B000C4F2020188422DD0FFE70F98006840F242
:1057C0005841C4F20201884224D0FFE70F980068D4
:1057D00040F27041C4F2020188421BD0FFE70F98EB
:1057E000006840F28841C4F20201884212D0FFE70B
:1057F0000F98006840F2A041C4F20201884209D02B
:10580000FFE70F98006840F2B841C4F202018842F5
:1058100007D1FFE70F980168086820F008000860CA
:1058200006E00F980168086820F004000860FFE7B0
:10583000FFE70F98006C20B1FFE70F98016C8847D5
:10584000FFE7FFE7B3E10D980F99C96D01F01F0164
:10585000C8408007002840F1E180FFE79DF8300054
:105860008007002840F1DA80FFE70F98C06D00F054
:105870001F0102208840089948609DF83100000609
:10588000002818D5FFE79DF83200C00748B9FFE7A8
:105890000F98406C20B1FFE70F98416C8847FFE7F5
:1058A00008E00F98C06B20B1FFE70F98C16B8847E5
:1058B000FFE7FFE7B1E09DF830008006002800F127
:1058C000A380FFE70F9800681021C4F2020188420C
:1058D00000F08180FFE70F9800682821C4F20201E0
:1058E000884278D0FFE70F9800684021C4F2020197
:1058F000884270D0FFE70F9800685821C4F2020177
:10590000884268D0FFE70F9800687021C4F2020156
:10591000884260D0FFE70F9800688821C4F2020136
:10592000884258D0FFE70F980068A021C4F2020116
:10593000884250D0FFE70F980068B821C4F20201F6
:10594000884248D0FFE70F98006840F21041C4F247
:10595000020188423FD0FFE70F98006840F22841DB
:10596000C4F20201884236D0FFE70F98006840F287
:105970004041C4F2020188422DD0FFE70F98006831
:1059800040F25841C4F20201884224D0FFE70F9848
:10599000006840F27041C4F2020188421BD0FFE768
:1059A0000F98006840F28841C4F20201884212D088
:1059B000FFE70F98006840F2A041C4F2020188425C
:1059C00009D0FFE70F98006840F2B841C4F2020125
:1059D000884207D1FFE70F980168086820F014009B
:1059E000086006E00F980168086820F00A00086067
:1059F000FFE70F99012081F83500FFE70F9900209C
:105A000081F83400FFE7FFE70F98C06B20B1FFE794
:105A10000F98C16B8847FFE7FFE7C7E00D980F9924
:105A2000C96D01F01F01C8400007002840F1BC808B
:105A3000FFE79DF830000007002840F1B580FFE740
:105A40000F9800681021C4F20201884200F08180A2
:105A5000FFE70F9800682821C4F20201884278D03D
:105A6000FFE70F9800684021C4F20201884270D01D
:105A7000FFE70F9800685821C4F20201884268D0FD
:105A8000FFE70F9800687021C4F20201884260D0DD
:105A9000FFE70F9800688821C4F20201884258D0BD
:105AA000FFE70F980068A021C4F20201884250D09D
:105AB000FFE70F980068B821C4F20201884248D07D
:105AC000FFE70F98006840F21041C4F202018842DB
:105AD0003FD0FFE70F98006840F22841C4F202016E
