:020000040800F2
:10000000F051002029030008251C00082B1A0008C5
:10001000211C00084D080008491F000800000000CE
:10002000000000000000000000000000690200085D
:100030005108000800000000C5020008071D000864
:100040004303000843030008430300084303000878
:100050004303000843030008430300084303000868
:100060004303000843030008430300084303000858
:100070004303000843030008430300084303000848
:100080004303000843030008430300084303000838
:100090004303000843030008430300084303000828
:1000A00043030008E91D0008430300084303000858
:1000B0004303000843030008430300084303000808
:1000C00043030008430300084303000843030008F8
:1000D00043030008430300084303000843030008E8
:1000E00043030008430300084303000843030008D8
:1000F00043030008430300084303000843030008C8
:1001000043030008430300084303000843030008B7
:1001100043030008430300084303000843030008A7
:100120004303000843030008430300084303000897
:100130004303000843030008430300084303000887
:100140004303000843030008430300084303000877
:100150004303000843030008430300084303000867
:100160004303000843030008430300084303000857
:100170004303000843030008430300080000000095
:10018000430300084303000800F002F800F05CF8A5
:100190000AA090E8000C82448344AAF10107DA45E2
:1001A00001D100F051F8AFF2090EBAE80F0013F0D8
:1001B000010F18BFFB1A43F00103184770400000FD
:1001C000904000000A444FF0000C10F8013B13F07F
:1001D000070408BF10F8014B1D1108BF10F8015BA0
:1001E000641E05D010F8016B641E01F8016BF9D193
:1001F00013F0080F1EBF10F8014BAD1C0C1B09D1EA
:100200006D1E58BF01F801CBFAD505E014F8016B5B
:1002100001F8016B6D1EF9D59142D6D370470000ED
:100220000023002400250026103A28BF78C1FBD8FF
:10023000520728BF30C148BF0B6070471FB503F09D
:10024000CBFF1FBD10B510BD00F0D0F91146FFF770
:10025000F5FF01F0A0FE00F0EEF903B4FFF7F2FFA6
:1002600003BC00F0F5F900002C4B19680868B0E8F1
:10027000F04F80F30988BFF36F8F4FF0000080F3D9
:10028000118870470000000008480068006880F38B
:1002900008884FF0000080F3148862B661B6BFF39F
:1002A0004F8FBFF36F8F00DF00BF00BF08ED00E08E
:1002B000DFF80C00016841F470010160704700BF75
:1002C00088ED00E0EFF30980BFF36F8F134B1A68DE
:1002D0001EF0100F08BF20ED108A20E9F04F1060CB
:1002E00009B44FF0500080F31188BFF34F8FBFF374
:1002F0006F8F03F06DF84FF0000080F3118809BC98
:1003000019680868B0E8F04F1EF0100F08BFB0EC95
:10031000108A80F30988BFF36F8F704714000020A4
:10032000EFF30580704700000948804709480047FF
:10033000FEE7FEE7FEE7FEE7FEE7FEE7FEE7FEE795
:10034000FEE7FEE704480549054A064B70470000F2
:10035000D51D000889010008F04B0020F051002055
:10036000F04D0020F04D002053EA020C00F06980AF
:100370002DE9F04B4FF00006002B1FBFB3FA83F5B9
:1003800003FA05F424FA05F65E4012BF1643B2FAEA
:1003900082F502FA05F4C5F120051EBF22FA05FC1C
:1003A00044EA0C04203556EA044C4FEA144418BFC2
:1003B000641C4FF000084FF00009904271EB030CF1
:1003C00039D3002919BFB1FA81F701FA07F6B0FA5B
:1003D00080F700FA07F6C7F120071EBF20FA07FCD6
:1003E00046EA0C062037B6FBF4FCA7EB0507103FE6
:1003F00007F01F0BCBF120060CFA0BFB2CFA06F6CC
:1004000044BFB3460026202FA4BF5E464FF0000B2A
:100410005BEA060C08BF4FF0010B19EB0B09ABFBB5
:10042000027C48EB0608C01B06FB02CC0BFB03CC8E
:1004300071EB0C01C1E70B46024641464846BDE858
:10044000F08B13B54FF000004FF00001AFF30080C8
:10045000BDE81C407047032A40F2308010F0030CC6
:1004600000F0158011F8013BBCF1020F624498BF07
:1004700011F801CB00F8013B38BF11F8013BA2F1A4
:10048000040298BF00F801CB38BF00F8013B11F01F
:10049000030300F05780083AC0F0088051F8043B8D
:1004A000083A51F804CBA0E80810F5E7121D5CBF2C
:1004B00051F8043B40F8043BAFF30080D20724BF5F
:1004C00011F8013B11F801CB48BF11F8012B24BFF3
:1004D00000F8013B00F801CB48BF00F8012B704742
:1004E00002F0FF0343EA032242EA024200F05EB850
:1004F0004FF0000200B5134694469646203922BFBD
:10050000A0E80C50A0E80C50B1F12001BFF4F7AF07
:10051000090728BFA0E80C5048BF0CC05DF804EBE9
:10052000890028BF40F8042B08BF704748BF20F857
:10053000022B11F0804F18BF00F8012B7047704755
:100540007047704710B5203AC0F00B80B1E81850E2
:10055000203AA0E81850B1E81850A0E81850BFF4AD
:10056000F5AF5FEA027C24BFB1E81850A0E818504C
:1005700044BF18C918C0BDE810405FEA827C24BFA0
:1005800051F8043B40F8043B08BF7047D20728BF2E
:1005900031F8023B48BF11F8012B28BF20F8023B7D
:1005A00048BF00F8012B70474FF000020429C0F04B
:1005B000128010F0030C3FF49DAFCCF1040CBCF1A1
:1005C000020F18BF00F8012BA8BF20F8022BA1EBE7
:1005D0000C01FFF78FBF5FEAC17C24BF00F8012B3D
:1005E00000F8012B48BF00F8012B7047754600F05A
:1005F0002BF8AE4605006946534620F007008546B5
:1006000018B020B5FFF79EFEBDE820404FF0000671
:100610004FF000074FF000084FF0000B21F00701EA
:10062000AC46ACE8C009ACE8C009ACE8C009ACE82D
:10063000C0098D46704710B50446AFF300802046D0
:10064000BDE81040FFF709BE00487047904B0020FE
:1006500001491820ABBEFEE72600020070470000EB
:1006600008B503F073FB009000BF6B496B4801F0C5
:10067000E7FC6B496B4801F0E3FC6B496B4801F008
:10068000DFFC012002F0F6FC69480078E0BB694815
:1006900090ED000AF0EE400A67485F4991ED000ACC
:1006A000B8EE400A01F0C0FA624890ED011AF0EE8F
:1006B000410A6148243890ED101AB0EE410A01F069
:1006C000B3FA5D48243890ED070AB5EEC00AF1EEA2
:1006D00010FA0AD290ED070ABCEEC00A10EE100A1A
:1006E000C1B24E4801F06CFC0BE05348243890ED49
:1006F000070ABCEEC00A10EE100AC1B2474801F06A
:100700007FFC01204A4908704948007801283CD103
:100710004A4890ED000AF0EE400A4948424991EDFE
:10072000000AB8EE400A01F07FFA444890ED011A41
:10073000F0EE410A4248243890ED101AB0EE410A1A
:1007400001F072FA3E48243890ED070AB5EEC00A6F
:10075000F1EE10FA0AD290ED070ABCEEC00A10EED4
:10076000100AC1B2314801F02BFC0BE034482438A8
:1007700090ED070ABCEEC00A10EE100AC1B22B4879
:1007800001F03EFC02202A4908702948007802281E
:100790003CD12C4890ED000AF0EE400A2A4820494E
:1007A00091ED000AB8EE400A01F03EFA254890EDBE
:1007B000011AF0EE410A2448243890ED101AB0EEE8
:1007C000410A01F031FA2048243890ED070AB5EECD
:1007D000C00AF1EE10FA0AD290ED070ABCEEC00A88
:1007E00010EE100AC1B20F4801F0EAFB0BE0164808
:1007F000243890ED070ABCEEC00A10EE100AC1B210
:10080000084801F0FDFB03200949087002216846F1
:1008100002F05EFC29E70000880100209C01002016
:100820008C010020E4010020900100202C02002017
:100830009401002070010020BC00002078010020FD
:1008400004010020800100204C01002000BFFEE7D1
:10085000704772B600BFFEE7F8B502460B460025AA
:10086000002400200021D6E0012606FA01F51E68CA
:1008700006EA0504AC4274D11E7906F00306012E87
:1008800004D01E7906F00306022E13D190684F00A3
:100890000326BE40B0434F00DE68BE403043906048
:1008A000506801268E40B0431E79C6F300168E4074
:1008B000304350601E7906F00306032E09D0D0683D
:1008C0004F000326BE40B0434F009E68BE403043F9
:1008D000D0601E7906F00306022E13D1CF0802F174
:1008E000200656F827004E07F70E0F26BE40B043ED
:1008F0004F07FF0E1E69BE403043CF0802F12006AD
:1009000046F8270010684F000326BE40B0431E790A
:1009100006F003064F00BE40304310605E6806F4E8
:100920004036002E76D000BF002600963C4E36683A
:1009300046F480463A4F3E603E46366806F48046AE
:10094000009600BF00BF374E8F0856F827008E076D
:10095000370F0F26BE40B043334EB24202D10026BD
:1009600024E057E0314EB24201D101261EE0304E64
:10097000B24201D1022619E02E4EB24201D1032625
:1009800014E02D4EB24201D104260FE02B4EB242AC
:1009900001D105260AE02A4EB24201D1062605E021
:1009A000284EB24201D1072600E008268F073F0FEC
:1009B000BE4030431B4E8F0846F82700224E306859
:1009C000A0435E6806F4801606B120431E4E3060D8
:1009D000361D3068A0435E6806F4001606B1204359
:1009E000194E361D3060184E361F3068A0435E68C1
:1009F00006F4003606B12043134E361F3060361F12
:100A00003068A0435E6806F4803606B120430E4E7F
:100A1000083E3060491C1029FFF426AFF8BD0000E5
:100A200044380240083801400000024000040240FF
:100A300000080240000C0240001002400014024076
:100A400000180240001C0240083C014001480068B8
:100A5000704700000400002003480068034909783B
:100A60000844014908607047040000200C00002081
:100A700010B50D48006840F400700B490860084646
:100A8000006840F4806008600846006840F48070A8
:100A90000860032000F0D6F80F2000F007F800F0FF
:100AA00055F8002010BD0000003C0240F0B587B0B2
:100AB00004460026002700BF002000901E48006862
:100AC00040F001001C4908600846006800F0010081
:100AD000009000BF00BF01A902A800F089F900F052
:100AE000AFF946001548B6FBF0F0471E144815490B
:100AF000086040F2E7311348C1604760002101619E
:100B00008160816100F0AEFC054695B90D4800F0AA
:100B1000DDFC05466DB9192000F042F8102C07D213
:100B200000222146192000F04FF80748046000E039
:100B30000125284607B0F0BD4438024040420F006E
:100B400000000140740200200800002008B500BF2A
:100B5000002000901148006840F480400F49086070
:100B60000846006800F48040009000BF00BF00BF4E
:100B700000200090081F006840F08050091F0860A6
:100B80000846006800F08050009000BF00BF0022BF
:100B90000F21901E00F018F808BD000044380240F4
:100BA0000146084600280DDB00BF00BF00F01F0310
:100BB00001229A4043099B0003F1E023C3F800217E
:100BC00000BF00BF00BF70472DE9F05F80460D46B3
:100BD0001646002701F0BAF9074639462A46334639
:100BE00001F00700C0F1070ABAF1040F02D94FF073
:100BF000040A01E0C0F1070AD14600F1040ABAF183
:100C0000070F02D24FF0000A01E0A0F1030AD44618
:100C10004FF0010A0AFA09FAAAF1010A0AEA020ADD
:100C20000AFA0CFA4FF0010B0BFA0CFBABF1010BBB
:100C30000BEA030B4AEA0B042146404601F08EF909
:100C4000BDE8F09F00BF00F00702064B19684FF6A1
:100C5000FF031940044B0B4343EA0221014B196087
:100C600000BF70470CED00E00000FA0570B50446C7
:100C70000D460CB9012070BD5848006800F007000F
:100C8000A84209D255490D700846006800F00700D7
:100C9000A84201D00120EEE7207800F002000228EF
:100CA0001DD1207800F00400042805D14C480068CC
:100CB00040F4E0504A490860207800F00800082815
:100CC00005D14748006840F4604045490860444801
:100CD000006820F0F000A1680843414908602078CE
:100CE00000F00100A8B36068012807D13C4808382B
:100CF0000068C0F34040B8B90120BCE76068022832
:100D000002D06068032807D1354808380068C0F36E
:100D1000406048B90120AEE7314808380068C0F3A8
:100D2000400008B90120A6E72D48006820F0030024
:100D3000616808432A490860FFF788FE064609E013
:100D4000FFF784FE801B41F28831884202D90320DC
:100D500091E707E02248006800F00C006168B0EB02
:100D6000810FEDD11D48006800F00700A84209D9A5
:100D70001A490D700846006800F00700A84201D02B
:100D8000012078E7207800F00400042807D11448F7
:100D9000006820F4E050E1680843114908602078B9
:100DA00000F00800082808D10D48006820F46040D1
:100DB000216940EAC1000A49086000F051F8084979
:100DC0000968C1F30311074A515CC840064908602D
:100DD00006480068FFF76AFE00204CE7003C02402E
:100DE00008380240084200081000002008000020D7
:100DF0000F2202600D4A126802F0030242600B4AA1
:100E0000126802F0F0028260084A126802F4E052AE
:100E1000C260064A126802F46042D2080261044AC3
:100E2000126802F007020A607047000008380240AA
:100E3000003C02400148006870470000100000209C
:100E400000B5FFF7F7FF04490968C1F34231034ACF
:100E5000515CC84000BD000008380240184200083C
:100E60002DE9F047002400250026A146254800680A
:100E700000F00C0020B1042805D008283AD105E084
:100E8000DFF8849039E0DFF8849036E01D48001FD9
:100E9000006800F03F041B48001F006800F4800059
:100EA00078B11A481749091F0968C1F38811A0FBD6
:100EB00001700146224600233846FFF755FA0546E1
:100EC0000EE011480F49091F0968C1F38811A0FB02
:100ED00001700146224600233846FFF745FA0546D1
:100EE0000848001F0068C0F30140401C4600B5FBE5
:100EF000F6F902E0DFF8109000BF00BF4846BDE8F9
:100F0000F0870000083802400024F40040787D019A
:100F1000F8B504460CB90120F8BD207800F00100B6
:100F2000002874D0F948006800F00C0004280DD0A7
:100F3000F648006800F00C00082813D1F348001FA1
:100F4000006800F48000B0F5800F0BD1EF4808383E
:100F50000068C0F34040002859D06068002856D18E
:100F60000120D9E700BF6068B0F5803F08D1E748AD
:100F70000838006840F48030E449083908601EE011
:100F80006068B0F5A02F0DD1E0480838006840F443
:100F90008020DE49083908600846006840F4803047
:100FA00008600CE0D9480838006820F48030D74940
:100FB000083908600846006820F48020086000BFF7
:100FC000606890B1FFF742FD054606E0FFF73EFD81
:100FD000401B642801D903209EE7CC4808380068EC
:100FE000C0F340400028F1D011E0FFF72FFD054687
:100FF00006E0FFF72BFD401B642801D903208BE797
:10100000C24808380068C0F340400028F1D1207879
:1010100000F0020002285FD1BC48006800F00C001C
:1010200058B1BA48006800F00C0008281CD1B74835
:10103000001F006800F48000B0B9B44808380068A8
:10104000C0F3400020B1E068012801D0012063E72F
:10105000AE480838006820F0F800216940EAC10075
:10106000AA490839086037E0E06800B30120A849C0
:101070000860FFF7EBFC054606E0FFF7E7FC401BC6
:10108000022801D9032047E7A04808380068C0F3C8
:1010900040000028F1D09D480838006820F0F80092
:1010A000216940EAC10099490839086014E000202C
:1010B00097490860FFF7CAFC054606E0FFF7C6FC43
:1010C000401B022801D9032026E790480838006811
:1010D000C0F340000028F1D1207800F00800082873
:1010E0002CD16069A8B101208A490860FFF7AEFCE5
:1010F000054606E0FFF7AAFC401B022801D90320A1
:101100000AE782486C300068C0F340000028F1D044
:1011100014E000207F490860FFF798FC054606E0D0
:10112000FFF794FC401B022801D90320F4E677481E
:101130006C300068C0F340000028F1D1207800F046
:101140000400042870D1002770483830006800F08F
:10115000805090B900BF002000906C483830006883
:1011600040F080506949383108600846006800F056
:101170008050009000BF00BF01276748006800F45E
:101180008070B0B96448006840F4807062490860BB
:10119000FFF75CFC054606E0FFF758FC401B022801
:1011A00001D90320B8E65C48006800F4807000288C
:1011B000F2D000BFA068012808D154486830006808
:1011C00040F001005149683108601DE0A068052821
:1011D0000DD14E486830006840F004004B4968313A
:1011E00008600846006840F0010008600CE04748CD
:1011F0006830006820F00100444968310860084602
:10120000006820F00400086000BFA068A8B1FFF7E4
:101210001DFC054609E0FFF719FC401B41F288312F
:10122000884202D9032077E626E038486830006813
:10123000C0F340000028EED013E0FFF707FC05469E
:1012400008E0FFF703FC401B41F28831884201D9D6
:10125000032061E62D4868300068C0F34000002894
:10126000EFD1012F07D129483830006820F0805095
:1012700026493831086000BFA069002845D02348BE
:10128000006800F00C0008285DD0A069022845D154
:1012900000201F490866FFF7D9FB054606E0FFF767
:1012A000D5FB401B022801D9032035E61748083832
:1012B0000068C0F340600028F1D1D4E90701084379
:1012C000616A40EA81110122A06AC2EB500041EA42
:1012D00000412C20005D41EA00600C49091F0860B4
:1012E00001200B490866FFF7B1FB054606E0FFF752
:1012F000ADFB401B022801D903200DE60348083846
:101300000068C0F340600028F1D049E0083802408E
:1013100000004742800E47420070004000202149F3
:101320000866FFF793FB054606E0FFF78FFB401BBF
:10133000022801D90320EFE51B480068C0F3406094
:101340000028F2D12CE0A069012800D1E4E516487C
:10135000001D0668A069012820D006F48001E0691C
:1013600081421BD106F03F01206A814216D147F627
:10137000C0703040616AB0EB811F0FD106F440317C
:101380000122A06AC2EB5000B1EB004F06D106F07B
:1013900070612C20005DB1EB006F01D00120BBE536
:1013A0000020B9E50000474200380240704770470E
:1013B00030B502460B4600BF92F83C00012801D12F
:1013C000022030BD012082F83C0000BF022082F8DC
:1013D0003D00106844681068816824F07004186843
:1013E000044310684460184D1068A8421BD0106870
:1013F000B0F1804F17D0154D1068A84213D0144D8E
:101400001068A8420FD0134D1068A8420BD0124D9F
:101410001068A84207D0114D1068A84203D0104DA3
:101420001068A84205D121F0800158680143106876
:101430008160012082F83D0000BF002082F83C005E
:1014400000BF00BFBDE700000000014000040040F5
:1014500000080040000C0040000401400040014032
:101460000018004010B504460CB9012010BD94F8D6
:101470003D0028B9002084F83C00204600F025F803
:10148000022084F83D00211D206800F0B5FC0120F9
:1014900084F8460000BF84F83E0001213F2001553A
:1014A000402001554120015500BF00BF012084F8B4
:1014B000420043200155442001554520015500BFFD
:1014C000012084F83D000020D0E77047014691F8E4
:1014D0003D00012801D001207047022081F83D0025
:1014E0000868C06840F001000B68D8601A4B0868B3
:1014F00098421BD00868B0F1804F17D0174B08688E
:10150000984213D0164B086898420FD0154B0868C4
:1015100098420BD0144B0868984207D0134B0868C8
:10152000984203D0124B086898420CD10868806832
:1015300000F00702062A0CD00868006840F001009D
:101540000B68186005E00868006840F001000B684F
:1015500018600020C0E700000000014000040040C7
:1015600000080040000C0040000401400040014021
:10157000001800402DE9F04104460D4614B9012041
:10158000BDE8F08194F83D0028B9002084F83C00C3
:10159000204600F053F8022084F83D00206880685F
:1015A00044F20701884321688860211D206800F00B
:1015B00023FC2068D0F80880206886692068076AC4
:1015C000286840EA080840F203308643A969A86801
:1015D00040EA0120064340F60C4086434FF2F000FB
:1015E0008643E969E86840EA01200643286900016A
:1015F000296A40EA0130064327F0220727F08807CE
:101600006969686840EA011007432068C0F80880EB
:101610002068866120680762012084F8460084F80B
:101620003E0001213F200155012084F84200432063
:101630000155012084F83D000020A1E710B586B0D7
:101640000446142101A8FEF753FF2068B0F1804F33
:101650004BD100BF002000905848006840F00100C6
:10166000564908600846006800F00100009000BF7D
:1016700000BF00BF0020009050481038006840F0C4
:1016800001004E49103908600846006800F001006A
:10169000009000BF00BF00BF002000900846006817
:1016A00040F0020008600846006800F00200009068
:1016B00000BF00BF20200190022002900020039074
:1016C00004900120059001A93D48FFF7C5F80820C6
:1016D00001900220029000200390049001200590C8
:1016E00001A93848FFF7B8F866E037492068884212
:1016F0002FD100BF002000903048006840F0020069
:101700002E4908600846006800F00200009000BF03
:1017100000BF00BF0020009028481038006840F04B
:1017200001002649103908600846006800F00100F1
:10173000009000BF00BFC020019002200290002056
:10174000039004900220059001A91D48FFF784F83A
:1017500032E01E49206888422ED100BF0020009050
:101760001648006840F00800144908600846006800
:1017700000F00800009000BF00BF00BF00200090F4
:101780000E481038006840F001000C49103908601C
:101790000846006800F00100009000BF00BF032071
:1017A00001900220029000200390049002200590F6
:1017B00001A90348FFF750F806B010BD40380240B9
:1017C000000002400004024000040040000C004001
:1017D0002DE9F04304460D4694F83E603F20075D36
:1017E00094F84280432010F804906DB9012E02D184
:1017F000B8F1010F02D00120BDE8F083022084F887
:101800003E0084F8420025E0042D0CD1012F02D1C6
:10181000B9F1010F01D00120EEE702213F2001556F
:101820004320015516E0012E07D1012F05D1B8F153
:10183000010F02D1B9F1010F01D00120DCE7022034
:1018400084F83E0002213F200155022084F8420026
:101850004320015515B1042D0CD105E001220021D2
:10186000206800F039FB10E001220421206800F01C
:1018700033FB0AE001220021206800F02DFB012249
:101880000421206800F028FB00BF00BF206800682A
:1018900040F00100216808600020ADE7704770B596
:1018A00004462068C5682068066906F00200022820
:1018B00019D105F00200022815D1401F21680861E6
:1018C000012020772068806900F0030018B12046CD
:1018D000FFF7E4FF05E0204600F097F8204600F00F
:1018E00095F80020207706F00400042819D105F0AF
:1018F0000400042815D1C043216808610220207724
:101900002068806900F4407018B12046FFF7C6FFD8
:1019100005E0204600F079F8204600F077F8002036
:10192000207706F00800082819D105F008000828DB
:1019300015D1C04321680861042020772068C06960
:1019400000F0030018B12046FFF7A8FF05E020468D
:1019500000F05BF8204600F059F80020207706F0F0
:101960001000102819D105F01000102815D1C0431F
:1019700021680861082020772068C06900F4407061
:1019800018B12046FFF78AFF05E0204600F03DF839
:10199000204600F03BF80020207706F0010048B117
:1019A00005F0010030B16FF00100216808612046A8
:1019B00000F02EF806F08000802809D105F08000A4
:1019C000802805D1C043216808612046FFF7EEFC5E
:1019D00006F04000402809D105F04000402805D11C
:1019E000C04321680861204600F01EF806F0200080
:1019F000202809D105F02000202805D1C043216806
:101A000008612046FFF7D3FC70BD704770470000A7
:101A100010B5044603492068884201D1FFF71CF83D
:101A200010BD000000000140704700BFFEE700004D
:101A300010B5044A0021044800F06AFB034908601D
:101A400010BD0000E4410008F31C00080000002065
:101A500008B500BF002000901548006840F08000E5
:101A6000134908600846006800F08000009000BF3D
:101A700000BF00BF002000900846006840F0010051
:101A800008600846006800F00100009000BF00BF39
:101A900000BF002000900846006840F00200086087
:101AA0000846006800F00200009000BF00BF08BDBB
:101AB0003038024000B58BB0242102A8FEF718FD93
:101AC0000020009001904FF08040174908600020EE
:101AD0004860002114488160491EC16000210161F5
:101AE00081610320029000200390012004900020D7
:101AF00005900690079001200890002009900A9018
:101B000002A90948FFF736FD08B1FEF7A2FE002042
:101B10000090019069460448FFF74AFC08B1FEF7BF
:101B200098FE0BB000BD00009C01002000B58BB0FA
:101B3000242102A8FEF7DCFC002000900190184848
:101B400018490860002048600021164881604FF65F
:101B5000FF71C160002101618161032002900020BA
:101B6000039001200490002005900690079001202A
:101B70000890002009900A9002A90A48FFF7FAFC91
:101B800008B1FEF766FE0020009001906946054806
:101B9000FFF70EFC08B1FEF75CFE0BB000BD0000C5
:101BA00000040040E401002000B58BB0242102A80D
:101BB000FEF79EFC0020009001901748174908602E
:101BC00000204860002115488160491EC160002145
:101BD00001618161032002900020039001200490A4
:101BE00000200590069007900120089000200990A1
:101BF0000A9002A90948FFF7BDFC08B1FEF729FECB
:101C000000200090019069460448FFF7D1FB08B11D
:101C1000FEF71FFE0BB000BD000C00402C020020A0
:101C200000BFFEE700BFFEE790ED041A80ED051A45
:101C300030EEC01A80ED041A90ED061AD0ED041AA9
:101C400031EE211A80ED061A90ED061AD0ED031A36
:101C5000B4EEE11AF1EE10FA03DD90ED031A80ED17
:101C6000061A90ED061AD0ED031AF1EE611AB4EEE1
:101C7000E11AF1EE10FA05D290ED031AB1EE411A15
:101C800080ED061A90ED001AD0ED041A21EE211A0B
:101C9000D0ED011A90ED062A01EE821AD0ED041A59
:101CA00090ED052A71EEC21A90ED022A02EE211A79
:101CB00080ED071A90ED071AD0ED081AF1EE611ABF
:101CC000B4EEE11AF1EE10FA05D290ED081AB1EE79
:101CD000411A80ED071A90ED071AD0ED081AB4EEFC
:101CE000E11AF1EE10FA03DD90ED081A80ED071A03
:101CF000704700F003F9002001F054FA00BF012002
:101D000000F0B1F9FBE710B54FF0E020006902F0F8
:101D10000DF8012801D001F057FC10BD00B593B0BB
:101D2000302107A8FEF7E4FB142102A8FEF7E0FB30
:101D300000BF002001902548006840F080502349F2
:101D400008600846006800F08050019000BF00BFA6
:101D500000BF002001901E48006840F480401C49EC
:101D600008600846006800F48040019000BF00BF92
:101D70000220079001200A9010200B9002200D9065
:101D800000210E9108210F91A8211091022111919B
:101D90000421129107A8FFF7BBF808B1FEF759FD1F
:101DA0000F20029002200390002004904FF4A050D6
:101DB00005904FF480500690052102A8FEF756FFCB
:101DC00008B1FEF746FD13B000BD000040380240E8
:101DD000007000400348006840F47000014908604A
:101DE0007047000088ED00E010B50248FFF757FD8E
:101DF00010BD00007402002010B502682B4B984201
:101E00000ED0B0F1804F0BD0294B984208D0294B0F
:101E1000984205D0284B984202D0284B984203D1D3
:101E200022F070024B681A43204B984220D0B0F148
:101E3000804F1DD01E4B98421AD01E4B984217D08F
:101E40001D4B984214D01D4B984211D01C4B984208
:101E50000ED01C4B98420BD01B4B984208D01B4B0A
:101E6000984205D01A4B984202D01A4B984203D19F
:101E700022F44072CB681A4322F080034C6943EA93
:101E800004028B68C3620B688362084B984202D0DD
:101E90000A4B984201D10B690363036843F00403C2
:101EA000036001234361026010BD00000000014097
:101EB0000004004000080040000C00400004014005
:101EC000004001400044014000480140001800402B
:101ED000001C00400020004030B501F01F05012427
:101EE00004FA05F3046A9C430462046A01F01F05C6
:101EF00002FA05F52C43046230BD00001CB50C4805
:101F000000F0A2F80B4800F09FF80B4800F09CF896
:101F100000F08AFF0948032100234FF4C872CDE97D
:101F2000001007A1074801F071FE00F0A7FF1CBDDB
:101F30009C010020E40100202C02002098010020D8
:101F400041524D006106000800BFFEE702480068EC
:101F5000C0F30220704700000CED00E010B500282F
:101F600004DB0A07130E054A135406E00A07140E91
:101F7000034A00F00F031B1FD45410BD00E400E01F
:101F800018ED00E002685163704702689163704782
:101F9000EFF305807047FEF76BFDFFF7BFFEFFF71D
:101FA00057FDFFF787FDFFF7C1FDFFF7FDFD00F0CF
:101FB00069F8FFF73DFD00F07BF800BFFEE7000089
:101FC00070B505460C46642C00DD64240B4800788F
:101FD000012808D100212846FFF7D4FF21462846D2
:101FE000FFF7D3FF09E0C4F16400C1B22846FFF750
:101FF000C9FF64212846FFF7C8FF70BD9400002088
:1020000070B505460C46642C00DD64240B4800784E
:10201000012808D121462846FFF7B4FF00212846B1
:10202000FFF7B3FF09E064212846FFF7ABFFC4F1D7
:102030006400C1B22846FFF7A8FF70BD94000020DD
:102040000268526A0A60704710B504463C21204677
:10205000FFF7BEFB3C212046FFF7BAFB3C212046A0
:10206000FFF7B6FB10BD70B50546FFF791FF10B145
:102070006FF0050404E0002415B1284600F0FAFFD3
:10208000204670BD10B5FFF783FF10B16FF0050457
:1020900009E00648006820B90120044908600024CE
:1020A00001E04FF0FF34204610BD00006400002026
:1020B00070B5FFF76DFF10B16FF005041FE0114818
:1020C0000068012819D100BF801F0021002804DB0F
:1020D0000A07130E0C4A135406E00A07150E0B4AA2
:1020E00000F00F031B1FD55400BF00BF022005499D
:1020F000086001F009F9002401E04FF0FF342046A8
:1021000070BD00006400002000E400E018ED00E075
:102110002DE9FF4780468946144600200390FFF7CB
:1021200037FF00284ED1B8F1000F4BD0802618257C
:102130008246471E44B3206808B1D4F800A0A069C5
:1021400000B1A5692DB1382D03D8207900F0010028
:1021500018B1002004B0BDE8F087606908B160697B
:102160008608A06840B1E0685C2805D3206918B1F2
:10217000606908B1012708E0A06830B9E06820B9BB
:10218000206910B9002700E00027012F0CD1216938
:10219000A0684B463246CDE9005102905146404678
:1021A00001F066FD03900DE067B903A8B2B24B469B
:1021B0005146CDE90050404601F028FD012801D0EC
:1021C000002003900398C5E72DE9F04105460E462F
:1021D0001648076816480068001D00F0C3FD681C1B
:1021E00038B936B112480168091D124800F010FED6
:1021F0001AE07C190E4800684460BC4207D20C48C3
:102200000168091D0C48006800F0E8FD0CE0084872
:102210000168091D0948006800F0E0FD08480068F1
:10222000844201D206480460BDE8F0812800002005
:1022300014000020AC0700201C0000201800002023
:102240004400002010B5044600F0EEFD244800686C
:10225000401C234908602348006840B921480460B5
:102260000846006801280DD100F0FCF90AE01E487C
:10227000006838B91B480068C06AE16A884201D822
:102280001848046019480068401C1849086008464E
:10229000006860641649E06A0968884202D91449F6
:1022A000E06A0860E16A01EB8101124A02EB8100F9
:1022B000211D00F0ADFD00F0E1FD0B48006868B1A4
:1022C00008480068C06AE16A884207D24FF080502F
:1022D00009490860BFF34F8FBFF36F8F10BD000037
:1022E00024000020140000203000002040000020C6
:1022F0002C000020FC02002004ED00E008B500F0F6
:1023000093FD12480068E8B9114800F057FD1148E4
:1023100000F054FD0E48104908600E480F4908604F
:1023200000200F4B0F4A102100900A2001F066F99F
:10233000064908600846006820B10BA10348006800
:1023400000F05CFE00F09AFD08BD0000580000207F
:10235000C0070020D40700205000002054000020B7
:10236000E807002038080020546D7251000000007A
:1023700010B516E000F058FD0C48C068C468201D78
:1023800000F0F0FC0A480068401E0949086009484E
:102390000068401E0749086000F070FD204600F00C
:1023A0005FF8044800680028E4D110BD98070020B9
:1023B000240000202000002070B504460D46206C4B
:1023C00070B1216CE0680144E160D4E902108842F8
:1023D00001D32168E1602846226CE168FEF73BF8F2
:1023E00070BD2DE9F04104460F4615464FF0000838
:1023F000A66B206C48B9206800282CD1A06801F099
:102400004DFD80460020A06025E07DB93946226C54
:102410006068FEF720F8216C606808446060D4E9C9
:102420000101884217D32068606014E03946226CAD
:10243000E068FEF710F8216CE068411AE16021685D
:10244000E068884203D2216CA068411AE160022D45
:1024500001D106B1761E701CA0634046BDE8F08134
:1024600010B5044694F8590030B9206B00F024FDF3
:10247000204600F021FD1AE094F85900012803D10C
:10248000204600F019FD12E094F85900022801D10D
:10249000012000E0002050B900BF502080F31188D7
:1024A000BFF34F8FBFF36F8F00BF00BFFEE710BDBC
:1024B0000146084A126812680AB9012200E00022A7
:1024C0000A600A6822B9034A1268D268106800E0FC
:1024D000002070475000002030B54FF4705317486B
:1024E00000F007042CB1C01D20F00700134C041BA2
:1024F0001B1B0246124C22600024114D6C60D01848
:10250000083820F007000F4C206000240D4D2D6886
:102510006C600C4D2D682C601146441A4C60094CBF
:1025200024680C60084D4C682C60084D4C682C6089
:102530004FF00044064D2C6030BD0000900F00208D
:102540006800002070000020780000207400002047
:102550008400002000BFFFF70BFF06480068012839
:10256000F9D94FF0805004490860BFF34F8FBFF393
:102570006F8FF0E7FC02002004ED00E02DE9F04150
:1025800006460D4617469846069C0DB9246000E0A5
:102590002760E66325640121204601F09FF884F856
:1025A0004C80BDE8F0812DE9F05F82460E469046F2
:1025B0009B460A9F0C9C4FEA8801A522206BFDF7E1
:1025C0008FFFA8F10100216B01EB800929F00709B9
:1025D00009F0070008B9012000E0002050B900BF51
:1025E000502080F31188BFF34F8FBFF36F8F00BF70
:1025F00000BFFEE786B1002507E0715D04F13400FD
:102600004155705D00B902E06D1C102DF5D300BF7F
:1026100000214320015502E0002084F83400382FC7
:1026200000D33727E762E76400202065201D00F013
:10263000D2FB04F1180000F0CEFB2461C7F1380092
:10264000A06164620020606584F858005A465146D3
:10265000484600F071FB20600B9808B10B980460AD
:10266000BDE8F09F10B5002407E004EB84010F4A99
:1026700002EB810000F0A2FB641C382CF5D30C485F
:1026800000F09CFB0B4800F099FB0B4800F096FB18
:102690000A4800F093FB0A4800F090FB04480949FF
:1026A000086004480849086010BD0000FC020020D2
:1026B0005C07002070070020840700209807002096
:1026C000AC070020180000201C00002010B50146B7
:1026D000164800E0006803688B42FBD3024643685B
:1026E00013448B4204D143684C6823444360014641
:1026F0000A464B6813440468A34211D10C4C03688A
:102700002468A34208D04B680468646823444B6083
:1027100003681B680B6005E0054B1B680B6001E05C
:1027200003680B60884200D0016010BD6800002083
:10273000700000202DE9F04104460D4616461F4664
:102740004FF0000865602461B5420CD8F01BA16908
:10275000884202D34FF0010811E0211D09480068AA
:1027600000F03CFB0BE0BE4204D2BD4202D34FF06E
:10277000010804E0211D0448006800F02FFB4046DA
:10278000BDE8F081540000205000002070B50546DF
:1027900000F04AFBA86B08B9012400E0002400F017
:1027A0006DFB204670BD70B5054600F03DFBA86B83
:1027B000E96B884201D1012400E0002400F05EFBB7
:1027C000204670BDF8B505460F461A480068C06837
:1027D000C468201D00F0C6FA94F8280000F0040038
:1027E000E8B1A06941192B463A462046FFF7A2FFFF
:1027F000D8B1002003462A4601460090204601F049
:10280000A9FC064656B900BF502080F31188BFF3DB
:102810004F8FBFF36F8F00BF00BFFEE705E094F856
:10282000280020F0010084F828002046216A88470B
:10283000F8BD000050000020F0B587B0A0E003987C
:10284000002811DA04AE56B900BF502080F3118879
:10285000BFF34F8FBFF36F8F00BF00BFFEE7D6E916
:102860000020B168904700BF03980028E6DB059C74
:10287000606908B9012000E0002010B9201D00F0B7
:1028800071FA02A800F0DEF8054603980A2875D20E
:10289000DFE800F009050739416306083A4200BF46
:1028A00000BF00BF00BF94F8280040F0010084F88A
:1028B00028000498A269811803462A462046FFF79B
:1028C00039FFF8B12046216A884794F8280000F0C3
:1028D0000400B8B1002000900498A16942180023B8
:1028E0001946204601F036FC074657B900BF502074
:1028F00080F31188BFF34F8FBFF36F8F00BF00BF0E
:10290000FEE700BF3BE000BF94F8280020F0010084
:1029100084F8280033E000BF94F8280040F001005C
:1029200084F828000498A061A06908B1012000E0A3
:10293000002050B900BF502080F31188BFF34F8FA3
:10294000BFF36F8F00BF00BFFEE7A06941192B46A0
:102950002A462046FFF7EEFE11E094F8280000F02A
:10296000020018B9204600F0A7FA05E094F8280004
:1029700020F0010084F8280001E0FFE700BF00BF5D
:10298000002203A90448006801F046F800287FF4FB
:1029900056AF07B0F0BD000058000020F8B505465E
:1029A0000C4600F00DFD684600F04CF80646009815
:1029B00020BB44B9B54206D801F00EFB314628468B
:1029C000FFF700FF1CE03CB10E480068006808B942
:1029D000012000E000200446A91B22460A480068A6
:1029E00000F022FB01F0F8FA50B94FF0805007498F
:1029F0000860BFF34F8FBFF36F8F01E001F0ECFA77
:102A0000F8BD0000540000205800002004ED00E054
:102A10000A490968096809B9012100E0002121B1CA
:102A20004FF0FF31064A116006E004490968C968A1
:102A3000C868034A41681160704700001800002010
:102A40004400002070B5044601F080F905460748AF
:102A50000068854204D200F00BF80120206001E0FC
:102A60000020206001480560284670BD60000020FD
:102A70002DE9F84334E025480068C068056823481C
:102A80000068C068C468201D00F06CF92046216A07
:102A9000884794F8280000F0040008B3A06946199C
:102AA000AE4207D966602461211D1848006800F015
:102AB00095F915E0002003462A460146009020467D
:102AC00001F048FB074657B900BF502080F311883A
:102AD000BFF34F8FBFF36F8F00BF00BFFEE700BF94
:102AE0000A480068006808B9012000E000200028BA
:102AF000C1D00648D0F80080054800680349086046
:102B00000348C0F80080BDE8F883000050000020B2
:102B1000540000200E480068401C08B9012000E065
:102B2000002050B900BF502080F31188BFF34F8FB1
:102B3000BFF36F8F00BF00BFFEE700BF502080F3E0
:102B40001188BFF34F8FBFF36F8F00BF00BFFEE749
:102B50008800002008B500BF6846FFF7A9FC0446BE
:102B600020460099FFF71AFFFFF766FEF4E770B5FD
:102B7000044600F059F994F9455010E0606A08B92C
:102B8000012000E0002038B904F1240001F0D8F958
:102B900018B100F077FB00E003E0681E45B2002D9D
:102BA000ECDC00BFFF2084F8450000F067F900F07E
:102BB0003BF994F9445010E0206908B9012000E085
:102BC000002048B904F1100001F0BAF908B100F092
:102BD00059FB681E45B200E001E0002DECDC00BFAF
:102BE000FF2084F8440000F049F970BD2DE9F04160
:102BF00004464FF0000800F0E3FB4948006808B9BC
:102C0000FFF76AFC474800682040002870D1D4B123
:102C1000083404F00700B0B104F00700C0F1080068
:102C2000044404F0070008B9012000E0002050B976
:102C300000BF502080F31188BFF34F8FBFF36F8F19
:102C400000BF00BFFEE7002C52D037480068844226
:102C50004ED8364E3046056801E02E462D6868682D
:102C6000A04202D228680028F7D12D48006885428A
:102C70003ED0306800F10808286830606868001BA2
:102C8000102819D92F1907F0070008B9012000E012
:102C9000002050B900BF502080F31188BFF34F8F40
:102CA000BFF36F8F00BF00BFFEE76868001B78604E
:102CB0006C603846FFF70AFD1B4968680968081A06
:102CC000194908600846006819490968884203D212
:102CD0001548006816490860124968680968084381
:102CE00068600020286013480068401C1149086093
:102CF00001F072F908F0070008B9012000E0002097
:102D000050B900BF502080F31188BFF34F8FBFF33D
:102D10006F8F00BF00BFFEE74046BDE8F0810000B6
:102D20007000002084000020740000206800002053
:102D3000780000207C000020001F4FF080730360AB
:102D4000001F21F001030360001F054B03601438CE
:102D50000260001F6FF0020303602038704700001C
:102D6000152B000801460A69D1E901309860D1E9C4
:102D7000010358605068884201D188685060002083
:102D800008611068401E106010687047034B0360B4
:102D9000034B0B608023136070470000D8080020AD
:102DA00034090020034B0360034B0B604FF4807326
:102DB00013607047340B0020900B002000F10801D5
:102DC00041604FF0FF31816000F10801C160016195
:102DD00000210160704700210161704710B5024673
:102DE0000B685C1C0CB9106907E002F1080000E0F8
:102DF0004068446824689C42FAD944684C604C6836
:102E0000A160886041600A611468641C146010BD90
:102E100042684A6093688B6093685960916008616A
:102E200003685B1C0360704700BF502080F311886B
:102E3000BFF34F8FBFF36F8F00BF0E480068401C79
:102E40000C49086008460068012812D10A48006849
:102E5000C0B208B9012000E0002050B900BF5020E6
:102E600080F31188BFF34F8FBFF36F8F00BF00BF98
:102E7000FEE770478800002004ED00E00D48006880
:102E800050B900BF502080F31188BFF34F8FBFF3BC
:102E90006F8F00BF00BFFEE706480068401E05496F
:102EA00008600846006820B9002080F3118800BF40
:102EB00000BF70478800002070B506463546002EDA
:102EC00044D0083D2C46224960680968084008B192
:102ED000012000E0002050B900BF502080F311888D
:102EE000BFF34F8FBFF36F8F00BF00BFFEE72068B7
:102EF00008B9012000E0002050B900BF502080F345
:102F00001188BFF34F8FBFF36F8F00BF00BFFEE785
:102F10000F49606809680840C0B12068B0B90C4921
:102F2000606809688843606000F04AFA094960688F
:102F300009680844074908602046FFF7C7FB0648B0
:102F40000068401C0449086001F046F870BD0000AC
:102F500084000020740000208000002000204FF03A
:102F6000E02108618861064800684FF47A71B0FB7F
:102F7000F1F0401E4FF0E0214861072008617047E2
:102F80001000002070B5FDF7CBF90446102C16D3C5
:102F900004F1E02090F8F05315480078854201DBF9
:102FA000012000E0002050B900BF502080F31188BC
:102FB000BFF34F8FBFF36F8F00BF00BFFEE70D4819
:102FC000006800F4E0600C490968884201D80120DB
:102FD00000E0002050B900BF502080F31188BFF3FB
:102FE0004F8FBFF36F8F00BF00BFFEE770BD0000C3
:102FF0008C0000200CED00E0900000200246002034
:103000000BE0084B53F8303033B9064B43F830101F
:1030100003EBC0035A6002E0401C0828F1D300BF54
:1030200070470000BC0200202DE9F04105460E4625
:1030300017462C46FFF7F8FE94F94400401C10B9DF
:10304000002084F8440094F94500401C10B9002089
:1030500084F84500FFF712FFA06B28B93A463146C5
:1030600004F1240000F030F92046FFF780FDBDE8B0
:10307000F081000070B504460025D4B11248006804
:1030800008B9012000E0002050B900BF502080F3B3
:103090001188BFF34F8FBFF36F8F00BF00BFFEE7F4
:1030A00000F08EF900212046FFF78EF800F094FF23
:1030B00005463DB94FF0805004490860BFF34F8F7B
:1030C000BFF36F8F70BD00004C00002004ED00E0E6
:1030D0002DE9F04704460F464FF0000954B900BFF0
:1030E000502080F31188BFF34F8FBFF36F8F00BF65
:1030F00000BFFEE70FB1012000E0002050B900BF83
:10310000502080F31188BFF34F8FBFF36F8F00BF44
:1031100000BFFEE72048006808B9012000E0002059
:1031200050B900BF502080F31188BFF34F8FBFF319
:103130006F8F00BF00BFFEE700F042F91748066836
:103140002068C5192068B04207D92068A8420BD969
:10315000B54209D94FF0010906E02068A84201D81C
:10316000B54201D94FF001092560B9F1000F03D034
:10317000A81B0021FFF728F800F02EFF8046B8F1C9
:10318000000F07D14FF0805005490860BFF34F8F03
:10319000BFF36F8FBDE8F0874C00002028000020AF
:1031A00004ED00E070B50546FFF73EFE15B927486F
:1031B000006800E028460446201DFFF7D3FDA06A02
:1031C00018B104F11800FFF7CDFD21480068401C3C
:1031D0001F4908601D480068844209D1211D1D480F
:1031E000FFF716FE1C480068401C1B49086009E0F8
:1031F0001A480068401E194908602046FFF730F958
:10320000FFF706FCFFF73AFE15480068E8B10F48E3
:103210000068844219D11348006808B9012000E011
:10322000002050B900BF502080F31188BFF34F8FAA
:10323000BFF36F8F00BF00BFFEE74FF080500A4919
:103240000860BFF34F8FBFF36F8F70BD1400002075
:1032500040000020980700202000002024000020CB
:10326000300000204C00002004ED00E00349096814
:103270000160034909684160704700003C0000207C
:103280002800002001200149086070473800002014
:1032900070B504460D4654B900BF502080F3118824
:1032A000BFF34F8FBFF36F8F00BF00BFFEE705482E
:1032B000016818312046FFF791FD01212846FEF7ED
:1032C00083FF70BD1400002070B505460E461446FD
:1032D00055B900BF502080F31188BFF34F8FBFF363
:1032E0006F8F00BF00BFFEE706480168183128460F
:1032F000FFF78EFD0CB14FF0FF3621463046FEF74A
:1033000063FF70BD1400002010B586B0002005904A
:10331000049003AA04A905A8FFF738FD0022DDE9FF
:1033200004101346CDE9002102901EA11F48039A04
:1033300000F09EFC1E4908600846006808B10124A0
:1033400000E00024012C02D100F0C8FE0446012C4C
:1033500015D100BF502080F31188BFF34F8FBFF30A
:103360006F8F00BF4FF0FF301249086001201249F3
:10337000086000201149086000F072F810E0601C3D
:1033800008B1012000E0002050B900BF502080F3B8
:103390001188BFF34F8FBFF36F8F00BF00BFFEE7F1
:1033A00006B010BD49444C450000000055250008FA
:1033B00048000020440000203000002028000020A9
:1033C00002480068401C0149086070474C0000201A
:1033D0001E48006818B101201D49086034E0002033
:1033E0001B4908601B4801680CE051B900BF502020
:1033F00080F31188BFF34F8FBFF36F8F00BF00BF03
:10340000FEE7491E01EB8100134A52F8200008B97B
:10341000012000E000200028E7D101EB81020E4BE3
:1034200003EB820042685268426000F10802436880
:10343000934202D14268526842604268D268074BA8
:103440001A600448016000BF704700004C00002073
:10345000380000202C000020FC0200201400002076
:103460001CB5524800685249884201D0012000E052
:10347000002050B900BF502080F31188BFF34F8F58
:10348000BFF36F8F00BF00BFFEE7484800684849A0
:10349000491E884201D0012000E0002050B900BF41
:1034A000502080F31188BFF34F8FBFF36F8F00BFA1
:1034B00000BFFEE73F49084600780190FF200A461A
:1034C00010700846007800909DF8000000F0F000B1
:1034D0009DF80020904201D1012000E0002050B969
:1034E00000BF502080F31188BFF34F8FBFF36F8F61
:1034F00000BF00BFFEE79DF8000000F050002E4A1C
:10350000107007202D4A106009E02C480068401E0A
:103510002A4A10609DF800004006000E00909DF8B9
:10352000000000F080008028EFD024480068C0F13F
:103530000700042801D1012000E0002050B900BF9D
:10354000502080F31188BFF34F8FBFF36F8F00BF00
:1035500000BFFEE7194800680002184A10601046D4
:10356000008800F4E0601060124A019810700F4863
:103570002030006840F470000C4920310860084693
:10358000006840F070400860FFF7E8FC00200C493C
:103590000860FCF78DFE0B48006840F04040094988
:1035A0000860FCF771FE00201CBD000000ED00E08B
:1035B00071C20F4100E400E08C0000209000002068
:1035C0008800002034EF00E010B500BF502080F3E9
:1035D0001188BFF34F8FBFF36F8F00BF00F0BCFBAC
:1035E00018B14FF080500449086000BF002080F3FC
:1035F000118800BF10BD000004ED00E02DE9F84384
:1036000080460E4617461D46DDF82090B8F1000FA3
:1036100001D0012000E0002050B900BF502080F30D
:103620001188BFF34F8FBFF36F8F00BF00BFFEE75E
:103630000DB1012000E0002050B900BF502080F300
:103640001188BFF34F8FBFF36F8F00BF00BFFEE73E
:1036500007B10EB1012000E0002050B900BF50209A
:1036600080F31188BFF34F8FBFF36F8F00BF00BF90
:10367000FEE707B90EB9012000E0002050B900BFF5
:10368000502080F31188BFF34F8FBFF36F8F00BFBF
:1036900000BFFEE7502000900098502801D1012083
:1036A00000E0002050B900BF502080F31188BFF324
:1036B0004F8FBFF36F8F00BF00BFFEE700BF2C46E8
:1036C0004CB1012084F846004B463A46314640460C
:1036D0000094FEF753FF2046BDE8F88370B5054619
:1036E0000E462C4654B900BF502080F31188BFF31A
:1036F0004F8FBFF36F8F00BF00BFFEE7FFF794FB54
:10370000D4E90F12206801FB0200A0600020A06332
:1037100020686060E06B401E226C216800FB021193
:10372000E160FF2084F8440084F845009EB92069D8
:1037300008B9012000E00020A8B904F1100000F051
:10374000FFFB80B14FF0805009490860BFF34F8FF5
:10375000BFF36F8F07E004F11000FFF72FFB04F1B8
:103760002400FFF72BFBFFF789FB012070BD000051
:1037700004ED00E02DE9FF4383B0064688461D4670
:103780004FF00009344654B900BF502080F311882F
:10379000BFF34F8FBFF36F8F00BF00BFFEE7B8F1DD
:1037A000000F01D1206C08B9012000E0002050B9C1
:1037B00000BF502080F31188BFF34F8FBFF36F8F8E
:1037C00000BF00BFFEE7022D02D1E06B012801D14E
:1037D000012000E0002050B900BF502080F3118884
:1037E000BFF34F8FBFF36F8F00BF00BFFEE700F046
:1037F0009DFA08B9059808B9012000E0002050B9E9
:1038000000BF502080F31188BFF34F8FBFF36F8F3D
:1038100000BF00BFFEE700BFFFF706FBA06BE16B38
:10382000884201D3022D28D12A4641462046FEF780
:10383000D8FD0746606A08B9012000E0002068B999
:1038400004F1240000F07CFB88B14FF08050324935
:103850000860BFF34F8FBFF36F8F08E03FB14FF0A9
:1038600080502D490860BFF34F8FBFF36F8FFFF774
:1038700005FB012007B0BDE8F083059818B9FFF7F4
:10388000FDFA0020F6E7B9F1000F04D101A8FFF717
:10389000EDFC4FF00109FFF7F1FAFFF791FDFFF79B
:1038A000C3FA94F94400401C10B9002084F8440085
:1038B00094F94500401C10B9002084F84500FFF73A
:1038C000DDFA05A901A800F05BF9F0B92046FEF782
:1038D0006AFFA0B104F110000599FFF7D9FC20465A
:1038E000FFF745F900F078FB002895D14FF08050A4
:1038F00009490860BFF34F8FBFF36F8F8CE72046F5
:10390000FFF735F900F068FB86E72046FFF72FF94F
:1039100000F062FB0020ADE704ED00E02DE9F84F78
:1039200007468A4690461E463C4654B900BF502082
:1039300080F31188BFF34F8FBFF36F8F00BF00BFBD
:10394000FEE7BAF1000F01D1206C08B9012000E0B8
:10395000002050B900BF502080F31188BFF34F8F73
:10396000BFF36F8F00BF00BFFEE7022E02D1E06BF6
:10397000012801D1012000E0002050B900BF5020F3
:1039800080F31188BFF34F8FBFF36F8F00BF00BF6D
:10399000FEE7FFF7F7FA00BF5021EFF3118081F344
:1039A0001188BFF34F8FBFF36F8F00BF0546A06B29
:1039B000E16B884201D3022E25D194F945B0A06B6A
:1039C0000090324651462046FEF70BFD0BF10100F8
:1039D00088B9606A08B9012000E0002050B904F1FC
:1039E000240000F0ADFA28B1B8F1000F02D0012098
:1039F000C8F8000004E00BF1010040B284F8450073
:103A00004FF0010901E04FF0000900BF85F3118874
:103A100000BF4846BDE8F88F2DE9F74183B0054661
:103A20000E464FF000082C4654B900BF502080F3DA
:103A30001188BFF34F8FBFF36F8F00BF00BFFEE74A
:103A40000EB9206C08B9012000E0002050B900BF79
:103A5000502080F31188BFF34F8FBFF36F8F00BFEB
:103A600000BFFEE700F062F908B9059808B9012027
:103A700000E0002050B900BF502080F31188BFF350
:103A80004F8FBFF36F8F00BF00BFFEE700BFFFF790
:103A9000CBF9A76BF7B131462046FEF78DFC781EB7
:103AA000A063206908B9012000E0002060B904F19A
:103AB000100000F045FA38B14FF080502F490860EF
:103AC000BFF34F8FBFF36F8FFFF7D8F9012006B018
:103AD000BDE8F081059818B9FFF7D0F90020F6E7A6
:103AE000B8F1000F04D101A8FFF7C0FB4FF00108A7
:103AF000FFF7C4F9FFF764FCFFF796F994F9440067
:103B0000401C10B9002084F8440094F94500401C82
:103B100010B9002084F84500FFF7B0F905A901A805
:103B200000F02EF8F0B92046FEF730FEA0B104F107
:103B300024000599FFF7ACFB2046FFF718F800F0CA
:103B40004BFA0028A3D14FF080500C490860BFF316
:103B50004F8FBFF36F8F9AE72046FFF708F800F00A
:103B60003BFA94E72046FFF702F800F035FA2046CA
:103B7000FEF70CFE00288AD00020A8E704ED00E044
:103B800070B505460C4655B900BF502080F311882A
:103B9000BFF34F8FBFF36F8F00BF00BFFEE754B975
:103BA00000BF502080F31188BFF34F8FBFF36F8F9A
:103BB00000BF00BFFEE7FFF737F9124802686868E8
:103BC000131A2068401C08B9002617E00E4928681F
:103BD0000968884204D06868904201D801260DE047
:103BE0002068984207D92068C01A20602846FFF74D
:103BF0003DFB002602E0002020600126FFF73EF991
:103C0000304670BD280000203C0000202DE9FF4F09
:103C100085B0804689461746DDE912ABB800FEF74D
:103C2000E5FF064656B15C20FEF7E0FF04460CB106
:103C3000266304E03046FFF73FF900E000248CB132
:103C4000002084F85900CDE900ABCDE902403A46A6
:103C500049464046089BFEF7A6FC2046FEF7F2FACE
:103C6000012501E04FF0FF35284609B0BDE8F08F8F
:103C70002DE9F04F85B00746884691469A46DDE922
:103C80000EB6109C0EB1012000E0002050B900BF1C
:103C9000502080F31188BFF34F8FBFF36F8F00BFA9
:103CA00000BFFEE70CB1012000E0002050B900BFCA
:103CB000502080F31188BFF34F8FBFF36F8F00BF89
:103CC00000BFFEE75C20039003985C2801D101202F
:103CD00000E0002050B900BF502080F31188BFF3EE
:103CE0004F8FBFF36F8F00BF00BFFEE700BFB4B1BF
:103CF000AEB125462C462E63022085F859000020DF
:103D000004A953464A46CDE900B1CDE902504146E7
:103D10003846FEF748FC2846FEF794FA01E00020FA
:103D20000490049805B0BDE8F08F000005490968CB
:103D300009B9012005E00449096809B9022000E039
:103D400000207047300000204C0000200149086826
:103D500070470000280000202DE9F0414FF00008D6
:103D60004348006800287BD142480068451C414810
:103D7000056015BB40480068006808B9012000E0F4
:103D8000002050B900BF502080F31188BFF34F8F3F
:103D9000BFF36F8F00BF00BFFEE7374807683748A3
:103DA0000068354908603548076035480068401CA0
:103DB00033490860FEF72CFE00BF32480068854298
:103DC0003BD300BF2C480068006808B9012000E020
:103DD000002020B14FF0FF302A4908602CE026482F
:103DE0000068C068C4686668B54202D225480660AB
:103DF00022E0201DFEF7B6FFA06A18B104F11800FA
:103E0000FEF7B0FF2049E06A0968884202D91E49DE
:103E1000E06A0860E16A01EB81011C4A02EB810063
:103E2000211DFEF7F5FF1A49E06A0968C96A884250
:103E3000C8D34FF00108C5E700BF15480068C06A45
:103E400000EB8000114951F82000012801D94FF002
:103E500001081048006808B14FF0010805E0FFE7CD
:103E60000D480068401C0C4908604046BDE8F081E0
:103E70004C00002028000020180000201C0000201A
:103E80003C000020440000202C000020FC02002008
:103E900014000020380000203400002070B50546D2
:103EA0002C460026002D43D022480068844201D1D0
:103EB000012000E0002050B900BF502080F311889D
:103EC000BFF34F8FBFF36F8F00BF00BFFEE7206DC2
:103ED00050B900BF502080F31188BFF34F8FBFF35C
:103EE0006F8F00BF00BFFEE7206D401E2065E16CB4
:103EF000E06A88421CD0206DD0B9201DFEF732FF49
:103F0000E06CE062E06AC0F13800A0610A49E06A52
:103F10000968884202D90849E06A0860E16A01EB51
:103F20008101064A02EB8100211DFEF771FF012687
:103F3000304670BD140000202C000020FC02002040
:103F400070B50646F068C46854B900BF502080F3CD
:103F50001188BFF34F8FBFF36F8F00BF00BFFEE725
:103F600004F11800FEF7FEFE15480068A0B9201DF8
:103F7000FEF7F8FE1349E06A0968884202D9114940
:103F8000E06A0860E16A01EB81010F4A02EB8100FF
:103F9000211DFEF73DFF04E004F118010B48FEF778
:103FA00037FF0B49E06A0968C96A884204D90125CC
:103FB00001200849086000E00025284670BD000087
:103FC0004C0000202C000020FC0200208407002070
:103FD000140000203800002070B500240026364868
:103FE000006850B900BF502080F31188BFF34F8F95
:103FF000BFF36F8F00BF00BFFEE7FEF715FF2E482F
:104000000068401E2C4908600846006800284ED110
:104010002A48006800284AD023E02948C068C468BC
:1040200004F11800FEF79EFE201DFEF79BFE2549B9
:10403000E06A0968884202D92249E06A0860E16AB8
:1040400001EB8101204A02EB8100211DFEF7E0FE19
:104050001E49E06A0968C96A884202D301201C49E6
:1040600008601748006808B9012000E00020002817
:10407000D3D00CB1FEF7CCFC1648056865B100BF83
:10408000FFF76AFE10B10120114908606D1E002D76
:10409000F6D100200F4908600D48006838B10126AC
:1040A00030070D490860BFF34F8FBFF36F8FFEF7E6
:1040B000E5FE304670BD00004C00002024000020CA
:1040C000840700202C000020FC02002014000020A7
:1040D000380000203400002004ED00E010B586B068
:1040E0000024FEF70BF916480068D0B100200590B7
:1040F000049003AA04A905A8FEF754FE0222DDE9F4
:1041000004100023CDE9002102900EA10F48039A6C
:10411000FFF7AEFD0E4908600846006800B10124B3
:1041200000BF54B900BF502080F31188BFF34F8FF8
:10413000BFF36F8F00BF00BFFEE7204606B010BD83
:1041400058000020546D722053766300552B0008F0
:104150005C0000202DE9FF4704460D4616461F4629
:10416000DDF830804FF0000954B900BF502080F3D3
:104170001188BFF34F8FBFF36F8F00BF00BFFEE703
:104180001448006810B3009501960294062D15DAC4
:10419000FFF7CCFD022808D10023424669460D48AE
:1041A0000068FFF7E7FA814610E000231A466946E7
:1041B00008480068FFF7DEFA814607E000233A4628
:1041C000694604480068FFF7A9FB8146484604B0E9
:1041D000BDE8F087580000204FF04070E1EE100A73
:1041E00070470000204200080000000000000000AE
:1041F00000000000000000000002000018000000A5
:1042000000000000000000000000000000000000AE
:10421000010203040607080900000000010203046C
:1042200064656661756C745461736B004C42000880
:10423000000000209C010000C40100086842000842
:104240009C010020545000002002000881321042DE
:1042500001037524F41AAA0101190412401C460B2B
:08426000BF204224011F0000F1
:040000050800018965
:00000001FF
